{"contracts/SupplyChainTracking.sol":{"SupplyChainTracking":{"abi":[{"inputs":[],"stateMutability":"nonpayable","type":"constructor"},{"inputs":[{"internalType":"address","name":"owner","type":"address"}],"name":"OwnableInvalidOwner","type":"error"},{"inputs":[{"internalType":"address","name":"account","type":"address"}],"name":"OwnableUnauthorizedAccount","type":"error"},{"anonymous":false,"inputs":[{"indexed":false,"internalType":"address","name":"actor","type":"address"}],"name":"ActorDisabled","type":"event"},{"anonymous":false,"inputs":[{"indexed":false,"internalType":"address","name":"actor","type":"address"},{"indexed":false,"internalType":"enum SupplyChainTracking.Role","name":"role","type":"uint8"}],"name":"ActorRegistered","type":"event"},{"anonymous":false,"inputs":[{"indexed":false,"internalType":"uint256","name":"productId","type":"uint256"}],"name":"AssetRegistered","type":"event"},{"anonymous":false,"inputs":[{"indexed":true,"internalType":"address","name":"previousOwner","type":"address"},{"indexed":true,"internalType":"address","name":"newOwner","type":"address"}],"name":"OwnershipTransferred","type":"event"},{"inputs":[{"internalType":"address","name":"","type":"address"}],"name":"actors","outputs":[{"internalType":"enum SupplyChainTracking.Role","name":"role","type":"uint8"},{"internalType":"bool","name":"active","type":"bool"}],"stateMutability":"view","type":"function"},{"inputs":[{"internalType":"uint256","name":"","type":"uint256"}],"name":"assets","outputs":[{"internalType":"uint256","name":"productId","type":"uint256"},{"internalType":"string","name":"productType","type":"string"},{"internalType":"uint256","name":"productionDate","type":"uint256"},{"internalType":"string","name":"origin","type":"string"},{"internalType":"address","name":"currentHolder","type":"address"}],"stateMutability":"view","type":"function"},{"inputs":[{"internalType":"address","name":"_actor","type":"address"}],"name":"disableActor","outputs":[],"stateMutability":"nonpayable","type":"function"},{"inputs":[{"internalType":"address","name":"_actor","type":"address"}],"name":"getActor","outputs":[{"internalType":"enum SupplyChainTracking.Role","name":"","type":"uint8"},{"internalType":"bool","name":"","type":"bool"}],"stateMutability":"view","type":"function"},{"inputs":[{"internalType":"uint256","name":"_assetId","type":"uint256"}],"name":"getAsset","outputs":[{"internalType":"string","name":"","type":"string"},{"internalType":"uint256","name":"","type":"uint256"},{"internalType":"string","name":"","type":"string"},{"internalType":"address","name":"","type":"address"},{"internalType":"address[]","name":"","type":"address[]"}],"stateMutability":"view","type":"function"},{"inputs":[],"name":"getTotalAssetNumber","outputs":[{"internalType":"uint256","name":"","type":"uint256"}],"stateMutability":"view","type":"function"},{"inputs":[],"name":"owner","outputs":[{"internalType":"address","name":"","type":"address"}],"stateMutability":"view","type":"function"},{"inputs":[{"internalType":"address","name":"_actor","type":"address"},{"internalType":"enum SupplyChainTracking.Role","name":"_role","type":"uint8"}],"name":"registerActor","outputs":[],"stateMutability":"nonpayable","type":"function"},{"inputs":[{"internalType":"string","name":"_productType","type":"string"},{"internalType":"uint256","name":"_productionDate","type":"uint256"},{"internalType":"string","name":"_origin","type":"string"}],"name":"registerAsset","outputs":[],"stateMutability":"nonpayable","type":"function"},{"inputs":[],"name":"renounceOwnership","outputs":[],"stateMutability":"nonpayable","type":"function"},{"inputs":[{"internalType":"address","name":"newOwner","type":"address"}],"name":"transferOwnership","outputs":[],"stateMutability":"nonpayable","type":"function"}],"evm":{"bytecode":{"linkReferences":{},"object":"60806040523480156200001157600080fd5b5033600073ffffffffffffffffffffffffffffffffffffffff168173ffffffffffffffffffffffffffffffffffffffff1603620000885760006040517f1e4fbdf70000000000000000000000000000000000000000000000000000000081526004016200007f9190620001b0565b60405180910390fd5b6200009981620000a760201b60201c565b5060018081905550620001cd565b60008060009054906101000a900473ffffffffffffffffffffffffffffffffffffffff169050816000806101000a81548173ffffffffffffffffffffffffffffffffffffffff021916908373ffffffffffffffffffffffffffffffffffffffff1602179055508173ffffffffffffffffffffffffffffffffffffffff168173ffffffffffffffffffffffffffffffffffffffff167f8be0079c531659141344cd1fd0a4f28419497f9722a3daafe3b4186f6b6457e060405160405180910390a35050565b600073ffffffffffffffffffffffffffffffffffffffff82169050919050565b600062000198826200016b565b9050919050565b620001aa816200018b565b82525050565b6000602082019050620001c760008301846200019f565b92915050565b6118df80620001dd6000396000f3fe608060405234801561001057600080fd5b50600436106100a95760003560e01c8063d5cbe15711610071578063d5cbe15714610159578063de7ac99114610175578063eaa66a3c14610191578063eac8f5b8146101c2578063f2fde38b146101f6578063f742c5b014610212576100a9565b80634138d167146100ae57806343247d03146100df578063715018a6146100fd5780638da5cb5b14610107578063cf35bdd014610125575b600080fd5b6100c860048036038101906100c39190610e54565b61022e565b6040516100d6929190610f13565b60405180910390f35b6100e76102e2565b6040516100f49190610f55565b60405180910390f35b6101056102f7565b005b61010f61030b565b60405161011c9190610f7f565b60405180910390f35b61013f600480360381019061013a9190610fc6565b610334565b604051610150959493929190611083565b60405180910390f35b610173600480360381019061016e9190610e54565b61049a565b005b61018f600480360381019061018a9190611109565b610537565b005b6101ab60048036038101906101a69190610e54565b610638565b6040516101b9929190610f13565b60405180910390f35b6101dc60048036038101906101d79190610fc6565b610676565b6040516101ed959493929190611207565b60405180910390f35b610210600480360381019061020b9190610e54565b610914565b005b61022c600480360381019061022791906112d4565b61099a565b005b600080610239610c99565b600260008473ffffffffffffffffffffffffffffffffffffffff1673ffffffffffffffffffffffffffffffffffffffff16815260200190815260200160002060000160009054906101000a900460ff16600260008573ffffffffffffffffffffffffffffffffffffffff1673ffffffffffffffffffffffffffffffffffffffff16815260200190815260200160002060000160019054906101000a900460ff1691509150915091565b6000600180546102f29190611398565b905090565b6102ff610c99565b6103096000610d20565b565b60008060009054906101000a900473ffffffffffffffffffffffffffffffffffffffff16905090565b600360205280600052604060002060009150905080600001549080600101805461035d906113fb565b80601f0160208091040260200160405190810160405280929190818152602001828054610389906113fb565b80156103d65780601f106103ab576101008083540402835291602001916103d6565b820191906000526020600020905b8154815290600101906020018083116103b957829003601f168201915b5050505050908060020154908060030180546103f1906113fb565b80601f016020809104026020016040519081016040528092919081815260200182805461041d906113fb565b801561046a5780601f1061043f5761010080835404028352916020019161046a565b820191906000526020600020905b81548152906001019060200180831161044d57829003601f168201915b5050505050908060040160009054906101000a900473ffffffffffffffffffffffffffffffffffffffff16905085565b6104a2610c99565b6000600260008373ffffffffffffffffffffffffffffffffffffffff1673ffffffffffffffffffffffffffffffffffffffff16815260200190815260200160002060000160016101000a81548160ff0219169083151502179055507f6104c637b94c6924ba582f11d228cf3203eb42d40b94a3ab64e60006032a93d58160405161052c9190610f7f565b60405180910390a150565b61053f610c99565b604051806040016040528082600381111561055d5761055c610e81565b5b815260200160011515815250600260008473ffffffffffffffffffffffffffffffffffffffff1673ffffffffffffffffffffffffffffffffffffffff16815260200190815260200160002060008201518160000160006101000a81548160ff021916908360038111156105d3576105d2610e81565b5b021790555060208201518160000160016101000a81548160ff0219169083151502179055509050507f9d298435d839e75ea5c40e98fc6aa208cc7c2a9ba6ffb5d9703e179bcf1b248e828260405161062c92919061142c565b60405180910390a15050565b60026020528060005260406000206000915090508060000160009054906101000a900460ff16908060000160019054906101000a900460ff16905082565b6060600060606000606060018610158015610692575060015486105b6106d1576040517f08c379a00000000000000000000000000000000000000000000000000000000081526004016106c8906114c7565b60405180910390fd5b60036000878152602001908152602001600020600101600360008881526020019081526020016000206002015460036000898152602001908152602001600020600301600360008a815260200190815260200160002060040160009054906101000a900473ffffffffffffffffffffffffffffffffffffffff16600360008b815260200190815260200160002060050184805461076d906113fb565b80601f0160208091040260200160405190810160405280929190818152602001828054610799906113fb565b80156107e65780601f106107bb576101008083540402835291602001916107e6565b820191906000526020600020905b8154815290600101906020018083116107c957829003601f168201915b505050505094508280546107f9906113fb565b80601f0160208091040260200160405190810160405280929190818152602001828054610825906113fb565b80156108725780601f1061084757610100808354040283529160200191610872565b820191906000526020600020905b81548152906001019060200180831161085557829003601f168201915b50505050509250808054806020026020016040519081016040528092919081815260200182805480156108fa57602002820191906000526020600020905b8160009054906101000a900473ffffffffffffffffffffffffffffffffffffffff1673ffffffffffffffffffffffffffffffffffffffff16815260200190600101908083116108b0575b505050505090509450945094509450945091939590929450565b61091c610c99565b600073ffffffffffffffffffffffffffffffffffffffff168173ffffffffffffffffffffffffffffffffffffffff160361098e5760006040517f1e4fbdf70000000000000000000000000000000000000000000000000000000081526004016109859190610f7f565b60405180910390fd5b61099781610d20565b50565b600033905060011515600260008373ffffffffffffffffffffffffffffffffffffffff1673ffffffffffffffffffffffffffffffffffffffff16815260200190815260200160002060000160019054906101000a900460ff16151514610a35576040517f08c379a0000000000000000000000000000000000000000000000000000000008152600401610a2c90611533565b60405180910390fd5b60006003811115610a4957610a48610e81565b5b600260008373ffffffffffffffffffffffffffffffffffffffff1673ffffffffffffffffffffffffffffffffffffffff16815260200190815260200160002060000160009054906101000a900460ff166003811115610aab57610aaa610e81565b5b14610aeb576040517f08c379a0000000000000000000000000000000000000000000000000000000008152600401610ae29061159f565b60405180910390fd5b600060015490508060036000838152602001908152602001600020600001819055508686600360008481526020019081526020016000206001019182610b329291906117a5565b508460036000838152602001908152602001600020600201819055508383600360008481526020019081526020016000206003019182610b739291906117a5565b50816003600083815260200190815260200160002060040160006101000a81548173ffffffffffffffffffffffffffffffffffffffff021916908373ffffffffffffffffffffffffffffffffffffffff16021790555060036000828152602001908152602001600020600501829080600181540180825580915050600190039060005260206000200160009091909190916101000a81548173ffffffffffffffffffffffffffffffffffffffff021916908373ffffffffffffffffffffffffffffffffffffffff1602179055506001806000828254610c529190611875565b925050819055507fcc7b4929606ce963ba54b6a998f106f7748e78c03dc7f08fd77aeb28230eb2d381604051610c889190610f55565b60405180910390a150505050505050565b610ca1610de4565b73ffffffffffffffffffffffffffffffffffffffff16610cbf61030b565b73ffffffffffffffffffffffffffffffffffffffff1614610d1e57610ce2610de4565b6040517f118cdaa7000000000000000000000000000000000000000000000000000000008152600401610d159190610f7f565b60405180910390fd5b565b60008060009054906101000a900473ffffffffffffffffffffffffffffffffffffffff169050816000806101000a81548173ffffffffffffffffffffffffffffffffffffffff021916908373ffffffffffffffffffffffffffffffffffffffff1602179055508173ffffffffffffffffffffffffffffffffffffffff168173ffffffffffffffffffffffffffffffffffffffff167f8be0079c531659141344cd1fd0a4f28419497f9722a3daafe3b4186f6b6457e060405160405180910390a35050565b600033905090565b600080fd5b600080fd5b600073ffffffffffffffffffffffffffffffffffffffff82169050919050565b6000610e2182610df6565b9050919050565b610e3181610e16565b8114610e3c57600080fd5b50565b600081359050610e4e81610e28565b92915050565b600060208284031215610e6a57610e69610dec565b5b6000610e7884828501610e3f565b91505092915050565b7f4e487b7100000000000000000000000000000000000000000000000000000000600052602160045260246000fd5b60048110610ec157610ec0610e81565b5b50565b6000819050610ed282610eb0565b919050565b6000610ee282610ec4565b9050919050565b610ef281610ed7565b82525050565b60008115159050919050565b610f0d81610ef8565b82525050565b6000604082019050610f286000830185610ee9565b610f356020830184610f04565b9392505050565b6000819050919050565b610f4f81610f3c565b82525050565b6000602082019050610f6a6000830184610f46565b92915050565b610f7981610e16565b82525050565b6000602082019050610f946000830184610f70565b92915050565b610fa381610f3c565b8114610fae57600080fd5b50565b600081359050610fc081610f9a565b92915050565b600060208284031215610fdc57610fdb610dec565b5b6000610fea84828501610fb1565b91505092915050565b600081519050919050565b600082825260208201905092915050565b60005b8381101561102d578082015181840152602081019050611012565b60008484015250505050565b6000601f19601f8301169050919050565b600061105582610ff3565b61105f8185610ffe565b935061106f81856020860161100f565b61107881611039565b840191505092915050565b600060a0820190506110986000830188610f46565b81810360208301526110aa818761104a565b90506110b96040830186610f46565b81810360608301526110cb818561104a565b90506110da6080830184610f70565b9695505050505050565b600481106110f157600080fd5b50565b600081359050611103816110e4565b92915050565b600080604083850312156111205761111f610dec565b5b600061112e85828601610e3f565b925050602061113f858286016110f4565b9150509250929050565b600081519050919050565b600082825260208201905092915050565b6000819050602082019050919050565b61117e81610e16565b82525050565b60006111908383611175565b60208301905092915050565b6000602082019050919050565b60006111b482611149565b6111be8185611154565b93506111c983611165565b8060005b838110156111fa5781516111e18882611184565b97506111ec8361119c565b9250506001810190506111cd565b5085935050505092915050565b600060a0820190508181036000830152611221818861104a565b90506112306020830187610f46565b8181036040830152611242818661104a565b90506112516060830185610f70565b818103608083015261126381846111a9565b90509695505050505050565b600080fd5b600080fd5b600080fd5b60008083601f8401126112945761129361126f565b5b8235905067ffffffffffffffff8111156112b1576112b0611274565b5b6020830191508360018202830111156112cd576112cc611279565b5b9250929050565b6000806000806000606086880312156112f0576112ef610dec565b5b600086013567ffffffffffffffff81111561130e5761130d610df1565b5b61131a8882890161127e565b9550955050602061132d88828901610fb1565b935050604086013567ffffffffffffffff81111561134e5761134d610df1565b5b61135a8882890161127e565b92509250509295509295909350565b7f4e487b7100000000000000000000000000000000000000000000000000000000600052601160045260246000fd5b60006113a382610f3c565b91506113ae83610f3c565b92508282039050818111156113c6576113c5611369565b5b92915050565b7f4e487b7100000000000000000000000000000000000000000000000000000000600052602260045260246000fd5b6000600282049050600182168061141357607f821691505b602082108103611426576114256113cc565b5b50919050565b60006040820190506114416000830185610f70565b61144e6020830184610ee9565b9392505050565b7f4173736574204944206d7573742062652077697468696e2076616c696420726160008201527f6e67650000000000000000000000000000000000000000000000000000000000602082015250565b60006114b1602383610ffe565b91506114bc82611455565b604082019050919050565b600060208201905081810360008301526114e0816114a4565b9050919050565b7f4163746f72206e6f7420656e61626c6564000000000000000000000000000000600082015250565b600061151d601183610ffe565b9150611528826114e7565b602082019050919050565b6000602082019050818103600083015261154c81611510565b9050919050565b7f4163746f72277320726f6c65206d7573742062652050726f6475636572000000600082015250565b6000611589601d83610ffe565b915061159482611553565b602082019050919050565b600060208201905081810360008301526115b88161157c565b9050919050565b600082905092915050565b7f4e487b7100000000000000000000000000000000000000000000000000000000600052604160045260246000fd5b60008190508160005260206000209050919050565b60006020601f8301049050919050565b600082821b905092915050565b60006008830261165b7fffffffffffffffffffffffffffffffffffffffffffffffffffffffffffffffff8261161e565b611665868361161e565b95508019841693508086168417925050509392505050565b6000819050919050565b60006116a261169d61169884610f3c565b61167d565b610f3c565b9050919050565b6000819050919050565b6116bc83611687565b6116d06116c8826116a9565b84845461162b565b825550505050565b600090565b6116e56116d8565b6116f08184846116b3565b505050565b5b81811015611714576117096000826116dd565b6001810190506116f6565b5050565b601f8211156117595761172a816115f9565b6117338461160e565b81016020851015611742578190505b61175661174e8561160e565b8301826116f5565b50505b505050565b600082821c905092915050565b600061177c6000198460080261175e565b1980831691505092915050565b6000611795838361176b565b9150826002028217905092915050565b6117af83836115bf565b67ffffffffffffffff8111156117c8576117c76115ca565b5b6117d282546113fb565b6117dd828285611718565b6000601f83116001811461180c57600084156117fa578287013590505b6118048582611789565b86555061186c565b601f19841661181a866115f9565b60005b828110156118425784890135825560018201915060208501945060208101905061181d565b8683101561185f578489013561185b601f89168261176b565b8355505b6001600288020188555050505b50505050505050565b600061188082610f3c565b915061188b83610f3c565b92508282019050808211156118a3576118a2611369565b5b9291505056fea2646970667358221220f634454c95c1076d4a7b3ebacb9cc4b598e04ad7000ed510e963c0fc51d8767d64736f6c63430008140033","opcodes":"PUSH1 0x80 PUSH1 0x40 MSTORE CALLVALUE DUP1 ISZERO PUSH3 0x11 JUMPI PUSH1 0x0 DUP1 REVERT JUMPDEST POP CALLER PUSH1 0x0 PUSH20 0xFFFFFFFFFFFFFFFFFFFFFFFFFFFFFFFFFFFFFFFF AND DUP2 PUSH20 0xFFFFFFFFFFFFFFFFFFFFFFFFFFFFFFFFFFFFFFFF AND SUB PUSH3 0x88 JUMPI PUSH1 0x0 PUSH1 0x40 MLOAD PUSH32 0x1E4FBDF700000000000000000000000000000000000000000000000000000000 DUP2 MSTORE PUSH1 0x4 ADD PUSH3 0x7F SWAP2 SWAP1 PUSH3 0x1B0 JUMP JUMPDEST PUSH1 0x40 MLOAD DUP1 SWAP2 SUB SWAP1 REVERT JUMPDEST PUSH3 0x99 DUP2 PUSH3 0xA7 PUSH1 0x20 SHL PUSH1 0x20 SHR JUMP JUMPDEST POP PUSH1 0x1 DUP1 DUP2 SWAP1 SSTORE POP PUSH3 0x1CD JUMP JUMPDEST PUSH1 0x0 DUP1 PUSH1 0x0 SWAP1 SLOAD SWAP1 PUSH2 0x100 EXP SWAP1 DIV PUSH20 0xFFFFFFFFFFFFFFFFFFFFFFFFFFFFFFFFFFFFFFFF AND SWAP1 POP DUP2 PUSH1 0x0 DUP1 PUSH2 0x100 EXP DUP2 SLOAD DUP2 PUSH20 0xFFFFFFFFFFFFFFFFFFFFFFFFFFFFFFFFFFFFFFFF MUL NOT AND SWAP1 DUP4 PUSH20 0xFFFFFFFFFFFFFFFFFFFFFFFFFFFFFFFFFFFFFFFF AND MUL OR SWAP1 SSTORE POP DUP2 PUSH20 0xFFFFFFFFFFFFFFFFFFFFFFFFFFFFFFFFFFFFFFFF AND DUP2 PUSH20 0xFFFFFFFFFFFFFFFFFFFFFFFFFFFFFFFFFFFFFFFF AND PUSH32 0x8BE0079C531659141344CD1FD0A4F28419497F9722A3DAAFE3B4186F6B6457E0 PUSH1 0x40 MLOAD PUSH1 0x40 MLOAD DUP1 SWAP2 SUB SWAP1 LOG3 POP POP JUMP JUMPDEST PUSH1 0x0 PUSH20 0xFFFFFFFFFFFFFFFFFFFFFFFFFFFFFFFFFFFFFFFF DUP3 AND SWAP1 POP SWAP2 SWAP1 POP JUMP JUMPDEST PUSH1 0x0 PUSH3 0x198 DUP3 PUSH3 0x16B JUMP JUMPDEST SWAP1 POP SWAP2 SWAP1 POP JUMP JUMPDEST PUSH3 0x1AA DUP2 PUSH3 0x18B JUMP JUMPDEST DUP3 MSTORE POP POP JUMP JUMPDEST PUSH1 0x0 PUSH1 0x20 DUP3 ADD SWAP1 POP PUSH3 0x1C7 PUSH1 0x0 DUP4 ADD DUP5 PUSH3 0x19F JUMP JUMPDEST SWAP3 SWAP2 POP POP JUMP JUMPDEST PUSH2 0x18DF DUP1 PUSH3 0x1DD PUSH1 0x0 CODECOPY PUSH1 0x0 RETURN INVALID PUSH1 0x80 PUSH1 0x40 MSTORE CALLVALUE DUP1 ISZERO PUSH2 0x10 JUMPI PUSH1 0x0 DUP1 REVERT JUMPDEST POP PUSH1 0x4 CALLDATASIZE LT PUSH2 0xA9 JUMPI PUSH1 0x0 CALLDATALOAD PUSH1 0xE0 SHR DUP1 PUSH4 0xD5CBE157 GT PUSH2 0x71 JUMPI DUP1 PUSH4 0xD5CBE157 EQ PUSH2 0x159 JUMPI DUP1 PUSH4 0xDE7AC991 EQ PUSH2 0x175 JUMPI DUP1 PUSH4 0xEAA66A3C EQ PUSH2 0x191 JUMPI DUP1 PUSH4 0xEAC8F5B8 EQ PUSH2 0x1C2 JUMPI DUP1 PUSH4 0xF2FDE38B EQ PUSH2 0x1F6 JUMPI DUP1 PUSH4 0xF742C5B0 EQ PUSH2 0x212 JUMPI PUSH2 0xA9 JUMP JUMPDEST DUP1 PUSH4 0x4138D167 EQ PUSH2 0xAE JUMPI DUP1 PUSH4 0x43247D03 EQ PUSH2 0xDF JUMPI DUP1 PUSH4 0x715018A6 EQ PUSH2 0xFD JUMPI DUP1 PUSH4 0x8DA5CB5B EQ PUSH2 0x107 JUMPI DUP1 PUSH4 0xCF35BDD0 EQ PUSH2 0x125 JUMPI JUMPDEST PUSH1 0x0 DUP1 REVERT JUMPDEST PUSH2 0xC8 PUSH1 0x4 DUP1 CALLDATASIZE SUB DUP2 ADD SWAP1 PUSH2 0xC3 SWAP2 SWAP1 PUSH2 0xE54 JUMP JUMPDEST PUSH2 0x22E JUMP JUMPDEST PUSH1 0x40 MLOAD PUSH2 0xD6 SWAP3 SWAP2 SWAP1 PUSH2 0xF13 JUMP JUMPDEST PUSH1 0x40 MLOAD DUP1 SWAP2 SUB SWAP1 RETURN JUMPDEST PUSH2 0xE7 PUSH2 0x2E2 JUMP JUMPDEST PUSH1 0x40 MLOAD PUSH2 0xF4 SWAP2 SWAP1 PUSH2 0xF55 JUMP JUMPDEST PUSH1 0x40 MLOAD DUP1 SWAP2 SUB SWAP1 RETURN JUMPDEST PUSH2 0x105 PUSH2 0x2F7 JUMP JUMPDEST STOP JUMPDEST PUSH2 0x10F PUSH2 0x30B JUMP JUMPDEST PUSH1 0x40 MLOAD PUSH2 0x11C SWAP2 SWAP1 PUSH2 0xF7F JUMP JUMPDEST PUSH1 0x40 MLOAD DUP1 SWAP2 SUB SWAP1 RETURN JUMPDEST PUSH2 0x13F PUSH1 0x4 DUP1 CALLDATASIZE SUB DUP2 ADD SWAP1 PUSH2 0x13A SWAP2 SWAP1 PUSH2 0xFC6 JUMP JUMPDEST PUSH2 0x334 JUMP JUMPDEST PUSH1 0x40 MLOAD PUSH2 0x150 SWAP6 SWAP5 SWAP4 SWAP3 SWAP2 SWAP1 PUSH2 0x1083 JUMP JUMPDEST PUSH1 0x40 MLOAD DUP1 SWAP2 SUB SWAP1 RETURN JUMPDEST PUSH2 0x173 PUSH1 0x4 DUP1 CALLDATASIZE SUB DUP2 ADD SWAP1 PUSH2 0x16E SWAP2 SWAP1 PUSH2 0xE54 JUMP JUMPDEST PUSH2 0x49A JUMP JUMPDEST STOP JUMPDEST PUSH2 0x18F PUSH1 0x4 DUP1 CALLDATASIZE SUB DUP2 ADD SWAP1 PUSH2 0x18A SWAP2 SWAP1 PUSH2 0x1109 JUMP JUMPDEST PUSH2 0x537 JUMP JUMPDEST STOP JUMPDEST PUSH2 0x1AB PUSH1 0x4 DUP1 CALLDATASIZE SUB DUP2 ADD SWAP1 PUSH2 0x1A6 SWAP2 SWAP1 PUSH2 0xE54 JUMP JUMPDEST PUSH2 0x638 JUMP JUMPDEST PUSH1 0x40 MLOAD PUSH2 0x1B9 SWAP3 SWAP2 SWAP1 PUSH2 0xF13 JUMP JUMPDEST PUSH1 0x40 MLOAD DUP1 SWAP2 SUB SWAP1 RETURN JUMPDEST PUSH2 0x1DC PUSH1 0x4 DUP1 CALLDATASIZE SUB DUP2 ADD SWAP1 PUSH2 0x1D7 SWAP2 SWAP1 PUSH2 0xFC6 JUMP JUMPDEST PUSH2 0x676 JUMP JUMPDEST PUSH1 0x40 MLOAD PUSH2 0x1ED SWAP6 SWAP5 SWAP4 SWAP3 SWAP2 SWAP1 PUSH2 0x1207 JUMP JUMPDEST PUSH1 0x40 MLOAD DUP1 SWAP2 SUB SWAP1 RETURN JUMPDEST PUSH2 0x210 PUSH1 0x4 DUP1 CALLDATASIZE SUB DUP2 ADD SWAP1 PUSH2 0x20B SWAP2 SWAP1 PUSH2 0xE54 JUMP JUMPDEST PUSH2 0x914 JUMP JUMPDEST STOP JUMPDEST PUSH2 0x22C PUSH1 0x4 DUP1 CALLDATASIZE SUB DUP2 ADD SWAP1 PUSH2 0x227 SWAP2 SWAP1 PUSH2 0x12D4 JUMP JUMPDEST PUSH2 0x99A JUMP JUMPDEST STOP JUMPDEST PUSH1 0x0 DUP1 PUSH2 0x239 PUSH2 0xC99 JUMP JUMPDEST PUSH1 0x2 PUSH1 0x0 DUP5 PUSH20 0xFFFFFFFFFFFFFFFFFFFFFFFFFFFFFFFFFFFFFFFF AND PUSH20 0xFFFFFFFFFFFFFFFFFFFFFFFFFFFFFFFFFFFFFFFF AND DUP2 MSTORE PUSH1 0x20 ADD SWAP1 DUP2 MSTORE PUSH1 0x20 ADD PUSH1 0x0 KECCAK256 PUSH1 0x0 ADD PUSH1 0x0 SWAP1 SLOAD SWAP1 PUSH2 0x100 EXP SWAP1 DIV PUSH1 0xFF AND PUSH1 0x2 PUSH1 0x0 DUP6 PUSH20 0xFFFFFFFFFFFFFFFFFFFFFFFFFFFFFFFFFFFFFFFF AND PUSH20 0xFFFFFFFFFFFFFFFFFFFFFFFFFFFFFFFFFFFFFFFF AND DUP2 MSTORE PUSH1 0x20 ADD SWAP1 DUP2 MSTORE PUSH1 0x20 ADD PUSH1 0x0 KECCAK256 PUSH1 0x0 ADD PUSH1 0x1 SWAP1 SLOAD SWAP1 PUSH2 0x100 EXP SWAP1 DIV PUSH1 0xFF AND SWAP2 POP SWAP2 POP SWAP2 POP SWAP2 JUMP JUMPDEST PUSH1 0x0 PUSH1 0x1 DUP1 SLOAD PUSH2 0x2F2 SWAP2 SWAP1 PUSH2 0x1398 JUMP JUMPDEST SWAP1 POP SWAP1 JUMP JUMPDEST PUSH2 0x2FF PUSH2 0xC99 JUMP JUMPDEST PUSH2 0x309 PUSH1 0x0 PUSH2 0xD20 JUMP JUMPDEST JUMP JUMPDEST PUSH1 0x0 DUP1 PUSH1 0x0 SWAP1 SLOAD SWAP1 PUSH2 0x100 EXP SWAP1 DIV PUSH20 0xFFFFFFFFFFFFFFFFFFFFFFFFFFFFFFFFFFFFFFFF AND SWAP1 POP SWAP1 JUMP JUMPDEST PUSH1 0x3 PUSH1 0x20 MSTORE DUP1 PUSH1 0x0 MSTORE PUSH1 0x40 PUSH1 0x0 KECCAK256 PUSH1 0x0 SWAP2 POP SWAP1 POP DUP1 PUSH1 0x0 ADD SLOAD SWAP1 DUP1 PUSH1 0x1 ADD DUP1 SLOAD PUSH2 0x35D SWAP1 PUSH2 0x13FB JUMP JUMPDEST DUP1 PUSH1 0x1F ADD PUSH1 0x20 DUP1 SWAP2 DIV MUL PUSH1 0x20 ADD PUSH1 0x40 MLOAD SWAP1 DUP2 ADD PUSH1 0x40 MSTORE DUP1 SWAP3 SWAP2 SWAP1 DUP2 DUP2 MSTORE PUSH1 0x20 ADD DUP3 DUP1 SLOAD PUSH2 0x389 SWAP1 PUSH2 0x13FB JUMP JUMPDEST DUP1 ISZERO PUSH2 0x3D6 JUMPI DUP1 PUSH1 0x1F LT PUSH2 0x3AB JUMPI PUSH2 0x100 DUP1 DUP4 SLOAD DIV MUL DUP4 MSTORE SWAP2 PUSH1 0x20 ADD SWAP2 PUSH2 0x3D6 JUMP JUMPDEST DUP3 ADD SWAP2 SWAP1 PUSH1 0x0 MSTORE PUSH1 0x20 PUSH1 0x0 KECCAK256 SWAP1 JUMPDEST DUP2 SLOAD DUP2 MSTORE SWAP1 PUSH1 0x1 ADD SWAP1 PUSH1 0x20 ADD DUP1 DUP4 GT PUSH2 0x3B9 JUMPI DUP3 SWAP1 SUB PUSH1 0x1F AND DUP3 ADD SWAP2 JUMPDEST POP POP POP POP POP SWAP1 DUP1 PUSH1 0x2 ADD SLOAD SWAP1 DUP1 PUSH1 0x3 ADD DUP1 SLOAD PUSH2 0x3F1 SWAP1 PUSH2 0x13FB JUMP JUMPDEST DUP1 PUSH1 0x1F ADD PUSH1 0x20 DUP1 SWAP2 DIV MUL PUSH1 0x20 ADD PUSH1 0x40 MLOAD SWAP1 DUP2 ADD PUSH1 0x40 MSTORE DUP1 SWAP3 SWAP2 SWAP1 DUP2 DUP2 MSTORE PUSH1 0x20 ADD DUP3 DUP1 SLOAD PUSH2 0x41D SWAP1 PUSH2 0x13FB JUMP JUMPDEST DUP1 ISZERO PUSH2 0x46A JUMPI DUP1 PUSH1 0x1F LT PUSH2 0x43F JUMPI PUSH2 0x100 DUP1 DUP4 SLOAD DIV MUL DUP4 MSTORE SWAP2 PUSH1 0x20 ADD SWAP2 PUSH2 0x46A JUMP JUMPDEST DUP3 ADD SWAP2 SWAP1 PUSH1 0x0 MSTORE PUSH1 0x20 PUSH1 0x0 KECCAK256 SWAP1 JUMPDEST DUP2 SLOAD DUP2 MSTORE SWAP1 PUSH1 0x1 ADD SWAP1 PUSH1 0x20 ADD DUP1 DUP4 GT PUSH2 0x44D JUMPI DUP3 SWAP1 SUB PUSH1 0x1F AND DUP3 ADD SWAP2 JUMPDEST POP POP POP POP POP SWAP1 DUP1 PUSH1 0x4 ADD PUSH1 0x0 SWAP1 SLOAD SWAP1 PUSH2 0x100 EXP SWAP1 DIV PUSH20 0xFFFFFFFFFFFFFFFFFFFFFFFFFFFFFFFFFFFFFFFF AND SWAP1 POP DUP6 JUMP JUMPDEST PUSH2 0x4A2 PUSH2 0xC99 JUMP JUMPDEST PUSH1 0x0 PUSH1 0x2 PUSH1 0x0 DUP4 PUSH20 0xFFFFFFFFFFFFFFFFFFFFFFFFFFFFFFFFFFFFFFFF AND PUSH20 0xFFFFFFFFFFFFFFFFFFFFFFFFFFFFFFFFFFFFFFFF AND DUP2 MSTORE PUSH1 0x20 ADD SWAP1 DUP2 MSTORE PUSH1 0x20 ADD PUSH1 0x0 KECCAK256 PUSH1 0x0 ADD PUSH1 0x1 PUSH2 0x100 EXP DUP2 SLOAD DUP2 PUSH1 0xFF MUL NOT AND SWAP1 DUP4 ISZERO ISZERO MUL OR SWAP1 SSTORE POP PUSH32 0x6104C637B94C6924BA582F11D228CF3203EB42D40B94A3AB64E60006032A93D5 DUP2 PUSH1 0x40 MLOAD PUSH2 0x52C SWAP2 SWAP1 PUSH2 0xF7F JUMP JUMPDEST PUSH1 0x40 MLOAD DUP1 SWAP2 SUB SWAP1 LOG1 POP JUMP JUMPDEST PUSH2 0x53F PUSH2 0xC99 JUMP JUMPDEST PUSH1 0x40 MLOAD DUP1 PUSH1 0x40 ADD PUSH1 0x40 MSTORE DUP1 DUP3 PUSH1 0x3 DUP2 GT ISZERO PUSH2 0x55D JUMPI PUSH2 0x55C PUSH2 0xE81 JUMP JUMPDEST JUMPDEST DUP2 MSTORE PUSH1 0x20 ADD PUSH1 0x1 ISZERO ISZERO DUP2 MSTORE POP PUSH1 0x2 PUSH1 0x0 DUP5 PUSH20 0xFFFFFFFFFFFFFFFFFFFFFFFFFFFFFFFFFFFFFFFF AND PUSH20 0xFFFFFFFFFFFFFFFFFFFFFFFFFFFFFFFFFFFFFFFF AND DUP2 MSTORE PUSH1 0x20 ADD SWAP1 DUP2 MSTORE PUSH1 0x20 ADD PUSH1 0x0 KECCAK256 PUSH1 0x0 DUP3 ADD MLOAD DUP2 PUSH1 0x0 ADD PUSH1 0x0 PUSH2 0x100 EXP DUP2 SLOAD DUP2 PUSH1 0xFF MUL NOT AND SWAP1 DUP4 PUSH1 0x3 DUP2 GT ISZERO PUSH2 0x5D3 JUMPI PUSH2 0x5D2 PUSH2 0xE81 JUMP JUMPDEST JUMPDEST MUL OR SWAP1 SSTORE POP PUSH1 0x20 DUP3 ADD MLOAD DUP2 PUSH1 0x0 ADD PUSH1 0x1 PUSH2 0x100 EXP DUP2 SLOAD DUP2 PUSH1 0xFF MUL NOT AND SWAP1 DUP4 ISZERO ISZERO MUL OR SWAP1 SSTORE POP SWAP1 POP POP PUSH32 0x9D298435D839E75EA5C40E98FC6AA208CC7C2A9BA6FFB5D9703E179BCF1B248E DUP3 DUP3 PUSH1 0x40 MLOAD PUSH2 0x62C SWAP3 SWAP2 SWAP1 PUSH2 0x142C JUMP JUMPDEST PUSH1 0x40 MLOAD DUP1 SWAP2 SUB SWAP1 LOG1 POP POP JUMP JUMPDEST PUSH1 0x2 PUSH1 0x20 MSTORE DUP1 PUSH1 0x0 MSTORE PUSH1 0x40 PUSH1 0x0 KECCAK256 PUSH1 0x0 SWAP2 POP SWAP1 POP DUP1 PUSH1 0x0 ADD PUSH1 0x0 SWAP1 SLOAD SWAP1 PUSH2 0x100 EXP SWAP1 DIV PUSH1 0xFF AND SWAP1 DUP1 PUSH1 0x0 ADD PUSH1 0x1 SWAP1 SLOAD SWAP1 PUSH2 0x100 EXP SWAP1 DIV PUSH1 0xFF AND SWAP1 POP DUP3 JUMP JUMPDEST PUSH1 0x60 PUSH1 0x0 PUSH1 0x60 PUSH1 0x0 PUSH1 0x60 PUSH1 0x1 DUP7 LT ISZERO DUP1 ISZERO PUSH2 0x692 JUMPI POP PUSH1 0x1 SLOAD DUP7 LT JUMPDEST PUSH2 0x6D1 JUMPI PUSH1 0x40 MLOAD PUSH32 0x8C379A000000000000000000000000000000000000000000000000000000000 DUP2 MSTORE PUSH1 0x4 ADD PUSH2 0x6C8 SWAP1 PUSH2 0x14C7 JUMP JUMPDEST PUSH1 0x40 MLOAD DUP1 SWAP2 SUB SWAP1 REVERT JUMPDEST PUSH1 0x3 PUSH1 0x0 DUP8 DUP2 MSTORE PUSH1 0x20 ADD SWAP1 DUP2 MSTORE PUSH1 0x20 ADD PUSH1 0x0 KECCAK256 PUSH1 0x1 ADD PUSH1 0x3 PUSH1 0x0 DUP9 DUP2 MSTORE PUSH1 0x20 ADD SWAP1 DUP2 MSTORE PUSH1 0x20 ADD PUSH1 0x0 KECCAK256 PUSH1 0x2 ADD SLOAD PUSH1 0x3 PUSH1 0x0 DUP10 DUP2 MSTORE PUSH1 0x20 ADD SWAP1 DUP2 MSTORE PUSH1 0x20 ADD PUSH1 0x0 KECCAK256 PUSH1 0x3 ADD PUSH1 0x3 PUSH1 0x0 DUP11 DUP2 MSTORE PUSH1 0x20 ADD SWAP1 DUP2 MSTORE PUSH1 0x20 ADD PUSH1 0x0 KECCAK256 PUSH1 0x4 ADD PUSH1 0x0 SWAP1 SLOAD SWAP1 PUSH2 0x100 EXP SWAP1 DIV PUSH20 0xFFFFFFFFFFFFFFFFFFFFFFFFFFFFFFFFFFFFFFFF AND PUSH1 0x3 PUSH1 0x0 DUP12 DUP2 MSTORE PUSH1 0x20 ADD SWAP1 DUP2 MSTORE PUSH1 0x20 ADD PUSH1 0x0 KECCAK256 PUSH1 0x5 ADD DUP5 DUP1 SLOAD PUSH2 0x76D SWAP1 PUSH2 0x13FB JUMP JUMPDEST DUP1 PUSH1 0x1F ADD PUSH1 0x20 DUP1 SWAP2 DIV MUL PUSH1 0x20 ADD PUSH1 0x40 MLOAD SWAP1 DUP2 ADD PUSH1 0x40 MSTORE DUP1 SWAP3 SWAP2 SWAP1 DUP2 DUP2 MSTORE PUSH1 0x20 ADD DUP3 DUP1 SLOAD PUSH2 0x799 SWAP1 PUSH2 0x13FB JUMP JUMPDEST DUP1 ISZERO PUSH2 0x7E6 JUMPI DUP1 PUSH1 0x1F LT PUSH2 0x7BB JUMPI PUSH2 0x100 DUP1 DUP4 SLOAD DIV MUL DUP4 MSTORE SWAP2 PUSH1 0x20 ADD SWAP2 PUSH2 0x7E6 JUMP JUMPDEST DUP3 ADD SWAP2 SWAP1 PUSH1 0x0 MSTORE PUSH1 0x20 PUSH1 0x0 KECCAK256 SWAP1 JUMPDEST DUP2 SLOAD DUP2 MSTORE SWAP1 PUSH1 0x1 ADD SWAP1 PUSH1 0x20 ADD DUP1 DUP4 GT PUSH2 0x7C9 JUMPI DUP3 SWAP1 SUB PUSH1 0x1F AND DUP3 ADD SWAP2 JUMPDEST POP POP POP POP POP SWAP5 POP DUP3 DUP1 SLOAD PUSH2 0x7F9 SWAP1 PUSH2 0x13FB JUMP JUMPDEST DUP1 PUSH1 0x1F ADD PUSH1 0x20 DUP1 SWAP2 DIV MUL PUSH1 0x20 ADD PUSH1 0x40 MLOAD SWAP1 DUP2 ADD PUSH1 0x40 MSTORE DUP1 SWAP3 SWAP2 SWAP1 DUP2 DUP2 MSTORE PUSH1 0x20 ADD DUP3 DUP1 SLOAD PUSH2 0x825 SWAP1 PUSH2 0x13FB JUMP JUMPDEST DUP1 ISZERO PUSH2 0x872 JUMPI DUP1 PUSH1 0x1F LT PUSH2 0x847 JUMPI PUSH2 0x100 DUP1 DUP4 SLOAD DIV MUL DUP4 MSTORE SWAP2 PUSH1 0x20 ADD SWAP2 PUSH2 0x872 JUMP JUMPDEST DUP3 ADD SWAP2 SWAP1 PUSH1 0x0 MSTORE PUSH1 0x20 PUSH1 0x0 KECCAK256 SWAP1 JUMPDEST DUP2 SLOAD DUP2 MSTORE SWAP1 PUSH1 0x1 ADD SWAP1 PUSH1 0x20 ADD DUP1 DUP4 GT PUSH2 0x855 JUMPI DUP3 SWAP1 SUB PUSH1 0x1F AND DUP3 ADD SWAP2 JUMPDEST POP POP POP POP POP SWAP3 POP DUP1 DUP1 SLOAD DUP1 PUSH1 0x20 MUL PUSH1 0x20 ADD PUSH1 0x40 MLOAD SWAP1 DUP2 ADD PUSH1 0x40 MSTORE DUP1 SWAP3 SWAP2 SWAP1 DUP2 DUP2 MSTORE PUSH1 0x20 ADD DUP3 DUP1 SLOAD DUP1 ISZERO PUSH2 0x8FA JUMPI PUSH1 0x20 MUL DUP3 ADD SWAP2 SWAP1 PUSH1 0x0 MSTORE PUSH1 0x20 PUSH1 0x0 KECCAK256 SWAP1 JUMPDEST DUP2 PUSH1 0x0 SWAP1 SLOAD SWAP1 PUSH2 0x100 EXP SWAP1 DIV PUSH20 0xFFFFFFFFFFFFFFFFFFFFFFFFFFFFFFFFFFFFFFFF AND PUSH20 0xFFFFFFFFFFFFFFFFFFFFFFFFFFFFFFFFFFFFFFFF AND DUP2 MSTORE PUSH1 0x20 ADD SWAP1 PUSH1 0x1 ADD SWAP1 DUP1 DUP4 GT PUSH2 0x8B0 JUMPI JUMPDEST POP POP POP POP POP SWAP1 POP SWAP5 POP SWAP5 POP SWAP5 POP SWAP5 POP SWAP5 POP SWAP2 SWAP4 SWAP6 SWAP1 SWAP3 SWAP5 POP JUMP JUMPDEST PUSH2 0x91C PUSH2 0xC99 JUMP JUMPDEST PUSH1 0x0 PUSH20 0xFFFFFFFFFFFFFFFFFFFFFFFFFFFFFFFFFFFFFFFF AND DUP2 PUSH20 0xFFFFFFFFFFFFFFFFFFFFFFFFFFFFFFFFFFFFFFFF AND SUB PUSH2 0x98E JUMPI PUSH1 0x0 PUSH1 0x40 MLOAD PUSH32 0x1E4FBDF700000000000000000000000000000000000000000000000000000000 DUP2 MSTORE PUSH1 0x4 ADD PUSH2 0x985 SWAP2 SWAP1 PUSH2 0xF7F JUMP JUMPDEST PUSH1 0x40 MLOAD DUP1 SWAP2 SUB SWAP1 REVERT JUMPDEST PUSH2 0x997 DUP2 PUSH2 0xD20 JUMP JUMPDEST POP JUMP JUMPDEST PUSH1 0x0 CALLER SWAP1 POP PUSH1 0x1 ISZERO ISZERO PUSH1 0x2 PUSH1 0x0 DUP4 PUSH20 0xFFFFFFFFFFFFFFFFFFFFFFFFFFFFFFFFFFFFFFFF AND PUSH20 0xFFFFFFFFFFFFFFFFFFFFFFFFFFFFFFFFFFFFFFFF AND DUP2 MSTORE PUSH1 0x20 ADD SWAP1 DUP2 MSTORE PUSH1 0x20 ADD PUSH1 0x0 KECCAK256 PUSH1 0x0 ADD PUSH1 0x1 SWAP1 SLOAD SWAP1 PUSH2 0x100 EXP SWAP1 DIV PUSH1 0xFF AND ISZERO ISZERO EQ PUSH2 0xA35 JUMPI PUSH1 0x40 MLOAD PUSH32 0x8C379A000000000000000000000000000000000000000000000000000000000 DUP2 MSTORE PUSH1 0x4 ADD PUSH2 0xA2C SWAP1 PUSH2 0x1533 JUMP JUMPDEST PUSH1 0x40 MLOAD DUP1 SWAP2 SUB SWAP1 REVERT JUMPDEST PUSH1 0x0 PUSH1 0x3 DUP2 GT ISZERO PUSH2 0xA49 JUMPI PUSH2 0xA48 PUSH2 0xE81 JUMP JUMPDEST JUMPDEST PUSH1 0x2 PUSH1 0x0 DUP4 PUSH20 0xFFFFFFFFFFFFFFFFFFFFFFFFFFFFFFFFFFFFFFFF AND PUSH20 0xFFFFFFFFFFFFFFFFFFFFFFFFFFFFFFFFFFFFFFFF AND DUP2 MSTORE PUSH1 0x20 ADD SWAP1 DUP2 MSTORE PUSH1 0x20 ADD PUSH1 0x0 KECCAK256 PUSH1 0x0 ADD PUSH1 0x0 SWAP1 SLOAD SWAP1 PUSH2 0x100 EXP SWAP1 DIV PUSH1 0xFF AND PUSH1 0x3 DUP2 GT ISZERO PUSH2 0xAAB JUMPI PUSH2 0xAAA PUSH2 0xE81 JUMP JUMPDEST JUMPDEST EQ PUSH2 0xAEB JUMPI PUSH1 0x40 MLOAD PUSH32 0x8C379A000000000000000000000000000000000000000000000000000000000 DUP2 MSTORE PUSH1 0x4 ADD PUSH2 0xAE2 SWAP1 PUSH2 0x159F JUMP JUMPDEST PUSH1 0x40 MLOAD DUP1 SWAP2 SUB SWAP1 REVERT JUMPDEST PUSH1 0x0 PUSH1 0x1 SLOAD SWAP1 POP DUP1 PUSH1 0x3 PUSH1 0x0 DUP4 DUP2 MSTORE PUSH1 0x20 ADD SWAP1 DUP2 MSTORE PUSH1 0x20 ADD PUSH1 0x0 KECCAK256 PUSH1 0x0 ADD DUP2 SWAP1 SSTORE POP DUP7 DUP7 PUSH1 0x3 PUSH1 0x0 DUP5 DUP2 MSTORE PUSH1 0x20 ADD SWAP1 DUP2 MSTORE PUSH1 0x20 ADD PUSH1 0x0 KECCAK256 PUSH1 0x1 ADD SWAP2 DUP3 PUSH2 0xB32 SWAP3 SWAP2 SWAP1 PUSH2 0x17A5 JUMP JUMPDEST POP DUP5 PUSH1 0x3 PUSH1 0x0 DUP4 DUP2 MSTORE PUSH1 0x20 ADD SWAP1 DUP2 MSTORE PUSH1 0x20 ADD PUSH1 0x0 KECCAK256 PUSH1 0x2 ADD DUP2 SWAP1 SSTORE POP DUP4 DUP4 PUSH1 0x3 PUSH1 0x0 DUP5 DUP2 MSTORE PUSH1 0x20 ADD SWAP1 DUP2 MSTORE PUSH1 0x20 ADD PUSH1 0x0 KECCAK256 PUSH1 0x3 ADD SWAP2 DUP3 PUSH2 0xB73 SWAP3 SWAP2 SWAP1 PUSH2 0x17A5 JUMP JUMPDEST POP DUP2 PUSH1 0x3 PUSH1 0x0 DUP4 DUP2 MSTORE PUSH1 0x20 ADD SWAP1 DUP2 MSTORE PUSH1 0x20 ADD PUSH1 0x0 KECCAK256 PUSH1 0x4 ADD PUSH1 0x0 PUSH2 0x100 EXP DUP2 SLOAD DUP2 PUSH20 0xFFFFFFFFFFFFFFFFFFFFFFFFFFFFFFFFFFFFFFFF MUL NOT AND SWAP1 DUP4 PUSH20 0xFFFFFFFFFFFFFFFFFFFFFFFFFFFFFFFFFFFFFFFF AND MUL OR SWAP1 SSTORE POP PUSH1 0x3 PUSH1 0x0 DUP3 DUP2 MSTORE PUSH1 0x20 ADD SWAP1 DUP2 MSTORE PUSH1 0x20 ADD PUSH1 0x0 KECCAK256 PUSH1 0x5 ADD DUP3 SWAP1 DUP1 PUSH1 0x1 DUP2 SLOAD ADD DUP1 DUP3 SSTORE DUP1 SWAP2 POP POP PUSH1 0x1 SWAP1 SUB SWAP1 PUSH1 0x0 MSTORE PUSH1 0x20 PUSH1 0x0 KECCAK256 ADD PUSH1 0x0 SWAP1 SWAP2 SWAP1 SWAP2 SWAP1 SWAP2 PUSH2 0x100 EXP DUP2 SLOAD DUP2 PUSH20 0xFFFFFFFFFFFFFFFFFFFFFFFFFFFFFFFFFFFFFFFF MUL NOT AND SWAP1 DUP4 PUSH20 0xFFFFFFFFFFFFFFFFFFFFFFFFFFFFFFFFFFFFFFFF AND MUL OR SWAP1 SSTORE POP PUSH1 0x1 DUP1 PUSH1 0x0 DUP3 DUP3 SLOAD PUSH2 0xC52 SWAP2 SWAP1 PUSH2 0x1875 JUMP JUMPDEST SWAP3 POP POP DUP2 SWAP1 SSTORE POP PUSH32 0xCC7B4929606CE963BA54B6A998F106F7748E78C03DC7F08FD77AEB28230EB2D3 DUP2 PUSH1 0x40 MLOAD PUSH2 0xC88 SWAP2 SWAP1 PUSH2 0xF55 JUMP JUMPDEST PUSH1 0x40 MLOAD DUP1 SWAP2 SUB SWAP1 LOG1 POP POP POP POP POP POP POP JUMP JUMPDEST PUSH2 0xCA1 PUSH2 0xDE4 JUMP JUMPDEST PUSH20 0xFFFFFFFFFFFFFFFFFFFFFFFFFFFFFFFFFFFFFFFF AND PUSH2 0xCBF PUSH2 0x30B JUMP JUMPDEST PUSH20 0xFFFFFFFFFFFFFFFFFFFFFFFFFFFFFFFFFFFFFFFF AND EQ PUSH2 0xD1E JUMPI PUSH2 0xCE2 PUSH2 0xDE4 JUMP JUMPDEST PUSH1 0x40 MLOAD PUSH32 0x118CDAA700000000000000000000000000000000000000000000000000000000 DUP2 MSTORE PUSH1 0x4 ADD PUSH2 0xD15 SWAP2 SWAP1 PUSH2 0xF7F JUMP JUMPDEST PUSH1 0x40 MLOAD DUP1 SWAP2 SUB SWAP1 REVERT JUMPDEST JUMP JUMPDEST PUSH1 0x0 DUP1 PUSH1 0x0 SWAP1 SLOAD SWAP1 PUSH2 0x100 EXP SWAP1 DIV PUSH20 0xFFFFFFFFFFFFFFFFFFFFFFFFFFFFFFFFFFFFFFFF AND SWAP1 POP DUP2 PUSH1 0x0 DUP1 PUSH2 0x100 EXP DUP2 SLOAD DUP2 PUSH20 0xFFFFFFFFFFFFFFFFFFFFFFFFFFFFFFFFFFFFFFFF MUL NOT AND SWAP1 DUP4 PUSH20 0xFFFFFFFFFFFFFFFFFFFFFFFFFFFFFFFFFFFFFFFF AND MUL OR SWAP1 SSTORE POP DUP2 PUSH20 0xFFFFFFFFFFFFFFFFFFFFFFFFFFFFFFFFFFFFFFFF AND DUP2 PUSH20 0xFFFFFFFFFFFFFFFFFFFFFFFFFFFFFFFFFFFFFFFF AND PUSH32 0x8BE0079C531659141344CD1FD0A4F28419497F9722A3DAAFE3B4186F6B6457E0 PUSH1 0x40 MLOAD PUSH1 0x40 MLOAD DUP1 SWAP2 SUB SWAP1 LOG3 POP POP JUMP JUMPDEST PUSH1 0x0 CALLER SWAP1 POP SWAP1 JUMP JUMPDEST PUSH1 0x0 DUP1 REVERT JUMPDEST PUSH1 0x0 DUP1 REVERT JUMPDEST PUSH1 0x0 PUSH20 0xFFFFFFFFFFFFFFFFFFFFFFFFFFFFFFFFFFFFFFFF DUP3 AND SWAP1 POP SWAP2 SWAP1 POP JUMP JUMPDEST PUSH1 0x0 PUSH2 0xE21 DUP3 PUSH2 0xDF6 JUMP JUMPDEST SWAP1 POP SWAP2 SWAP1 POP JUMP JUMPDEST PUSH2 0xE31 DUP2 PUSH2 0xE16 JUMP JUMPDEST DUP2 EQ PUSH2 0xE3C JUMPI PUSH1 0x0 DUP1 REVERT JUMPDEST POP JUMP JUMPDEST PUSH1 0x0 DUP2 CALLDATALOAD SWAP1 POP PUSH2 0xE4E DUP2 PUSH2 0xE28 JUMP JUMPDEST SWAP3 SWAP2 POP POP JUMP JUMPDEST PUSH1 0x0 PUSH1 0x20 DUP3 DUP5 SUB SLT ISZERO PUSH2 0xE6A JUMPI PUSH2 0xE69 PUSH2 0xDEC JUMP JUMPDEST JUMPDEST PUSH1 0x0 PUSH2 0xE78 DUP5 DUP3 DUP6 ADD PUSH2 0xE3F JUMP JUMPDEST SWAP2 POP POP SWAP3 SWAP2 POP POP JUMP JUMPDEST PUSH32 0x4E487B7100000000000000000000000000000000000000000000000000000000 PUSH1 0x0 MSTORE PUSH1 0x21 PUSH1 0x4 MSTORE PUSH1 0x24 PUSH1 0x0 REVERT JUMPDEST PUSH1 0x4 DUP2 LT PUSH2 0xEC1 JUMPI PUSH2 0xEC0 PUSH2 0xE81 JUMP JUMPDEST JUMPDEST POP JUMP JUMPDEST PUSH1 0x0 DUP2 SWAP1 POP PUSH2 0xED2 DUP3 PUSH2 0xEB0 JUMP JUMPDEST SWAP2 SWAP1 POP JUMP JUMPDEST PUSH1 0x0 PUSH2 0xEE2 DUP3 PUSH2 0xEC4 JUMP JUMPDEST SWAP1 POP SWAP2 SWAP1 POP JUMP JUMPDEST PUSH2 0xEF2 DUP2 PUSH2 0xED7 JUMP JUMPDEST DUP3 MSTORE POP POP JUMP JUMPDEST PUSH1 0x0 DUP2 ISZERO ISZERO SWAP1 POP SWAP2 SWAP1 POP JUMP JUMPDEST PUSH2 0xF0D DUP2 PUSH2 0xEF8 JUMP JUMPDEST DUP3 MSTORE POP POP JUMP JUMPDEST PUSH1 0x0 PUSH1 0x40 DUP3 ADD SWAP1 POP PUSH2 0xF28 PUSH1 0x0 DUP4 ADD DUP6 PUSH2 0xEE9 JUMP JUMPDEST PUSH2 0xF35 PUSH1 0x20 DUP4 ADD DUP5 PUSH2 0xF04 JUMP JUMPDEST SWAP4 SWAP3 POP POP POP JUMP JUMPDEST PUSH1 0x0 DUP2 SWAP1 POP SWAP2 SWAP1 POP JUMP JUMPDEST PUSH2 0xF4F DUP2 PUSH2 0xF3C JUMP JUMPDEST DUP3 MSTORE POP POP JUMP JUMPDEST PUSH1 0x0 PUSH1 0x20 DUP3 ADD SWAP1 POP PUSH2 0xF6A PUSH1 0x0 DUP4 ADD DUP5 PUSH2 0xF46 JUMP JUMPDEST SWAP3 SWAP2 POP POP JUMP JUMPDEST PUSH2 0xF79 DUP2 PUSH2 0xE16 JUMP JUMPDEST DUP3 MSTORE POP POP JUMP JUMPDEST PUSH1 0x0 PUSH1 0x20 DUP3 ADD SWAP1 POP PUSH2 0xF94 PUSH1 0x0 DUP4 ADD DUP5 PUSH2 0xF70 JUMP JUMPDEST SWAP3 SWAP2 POP POP JUMP JUMPDEST PUSH2 0xFA3 DUP2 PUSH2 0xF3C JUMP JUMPDEST DUP2 EQ PUSH2 0xFAE JUMPI PUSH1 0x0 DUP1 REVERT JUMPDEST POP JUMP JUMPDEST PUSH1 0x0 DUP2 CALLDATALOAD SWAP1 POP PUSH2 0xFC0 DUP2 PUSH2 0xF9A JUMP JUMPDEST SWAP3 SWAP2 POP POP JUMP JUMPDEST PUSH1 0x0 PUSH1 0x20 DUP3 DUP5 SUB SLT ISZERO PUSH2 0xFDC JUMPI PUSH2 0xFDB PUSH2 0xDEC JUMP JUMPDEST JUMPDEST PUSH1 0x0 PUSH2 0xFEA DUP5 DUP3 DUP6 ADD PUSH2 0xFB1 JUMP JUMPDEST SWAP2 POP POP SWAP3 SWAP2 POP POP JUMP JUMPDEST PUSH1 0x0 DUP2 MLOAD SWAP1 POP SWAP2 SWAP1 POP JUMP JUMPDEST PUSH1 0x0 DUP3 DUP3 MSTORE PUSH1 0x20 DUP3 ADD SWAP1 POP SWAP3 SWAP2 POP POP JUMP JUMPDEST PUSH1 0x0 JUMPDEST DUP4 DUP2 LT ISZERO PUSH2 0x102D JUMPI DUP1 DUP3 ADD MLOAD DUP2 DUP5 ADD MSTORE PUSH1 0x20 DUP2 ADD SWAP1 POP PUSH2 0x1012 JUMP JUMPDEST PUSH1 0x0 DUP5 DUP5 ADD MSTORE POP POP POP POP JUMP JUMPDEST PUSH1 0x0 PUSH1 0x1F NOT PUSH1 0x1F DUP4 ADD AND SWAP1 POP SWAP2 SWAP1 POP JUMP JUMPDEST PUSH1 0x0 PUSH2 0x1055 DUP3 PUSH2 0xFF3 JUMP JUMPDEST PUSH2 0x105F DUP2 DUP6 PUSH2 0xFFE JUMP JUMPDEST SWAP4 POP PUSH2 0x106F DUP2 DUP6 PUSH1 0x20 DUP7 ADD PUSH2 0x100F JUMP JUMPDEST PUSH2 0x1078 DUP2 PUSH2 0x1039 JUMP JUMPDEST DUP5 ADD SWAP2 POP POP SWAP3 SWAP2 POP POP JUMP JUMPDEST PUSH1 0x0 PUSH1 0xA0 DUP3 ADD SWAP1 POP PUSH2 0x1098 PUSH1 0x0 DUP4 ADD DUP9 PUSH2 0xF46 JUMP JUMPDEST DUP2 DUP2 SUB PUSH1 0x20 DUP4 ADD MSTORE PUSH2 0x10AA DUP2 DUP8 PUSH2 0x104A JUMP JUMPDEST SWAP1 POP PUSH2 0x10B9 PUSH1 0x40 DUP4 ADD DUP7 PUSH2 0xF46 JUMP JUMPDEST DUP2 DUP2 SUB PUSH1 0x60 DUP4 ADD MSTORE PUSH2 0x10CB DUP2 DUP6 PUSH2 0x104A JUMP JUMPDEST SWAP1 POP PUSH2 0x10DA PUSH1 0x80 DUP4 ADD DUP5 PUSH2 0xF70 JUMP JUMPDEST SWAP7 SWAP6 POP POP POP POP POP POP JUMP JUMPDEST PUSH1 0x4 DUP2 LT PUSH2 0x10F1 JUMPI PUSH1 0x0 DUP1 REVERT JUMPDEST POP JUMP JUMPDEST PUSH1 0x0 DUP2 CALLDATALOAD SWAP1 POP PUSH2 0x1103 DUP2 PUSH2 0x10E4 JUMP JUMPDEST SWAP3 SWAP2 POP POP JUMP JUMPDEST PUSH1 0x0 DUP1 PUSH1 0x40 DUP4 DUP6 SUB SLT ISZERO PUSH2 0x1120 JUMPI PUSH2 0x111F PUSH2 0xDEC JUMP JUMPDEST JUMPDEST PUSH1 0x0 PUSH2 0x112E DUP6 DUP3 DUP7 ADD PUSH2 0xE3F JUMP JUMPDEST SWAP3 POP POP PUSH1 0x20 PUSH2 0x113F DUP6 DUP3 DUP7 ADD PUSH2 0x10F4 JUMP JUMPDEST SWAP2 POP POP SWAP3 POP SWAP3 SWAP1 POP JUMP JUMPDEST PUSH1 0x0 DUP2 MLOAD SWAP1 POP SWAP2 SWAP1 POP JUMP JUMPDEST PUSH1 0x0 DUP3 DUP3 MSTORE PUSH1 0x20 DUP3 ADD SWAP1 POP SWAP3 SWAP2 POP POP JUMP JUMPDEST PUSH1 0x0 DUP2 SWAP1 POP PUSH1 0x20 DUP3 ADD SWAP1 POP SWAP2 SWAP1 POP JUMP JUMPDEST PUSH2 0x117E DUP2 PUSH2 0xE16 JUMP JUMPDEST DUP3 MSTORE POP POP JUMP JUMPDEST PUSH1 0x0 PUSH2 0x1190 DUP4 DUP4 PUSH2 0x1175 JUMP JUMPDEST PUSH1 0x20 DUP4 ADD SWAP1 POP SWAP3 SWAP2 POP POP JUMP JUMPDEST PUSH1 0x0 PUSH1 0x20 DUP3 ADD SWAP1 POP SWAP2 SWAP1 POP JUMP JUMPDEST PUSH1 0x0 PUSH2 0x11B4 DUP3 PUSH2 0x1149 JUMP JUMPDEST PUSH2 0x11BE DUP2 DUP6 PUSH2 0x1154 JUMP JUMPDEST SWAP4 POP PUSH2 0x11C9 DUP4 PUSH2 0x1165 JUMP JUMPDEST DUP1 PUSH1 0x0 JUMPDEST DUP4 DUP2 LT ISZERO PUSH2 0x11FA JUMPI DUP2 MLOAD PUSH2 0x11E1 DUP9 DUP3 PUSH2 0x1184 JUMP JUMPDEST SWAP8 POP PUSH2 0x11EC DUP4 PUSH2 0x119C JUMP JUMPDEST SWAP3 POP POP PUSH1 0x1 DUP2 ADD SWAP1 POP PUSH2 0x11CD JUMP JUMPDEST POP DUP6 SWAP4 POP POP POP POP SWAP3 SWAP2 POP POP JUMP JUMPDEST PUSH1 0x0 PUSH1 0xA0 DUP3 ADD SWAP1 POP DUP2 DUP2 SUB PUSH1 0x0 DUP4 ADD MSTORE PUSH2 0x1221 DUP2 DUP9 PUSH2 0x104A JUMP JUMPDEST SWAP1 POP PUSH2 0x1230 PUSH1 0x20 DUP4 ADD DUP8 PUSH2 0xF46 JUMP JUMPDEST DUP2 DUP2 SUB PUSH1 0x40 DUP4 ADD MSTORE PUSH2 0x1242 DUP2 DUP7 PUSH2 0x104A JUMP JUMPDEST SWAP1 POP PUSH2 0x1251 PUSH1 0x60 DUP4 ADD DUP6 PUSH2 0xF70 JUMP JUMPDEST DUP2 DUP2 SUB PUSH1 0x80 DUP4 ADD MSTORE PUSH2 0x1263 DUP2 DUP5 PUSH2 0x11A9 JUMP JUMPDEST SWAP1 POP SWAP7 SWAP6 POP POP POP POP POP POP JUMP JUMPDEST PUSH1 0x0 DUP1 REVERT JUMPDEST PUSH1 0x0 DUP1 REVERT JUMPDEST PUSH1 0x0 DUP1 REVERT JUMPDEST PUSH1 0x0 DUP1 DUP4 PUSH1 0x1F DUP5 ADD SLT PUSH2 0x1294 JUMPI PUSH2 0x1293 PUSH2 0x126F JUMP JUMPDEST JUMPDEST DUP3 CALLDATALOAD SWAP1 POP PUSH8 0xFFFFFFFFFFFFFFFF DUP2 GT ISZERO PUSH2 0x12B1 JUMPI PUSH2 0x12B0 PUSH2 0x1274 JUMP JUMPDEST JUMPDEST PUSH1 0x20 DUP4 ADD SWAP2 POP DUP4 PUSH1 0x1 DUP3 MUL DUP4 ADD GT ISZERO PUSH2 0x12CD JUMPI PUSH2 0x12CC PUSH2 0x1279 JUMP JUMPDEST JUMPDEST SWAP3 POP SWAP3 SWAP1 POP JUMP JUMPDEST PUSH1 0x0 DUP1 PUSH1 0x0 DUP1 PUSH1 0x0 PUSH1 0x60 DUP7 DUP9 SUB SLT ISZERO PUSH2 0x12F0 JUMPI PUSH2 0x12EF PUSH2 0xDEC JUMP JUMPDEST JUMPDEST PUSH1 0x0 DUP7 ADD CALLDATALOAD PUSH8 0xFFFFFFFFFFFFFFFF DUP2 GT ISZERO PUSH2 0x130E JUMPI PUSH2 0x130D PUSH2 0xDF1 JUMP JUMPDEST JUMPDEST PUSH2 0x131A DUP9 DUP3 DUP10 ADD PUSH2 0x127E JUMP JUMPDEST SWAP6 POP SWAP6 POP POP PUSH1 0x20 PUSH2 0x132D DUP9 DUP3 DUP10 ADD PUSH2 0xFB1 JUMP JUMPDEST SWAP4 POP POP PUSH1 0x40 DUP7 ADD CALLDATALOAD PUSH8 0xFFFFFFFFFFFFFFFF DUP2 GT ISZERO PUSH2 0x134E JUMPI PUSH2 0x134D PUSH2 0xDF1 JUMP JUMPDEST JUMPDEST PUSH2 0x135A DUP9 DUP3 DUP10 ADD PUSH2 0x127E JUMP JUMPDEST SWAP3 POP SWAP3 POP POP SWAP3 SWAP6 POP SWAP3 SWAP6 SWAP1 SWAP4 POP JUMP JUMPDEST PUSH32 0x4E487B7100000000000000000000000000000000000000000000000000000000 PUSH1 0x0 MSTORE PUSH1 0x11 PUSH1 0x4 MSTORE PUSH1 0x24 PUSH1 0x0 REVERT JUMPDEST PUSH1 0x0 PUSH2 0x13A3 DUP3 PUSH2 0xF3C JUMP JUMPDEST SWAP2 POP PUSH2 0x13AE DUP4 PUSH2 0xF3C JUMP JUMPDEST SWAP3 POP DUP3 DUP3 SUB SWAP1 POP DUP2 DUP2 GT ISZERO PUSH2 0x13C6 JUMPI PUSH2 0x13C5 PUSH2 0x1369 JUMP JUMPDEST JUMPDEST SWAP3 SWAP2 POP POP JUMP JUMPDEST PUSH32 0x4E487B7100000000000000000000000000000000000000000000000000000000 PUSH1 0x0 MSTORE PUSH1 0x22 PUSH1 0x4 MSTORE PUSH1 0x24 PUSH1 0x0 REVERT JUMPDEST PUSH1 0x0 PUSH1 0x2 DUP3 DIV SWAP1 POP PUSH1 0x1 DUP3 AND DUP1 PUSH2 0x1413 JUMPI PUSH1 0x7F DUP3 AND SWAP2 POP JUMPDEST PUSH1 0x20 DUP3 LT DUP2 SUB PUSH2 0x1426 JUMPI PUSH2 0x1425 PUSH2 0x13CC JUMP JUMPDEST JUMPDEST POP SWAP2 SWAP1 POP JUMP JUMPDEST PUSH1 0x0 PUSH1 0x40 DUP3 ADD SWAP1 POP PUSH2 0x1441 PUSH1 0x0 DUP4 ADD DUP6 PUSH2 0xF70 JUMP JUMPDEST PUSH2 0x144E PUSH1 0x20 DUP4 ADD DUP5 PUSH2 0xEE9 JUMP JUMPDEST SWAP4 SWAP3 POP POP POP JUMP JUMPDEST PUSH32 0x4173736574204944206D7573742062652077697468696E2076616C6964207261 PUSH1 0x0 DUP3 ADD MSTORE PUSH32 0x6E67650000000000000000000000000000000000000000000000000000000000 PUSH1 0x20 DUP3 ADD MSTORE POP JUMP JUMPDEST PUSH1 0x0 PUSH2 0x14B1 PUSH1 0x23 DUP4 PUSH2 0xFFE JUMP JUMPDEST SWAP2 POP PUSH2 0x14BC DUP3 PUSH2 0x1455 JUMP JUMPDEST PUSH1 0x40 DUP3 ADD SWAP1 POP SWAP2 SWAP1 POP JUMP JUMPDEST PUSH1 0x0 PUSH1 0x20 DUP3 ADD SWAP1 POP DUP2 DUP2 SUB PUSH1 0x0 DUP4 ADD MSTORE PUSH2 0x14E0 DUP2 PUSH2 0x14A4 JUMP JUMPDEST SWAP1 POP SWAP2 SWAP1 POP JUMP JUMPDEST PUSH32 0x4163746F72206E6F7420656E61626C6564000000000000000000000000000000 PUSH1 0x0 DUP3 ADD MSTORE POP JUMP JUMPDEST PUSH1 0x0 PUSH2 0x151D PUSH1 0x11 DUP4 PUSH2 0xFFE JUMP JUMPDEST SWAP2 POP PUSH2 0x1528 DUP3 PUSH2 0x14E7 JUMP JUMPDEST PUSH1 0x20 DUP3 ADD SWAP1 POP SWAP2 SWAP1 POP JUMP JUMPDEST PUSH1 0x0 PUSH1 0x20 DUP3 ADD SWAP1 POP DUP2 DUP2 SUB PUSH1 0x0 DUP4 ADD MSTORE PUSH2 0x154C DUP2 PUSH2 0x1510 JUMP JUMPDEST SWAP1 POP SWAP2 SWAP1 POP JUMP JUMPDEST PUSH32 0x4163746F72277320726F6C65206D7573742062652050726F6475636572000000 PUSH1 0x0 DUP3 ADD MSTORE POP JUMP JUMPDEST PUSH1 0x0 PUSH2 0x1589 PUSH1 0x1D DUP4 PUSH2 0xFFE JUMP JUMPDEST SWAP2 POP PUSH2 0x1594 DUP3 PUSH2 0x1553 JUMP JUMPDEST PUSH1 0x20 DUP3 ADD SWAP1 POP SWAP2 SWAP1 POP JUMP JUMPDEST PUSH1 0x0 PUSH1 0x20 DUP3 ADD SWAP1 POP DUP2 DUP2 SUB PUSH1 0x0 DUP4 ADD MSTORE PUSH2 0x15B8 DUP2 PUSH2 0x157C JUMP JUMPDEST SWAP1 POP SWAP2 SWAP1 POP JUMP JUMPDEST PUSH1 0x0 DUP3 SWAP1 POP SWAP3 SWAP2 POP POP JUMP JUMPDEST PUSH32 0x4E487B7100000000000000000000000000000000000000000000000000000000 PUSH1 0x0 MSTORE PUSH1 0x41 PUSH1 0x4 MSTORE PUSH1 0x24 PUSH1 0x0 REVERT JUMPDEST PUSH1 0x0 DUP2 SWAP1 POP DUP2 PUSH1 0x0 MSTORE PUSH1 0x20 PUSH1 0x0 KECCAK256 SWAP1 POP SWAP2 SWAP1 POP JUMP JUMPDEST PUSH1 0x0 PUSH1 0x20 PUSH1 0x1F DUP4 ADD DIV SWAP1 POP SWAP2 SWAP1 POP JUMP JUMPDEST PUSH1 0x0 DUP3 DUP3 SHL SWAP1 POP SWAP3 SWAP2 POP POP JUMP JUMPDEST PUSH1 0x0 PUSH1 0x8 DUP4 MUL PUSH2 0x165B PUSH32 0xFFFFFFFFFFFFFFFFFFFFFFFFFFFFFFFFFFFFFFFFFFFFFFFFFFFFFFFFFFFFFFFF DUP3 PUSH2 0x161E JUMP JUMPDEST PUSH2 0x1665 DUP7 DUP4 PUSH2 0x161E JUMP JUMPDEST SWAP6 POP DUP1 NOT DUP5 AND SWAP4 POP DUP1 DUP7 AND DUP5 OR SWAP3 POP POP POP SWAP4 SWAP3 POP POP POP JUMP JUMPDEST PUSH1 0x0 DUP2 SWAP1 POP SWAP2 SWAP1 POP JUMP JUMPDEST PUSH1 0x0 PUSH2 0x16A2 PUSH2 0x169D PUSH2 0x1698 DUP5 PUSH2 0xF3C JUMP JUMPDEST PUSH2 0x167D JUMP JUMPDEST PUSH2 0xF3C JUMP JUMPDEST SWAP1 POP SWAP2 SWAP1 POP JUMP JUMPDEST PUSH1 0x0 DUP2 SWAP1 POP SWAP2 SWAP1 POP JUMP JUMPDEST PUSH2 0x16BC DUP4 PUSH2 0x1687 JUMP JUMPDEST PUSH2 0x16D0 PUSH2 0x16C8 DUP3 PUSH2 0x16A9 JUMP JUMPDEST DUP5 DUP5 SLOAD PUSH2 0x162B JUMP JUMPDEST DUP3 SSTORE POP POP POP POP JUMP JUMPDEST PUSH1 0x0 SWAP1 JUMP JUMPDEST PUSH2 0x16E5 PUSH2 0x16D8 JUMP JUMPDEST PUSH2 0x16F0 DUP2 DUP5 DUP5 PUSH2 0x16B3 JUMP JUMPDEST POP POP POP JUMP JUMPDEST JUMPDEST DUP2 DUP2 LT ISZERO PUSH2 0x1714 JUMPI PUSH2 0x1709 PUSH1 0x0 DUP3 PUSH2 0x16DD JUMP JUMPDEST PUSH1 0x1 DUP2 ADD SWAP1 POP PUSH2 0x16F6 JUMP JUMPDEST POP POP JUMP JUMPDEST PUSH1 0x1F DUP3 GT ISZERO PUSH2 0x1759 JUMPI PUSH2 0x172A DUP2 PUSH2 0x15F9 JUMP JUMPDEST PUSH2 0x1733 DUP5 PUSH2 0x160E JUMP JUMPDEST DUP2 ADD PUSH1 0x20 DUP6 LT ISZERO PUSH2 0x1742 JUMPI DUP2 SWAP1 POP JUMPDEST PUSH2 0x1756 PUSH2 0x174E DUP6 PUSH2 0x160E JUMP JUMPDEST DUP4 ADD DUP3 PUSH2 0x16F5 JUMP JUMPDEST POP POP JUMPDEST POP POP POP JUMP JUMPDEST PUSH1 0x0 DUP3 DUP3 SHR SWAP1 POP SWAP3 SWAP2 POP POP JUMP JUMPDEST PUSH1 0x0 PUSH2 0x177C PUSH1 0x0 NOT DUP5 PUSH1 0x8 MUL PUSH2 0x175E JUMP JUMPDEST NOT DUP1 DUP4 AND SWAP2 POP POP SWAP3 SWAP2 POP POP JUMP JUMPDEST PUSH1 0x0 PUSH2 0x1795 DUP4 DUP4 PUSH2 0x176B JUMP JUMPDEST SWAP2 POP DUP3 PUSH1 0x2 MUL DUP3 OR SWAP1 POP SWAP3 SWAP2 POP POP JUMP JUMPDEST PUSH2 0x17AF DUP4 DUP4 PUSH2 0x15BF JUMP JUMPDEST PUSH8 0xFFFFFFFFFFFFFFFF DUP2 GT ISZERO PUSH2 0x17C8 JUMPI PUSH2 0x17C7 PUSH2 0x15CA JUMP JUMPDEST JUMPDEST PUSH2 0x17D2 DUP3 SLOAD PUSH2 0x13FB JUMP JUMPDEST PUSH2 0x17DD DUP3 DUP3 DUP6 PUSH2 0x1718 JUMP JUMPDEST PUSH1 0x0 PUSH1 0x1F DUP4 GT PUSH1 0x1 DUP2 EQ PUSH2 0x180C JUMPI PUSH1 0x0 DUP5 ISZERO PUSH2 0x17FA JUMPI DUP3 DUP8 ADD CALLDATALOAD SWAP1 POP JUMPDEST PUSH2 0x1804 DUP6 DUP3 PUSH2 0x1789 JUMP JUMPDEST DUP7 SSTORE POP PUSH2 0x186C JUMP JUMPDEST PUSH1 0x1F NOT DUP5 AND PUSH2 0x181A DUP7 PUSH2 0x15F9 JUMP JUMPDEST PUSH1 0x0 JUMPDEST DUP3 DUP2 LT ISZERO PUSH2 0x1842 JUMPI DUP5 DUP10 ADD CALLDATALOAD DUP3 SSTORE PUSH1 0x1 DUP3 ADD SWAP2 POP PUSH1 0x20 DUP6 ADD SWAP5 POP PUSH1 0x20 DUP2 ADD SWAP1 POP PUSH2 0x181D JUMP JUMPDEST DUP7 DUP4 LT ISZERO PUSH2 0x185F JUMPI DUP5 DUP10 ADD CALLDATALOAD PUSH2 0x185B PUSH1 0x1F DUP10 AND DUP3 PUSH2 0x176B JUMP JUMPDEST DUP4 SSTORE POP JUMPDEST PUSH1 0x1 PUSH1 0x2 DUP9 MUL ADD DUP9 SSTORE POP POP POP JUMPDEST POP POP POP POP POP POP POP JUMP JUMPDEST PUSH1 0x0 PUSH2 0x1880 DUP3 PUSH2 0xF3C JUMP JUMPDEST SWAP2 POP PUSH2 0x188B DUP4 PUSH2 0xF3C JUMP JUMPDEST SWAP3 POP DUP3 DUP3 ADD SWAP1 POP DUP1 DUP3 GT ISZERO PUSH2 0x18A3 JUMPI PUSH2 0x18A2 PUSH2 0x1369 JUMP JUMPDEST JUMPDEST SWAP3 SWAP2 POP POP JUMP INVALID LOG2 PUSH5 0x6970667358 0x22 SLT KECCAK256 0xF6 CALLVALUE GASLIMIT 0x4C SWAP6 0xC1 SMOD PUSH14 0x4A7B3EBACB9CC4B598E04AD7000E 0xD5 LT 0xE9 PUSH4 0xC0FC51D8 PUSH23 0x7D64736F6C634300081400330000000000000000000000 "},"methodIdentifiers":{"actors(address)":"eaa66a3c","assets(uint256)":"cf35bdd0","disableActor(address)":"d5cbe157","getActor(address)":"4138d167","getAsset(uint256)":"eac8f5b8","getTotalAssetNumber()":"43247d03","owner()":"8da5cb5b","registerActor(address,uint8)":"de7ac991","registerAsset(string,uint256,string)":"f742c5b0","renounceOwnership()":"715018a6","transferOwnership(address)":"f2fde38b"}}}}}