{"contracts/SupplyChainTracking.sol":{"SupplyChainTracking":{"abi":[{"inputs":[],"stateMutability":"nonpayable","type":"constructor"},{"inputs":[{"internalType":"address","name":"owner","type":"address"}],"name":"OwnableInvalidOwner","type":"error"},{"inputs":[{"internalType":"address","name":"account","type":"address"}],"name":"OwnableUnauthorizedAccount","type":"error"},{"anonymous":false,"inputs":[{"indexed":false,"internalType":"address","name":"actor","type":"address"}],"name":"ActorDisabled","type":"event"},{"anonymous":false,"inputs":[{"indexed":false,"internalType":"address","name":"actor","type":"address"},{"indexed":false,"internalType":"enum SupplyChainTracking.Role","name":"role","type":"uint8"}],"name":"ActorRegistered","type":"event"},{"anonymous":false,"inputs":[{"indexed":true,"internalType":"address","name":"previousOwner","type":"address"},{"indexed":true,"internalType":"address","name":"newOwner","type":"address"}],"name":"OwnershipTransferred","type":"event"},{"inputs":[{"internalType":"address","name":"","type":"address"}],"name":"actors","outputs":[{"internalType":"enum SupplyChainTracking.Role","name":"role","type":"uint8"},{"internalType":"bool","name":"active","type":"bool"}],"stateMutability":"view","type":"function"},{"inputs":[{"internalType":"address","name":"_actor","type":"address"}],"name":"disableActor","outputs":[],"stateMutability":"nonpayable","type":"function"},{"inputs":[{"internalType":"address","name":"_actor","type":"address"}],"name":"getActor","outputs":[{"internalType":"enum SupplyChainTracking.Role","name":"","type":"uint8"},{"internalType":"bool","name":"","type":"bool"}],"stateMutability":"view","type":"function"},{"inputs":[],"name":"owner","outputs":[{"internalType":"address","name":"","type":"address"}],"stateMutability":"view","type":"function"},{"inputs":[{"internalType":"address","name":"_actor","type":"address"},{"internalType":"enum SupplyChainTracking.Role","name":"_role","type":"uint8"}],"name":"registerActor","outputs":[],"stateMutability":"nonpayable","type":"function"},{"inputs":[],"name":"renounceOwnership","outputs":[],"stateMutability":"nonpayable","type":"function"},{"inputs":[{"internalType":"address","name":"newOwner","type":"address"}],"name":"transferOwnership","outputs":[],"stateMutability":"nonpayable","type":"function"}],"evm":{"bytecode":{"linkReferences":{},"object":"608060405234801561001057600080fd5b5033600073ffffffffffffffffffffffffffffffffffffffff168173ffffffffffffffffffffffffffffffffffffffff16036100845760006040517f1e4fbdf700000000000000000000000000000000000000000000000000000000815260040161007b919061019e565b60405180910390fd5b6100938161009960201b60201c565b506101b9565b60008060009054906101000a900473ffffffffffffffffffffffffffffffffffffffff169050816000806101000a81548173ffffffffffffffffffffffffffffffffffffffff021916908373ffffffffffffffffffffffffffffffffffffffff1602179055508173ffffffffffffffffffffffffffffffffffffffff168173ffffffffffffffffffffffffffffffffffffffff167f8be0079c531659141344cd1fd0a4f28419497f9722a3daafe3b4186f6b6457e060405160405180910390a35050565b600073ffffffffffffffffffffffffffffffffffffffff82169050919050565b60006101888261015d565b9050919050565b6101988161017d565b82525050565b60006020820190506101b3600083018461018f565b92915050565b61083f806101c86000396000f3fe608060405234801561001057600080fd5b506004361061007d5760003560e01c8063d5cbe1571161005b578063d5cbe157146100db578063de7ac991146100f7578063eaa66a3c14610113578063f2fde38b146101445761007d565b80634138d16714610082578063715018a6146100b35780638da5cb5b146100bd575b600080fd5b61009c60048036038101906100979190610669565b610160565b6040516100aa929190610728565b60405180910390f35b6100bb610214565b005b6100c5610228565b6040516100d29190610760565b60405180910390f35b6100f560048036038101906100f09190610669565b610251565b005b610111600480360381019061010c91906107a0565b6102ee565b005b61012d60048036038101906101289190610669565b6103ef565b60405161013b929190610728565b60405180910390f35b61015e60048036038101906101599190610669565b61042d565b005b60008061016b6104b3565b600260008473ffffffffffffffffffffffffffffffffffffffff1673ffffffffffffffffffffffffffffffffffffffff16815260200190815260200160002060000160009054906101000a900460ff16600260008573ffffffffffffffffffffffffffffffffffffffff1673ffffffffffffffffffffffffffffffffffffffff16815260200190815260200160002060000160019054906101000a900460ff1691509150915091565b61021c6104b3565b610226600061053a565b565b60008060009054906101000a900473ffffffffffffffffffffffffffffffffffffffff16905090565b6102596104b3565b6000600260008373ffffffffffffffffffffffffffffffffffffffff1673ffffffffffffffffffffffffffffffffffffffff16815260200190815260200160002060000160016101000a81548160ff0219169083151502179055507f6104c637b94c6924ba582f11d228cf3203eb42d40b94a3ab64e60006032a93d5816040516102e39190610760565b60405180910390a150565b6102f66104b3565b604051806040016040528082600381111561031457610313610696565b5b815260200160011515815250600260008473ffffffffffffffffffffffffffffffffffffffff1673ffffffffffffffffffffffffffffffffffffffff16815260200190815260200160002060008201518160000160006101000a81548160ff0219169083600381111561038a57610389610696565b5b021790555060208201518160000160016101000a81548160ff0219169083151502179055509050507f9d298435d839e75ea5c40e98fc6aa208cc7c2a9ba6ffb5d9703e179bcf1b248e82826040516103e39291906107e0565b60405180910390a15050565b60026020528060005260406000206000915090508060000160009054906101000a900460ff16908060000160019054906101000a900460ff16905082565b6104356104b3565b600073ffffffffffffffffffffffffffffffffffffffff168173ffffffffffffffffffffffffffffffffffffffff16036104a75760006040517f1e4fbdf700000000000000000000000000000000000000000000000000000000815260040161049e9190610760565b60405180910390fd5b6104b08161053a565b50565b6104bb6105fe565b73ffffffffffffffffffffffffffffffffffffffff166104d9610228565b73ffffffffffffffffffffffffffffffffffffffff1614610538576104fc6105fe565b6040517f118cdaa700000000000000000000000000000000000000000000000000000000815260040161052f9190610760565b60405180910390fd5b565b60008060009054906101000a900473ffffffffffffffffffffffffffffffffffffffff169050816000806101000a81548173ffffffffffffffffffffffffffffffffffffffff021916908373ffffffffffffffffffffffffffffffffffffffff1602179055508173ffffffffffffffffffffffffffffffffffffffff168173ffffffffffffffffffffffffffffffffffffffff167f8be0079c531659141344cd1fd0a4f28419497f9722a3daafe3b4186f6b6457e060405160405180910390a35050565b600033905090565b600080fd5b600073ffffffffffffffffffffffffffffffffffffffff82169050919050565b60006106368261060b565b9050919050565b6106468161062b565b811461065157600080fd5b50565b6000813590506106638161063d565b92915050565b60006020828403121561067f5761067e610606565b5b600061068d84828501610654565b91505092915050565b7f4e487b7100000000000000000000000000000000000000000000000000000000600052602160045260246000fd5b600481106106d6576106d5610696565b5b50565b60008190506106e7826106c5565b919050565b60006106f7826106d9565b9050919050565b610707816106ec565b82525050565b60008115159050919050565b6107228161070d565b82525050565b600060408201905061073d60008301856106fe565b61074a6020830184610719565b9392505050565b61075a8161062b565b82525050565b60006020820190506107756000830184610751565b92915050565b6004811061078857600080fd5b50565b60008135905061079a8161077b565b92915050565b600080604083850312156107b7576107b6610606565b5b60006107c585828601610654565b92505060206107d68582860161078b565b9150509250929050565b60006040820190506107f56000830185610751565b61080260208301846106fe565b939250505056fea264697066735822122014873bb6700f88a0286c0d3c8ed5df697947a387f6718df12061f7cc80d1156b64736f6c63430008140033","opcodes":"PUSH1 0x80 PUSH1 0x40 MSTORE CALLVALUE DUP1 ISZERO PUSH2 0x10 JUMPI PUSH1 0x0 DUP1 REVERT JUMPDEST POP CALLER PUSH1 0x0 PUSH20 0xFFFFFFFFFFFFFFFFFFFFFFFFFFFFFFFFFFFFFFFF AND DUP2 PUSH20 0xFFFFFFFFFFFFFFFFFFFFFFFFFFFFFFFFFFFFFFFF AND SUB PUSH2 0x84 JUMPI PUSH1 0x0 PUSH1 0x40 MLOAD PUSH32 0x1E4FBDF700000000000000000000000000000000000000000000000000000000 DUP2 MSTORE PUSH1 0x4 ADD PUSH2 0x7B SWAP2 SWAP1 PUSH2 0x19E JUMP JUMPDEST PUSH1 0x40 MLOAD DUP1 SWAP2 SUB SWAP1 REVERT JUMPDEST PUSH2 0x93 DUP2 PUSH2 0x99 PUSH1 0x20 SHL PUSH1 0x20 SHR JUMP JUMPDEST POP PUSH2 0x1B9 JUMP JUMPDEST PUSH1 0x0 DUP1 PUSH1 0x0 SWAP1 SLOAD SWAP1 PUSH2 0x100 EXP SWAP1 DIV PUSH20 0xFFFFFFFFFFFFFFFFFFFFFFFFFFFFFFFFFFFFFFFF AND SWAP1 POP DUP2 PUSH1 0x0 DUP1 PUSH2 0x100 EXP DUP2 SLOAD DUP2 PUSH20 0xFFFFFFFFFFFFFFFFFFFFFFFFFFFFFFFFFFFFFFFF MUL NOT AND SWAP1 DUP4 PUSH20 0xFFFFFFFFFFFFFFFFFFFFFFFFFFFFFFFFFFFFFFFF AND MUL OR SWAP1 SSTORE POP DUP2 PUSH20 0xFFFFFFFFFFFFFFFFFFFFFFFFFFFFFFFFFFFFFFFF AND DUP2 PUSH20 0xFFFFFFFFFFFFFFFFFFFFFFFFFFFFFFFFFFFFFFFF AND PUSH32 0x8BE0079C531659141344CD1FD0A4F28419497F9722A3DAAFE3B4186F6B6457E0 PUSH1 0x40 MLOAD PUSH1 0x40 MLOAD DUP1 SWAP2 SUB SWAP1 LOG3 POP POP JUMP JUMPDEST PUSH1 0x0 PUSH20 0xFFFFFFFFFFFFFFFFFFFFFFFFFFFFFFFFFFFFFFFF DUP3 AND SWAP1 POP SWAP2 SWAP1 POP JUMP JUMPDEST PUSH1 0x0 PUSH2 0x188 DUP3 PUSH2 0x15D JUMP JUMPDEST SWAP1 POP SWAP2 SWAP1 POP JUMP JUMPDEST PUSH2 0x198 DUP2 PUSH2 0x17D JUMP JUMPDEST DUP3 MSTORE POP POP JUMP JUMPDEST PUSH1 0x0 PUSH1 0x20 DUP3 ADD SWAP1 POP PUSH2 0x1B3 PUSH1 0x0 DUP4 ADD DUP5 PUSH2 0x18F JUMP JUMPDEST SWAP3 SWAP2 POP POP JUMP JUMPDEST PUSH2 0x83F DUP1 PUSH2 0x1C8 PUSH1 0x0 CODECOPY PUSH1 0x0 RETURN INVALID PUSH1 0x80 PUSH1 0x40 MSTORE CALLVALUE DUP1 ISZERO PUSH2 0x10 JUMPI PUSH1 0x0 DUP1 REVERT JUMPDEST POP PUSH1 0x4 CALLDATASIZE LT PUSH2 0x7D JUMPI PUSH1 0x0 CALLDATALOAD PUSH1 0xE0 SHR DUP1 PUSH4 0xD5CBE157 GT PUSH2 0x5B JUMPI DUP1 PUSH4 0xD5CBE157 EQ PUSH2 0xDB JUMPI DUP1 PUSH4 0xDE7AC991 EQ PUSH2 0xF7 JUMPI DUP1 PUSH4 0xEAA66A3C EQ PUSH2 0x113 JUMPI DUP1 PUSH4 0xF2FDE38B EQ PUSH2 0x144 JUMPI PUSH2 0x7D JUMP JUMPDEST DUP1 PUSH4 0x4138D167 EQ PUSH2 0x82 JUMPI DUP1 PUSH4 0x715018A6 EQ PUSH2 0xB3 JUMPI DUP1 PUSH4 0x8DA5CB5B EQ PUSH2 0xBD JUMPI JUMPDEST PUSH1 0x0 DUP1 REVERT JUMPDEST PUSH2 0x9C PUSH1 0x4 DUP1 CALLDATASIZE SUB DUP2 ADD SWAP1 PUSH2 0x97 SWAP2 SWAP1 PUSH2 0x669 JUMP JUMPDEST PUSH2 0x160 JUMP JUMPDEST PUSH1 0x40 MLOAD PUSH2 0xAA SWAP3 SWAP2 SWAP1 PUSH2 0x728 JUMP JUMPDEST PUSH1 0x40 MLOAD DUP1 SWAP2 SUB SWAP1 RETURN JUMPDEST PUSH2 0xBB PUSH2 0x214 JUMP JUMPDEST STOP JUMPDEST PUSH2 0xC5 PUSH2 0x228 JUMP JUMPDEST PUSH1 0x40 MLOAD PUSH2 0xD2 SWAP2 SWAP1 PUSH2 0x760 JUMP JUMPDEST PUSH1 0x40 MLOAD DUP1 SWAP2 SUB SWAP1 RETURN JUMPDEST PUSH2 0xF5 PUSH1 0x4 DUP1 CALLDATASIZE SUB DUP2 ADD SWAP1 PUSH2 0xF0 SWAP2 SWAP1 PUSH2 0x669 JUMP JUMPDEST PUSH2 0x251 JUMP JUMPDEST STOP JUMPDEST PUSH2 0x111 PUSH1 0x4 DUP1 CALLDATASIZE SUB DUP2 ADD SWAP1 PUSH2 0x10C SWAP2 SWAP1 PUSH2 0x7A0 JUMP JUMPDEST PUSH2 0x2EE JUMP JUMPDEST STOP JUMPDEST PUSH2 0x12D PUSH1 0x4 DUP1 CALLDATASIZE SUB DUP2 ADD SWAP1 PUSH2 0x128 SWAP2 SWAP1 PUSH2 0x669 JUMP JUMPDEST PUSH2 0x3EF JUMP JUMPDEST PUSH1 0x40 MLOAD PUSH2 0x13B SWAP3 SWAP2 SWAP1 PUSH2 0x728 JUMP JUMPDEST PUSH1 0x40 MLOAD DUP1 SWAP2 SUB SWAP1 RETURN JUMPDEST PUSH2 0x15E PUSH1 0x4 DUP1 CALLDATASIZE SUB DUP2 ADD SWAP1 PUSH2 0x159 SWAP2 SWAP1 PUSH2 0x669 JUMP JUMPDEST PUSH2 0x42D JUMP JUMPDEST STOP JUMPDEST PUSH1 0x0 DUP1 PUSH2 0x16B PUSH2 0x4B3 JUMP JUMPDEST PUSH1 0x2 PUSH1 0x0 DUP5 PUSH20 0xFFFFFFFFFFFFFFFFFFFFFFFFFFFFFFFFFFFFFFFF AND PUSH20 0xFFFFFFFFFFFFFFFFFFFFFFFFFFFFFFFFFFFFFFFF AND DUP2 MSTORE PUSH1 0x20 ADD SWAP1 DUP2 MSTORE PUSH1 0x20 ADD PUSH1 0x0 KECCAK256 PUSH1 0x0 ADD PUSH1 0x0 SWAP1 SLOAD SWAP1 PUSH2 0x100 EXP SWAP1 DIV PUSH1 0xFF AND PUSH1 0x2 PUSH1 0x0 DUP6 PUSH20 0xFFFFFFFFFFFFFFFFFFFFFFFFFFFFFFFFFFFFFFFF AND PUSH20 0xFFFFFFFFFFFFFFFFFFFFFFFFFFFFFFFFFFFFFFFF AND DUP2 MSTORE PUSH1 0x20 ADD SWAP1 DUP2 MSTORE PUSH1 0x20 ADD PUSH1 0x0 KECCAK256 PUSH1 0x0 ADD PUSH1 0x1 SWAP1 SLOAD SWAP1 PUSH2 0x100 EXP SWAP1 DIV PUSH1 0xFF AND SWAP2 POP SWAP2 POP SWAP2 POP SWAP2 JUMP JUMPDEST PUSH2 0x21C PUSH2 0x4B3 JUMP JUMPDEST PUSH2 0x226 PUSH1 0x0 PUSH2 0x53A JUMP JUMPDEST JUMP JUMPDEST PUSH1 0x0 DUP1 PUSH1 0x0 SWAP1 SLOAD SWAP1 PUSH2 0x100 EXP SWAP1 DIV PUSH20 0xFFFFFFFFFFFFFFFFFFFFFFFFFFFFFFFFFFFFFFFF AND SWAP1 POP SWAP1 JUMP JUMPDEST PUSH2 0x259 PUSH2 0x4B3 JUMP JUMPDEST PUSH1 0x0 PUSH1 0x2 PUSH1 0x0 DUP4 PUSH20 0xFFFFFFFFFFFFFFFFFFFFFFFFFFFFFFFFFFFFFFFF AND PUSH20 0xFFFFFFFFFFFFFFFFFFFFFFFFFFFFFFFFFFFFFFFF AND DUP2 MSTORE PUSH1 0x20 ADD SWAP1 DUP2 MSTORE PUSH1 0x20 ADD PUSH1 0x0 KECCAK256 PUSH1 0x0 ADD PUSH1 0x1 PUSH2 0x100 EXP DUP2 SLOAD DUP2 PUSH1 0xFF MUL NOT AND SWAP1 DUP4 ISZERO ISZERO MUL OR SWAP1 SSTORE POP PUSH32 0x6104C637B94C6924BA582F11D228CF3203EB42D40B94A3AB64E60006032A93D5 DUP2 PUSH1 0x40 MLOAD PUSH2 0x2E3 SWAP2 SWAP1 PUSH2 0x760 JUMP JUMPDEST PUSH1 0x40 MLOAD DUP1 SWAP2 SUB SWAP1 LOG1 POP JUMP JUMPDEST PUSH2 0x2F6 PUSH2 0x4B3 JUMP JUMPDEST PUSH1 0x40 MLOAD DUP1 PUSH1 0x40 ADD PUSH1 0x40 MSTORE DUP1 DUP3 PUSH1 0x3 DUP2 GT ISZERO PUSH2 0x314 JUMPI PUSH2 0x313 PUSH2 0x696 JUMP JUMPDEST JUMPDEST DUP2 MSTORE PUSH1 0x20 ADD PUSH1 0x1 ISZERO ISZERO DUP2 MSTORE POP PUSH1 0x2 PUSH1 0x0 DUP5 PUSH20 0xFFFFFFFFFFFFFFFFFFFFFFFFFFFFFFFFFFFFFFFF AND PUSH20 0xFFFFFFFFFFFFFFFFFFFFFFFFFFFFFFFFFFFFFFFF AND DUP2 MSTORE PUSH1 0x20 ADD SWAP1 DUP2 MSTORE PUSH1 0x20 ADD PUSH1 0x0 KECCAK256 PUSH1 0x0 DUP3 ADD MLOAD DUP2 PUSH1 0x0 ADD PUSH1 0x0 PUSH2 0x100 EXP DUP2 SLOAD DUP2 PUSH1 0xFF MUL NOT AND SWAP1 DUP4 PUSH1 0x3 DUP2 GT ISZERO PUSH2 0x38A JUMPI PUSH2 0x389 PUSH2 0x696 JUMP JUMPDEST JUMPDEST MUL OR SWAP1 SSTORE POP PUSH1 0x20 DUP3 ADD MLOAD DUP2 PUSH1 0x0 ADD PUSH1 0x1 PUSH2 0x100 EXP DUP2 SLOAD DUP2 PUSH1 0xFF MUL NOT AND SWAP1 DUP4 ISZERO ISZERO MUL OR SWAP1 SSTORE POP SWAP1 POP POP PUSH32 0x9D298435D839E75EA5C40E98FC6AA208CC7C2A9BA6FFB5D9703E179BCF1B248E DUP3 DUP3 PUSH1 0x40 MLOAD PUSH2 0x3E3 SWAP3 SWAP2 SWAP1 PUSH2 0x7E0 JUMP JUMPDEST PUSH1 0x40 MLOAD DUP1 SWAP2 SUB SWAP1 LOG1 POP POP JUMP JUMPDEST PUSH1 0x2 PUSH1 0x20 MSTORE DUP1 PUSH1 0x0 MSTORE PUSH1 0x40 PUSH1 0x0 KECCAK256 PUSH1 0x0 SWAP2 POP SWAP1 POP DUP1 PUSH1 0x0 ADD PUSH1 0x0 SWAP1 SLOAD SWAP1 PUSH2 0x100 EXP SWAP1 DIV PUSH1 0xFF AND SWAP1 DUP1 PUSH1 0x0 ADD PUSH1 0x1 SWAP1 SLOAD SWAP1 PUSH2 0x100 EXP SWAP1 DIV PUSH1 0xFF AND SWAP1 POP DUP3 JUMP JUMPDEST PUSH2 0x435 PUSH2 0x4B3 JUMP JUMPDEST PUSH1 0x0 PUSH20 0xFFFFFFFFFFFFFFFFFFFFFFFFFFFFFFFFFFFFFFFF AND DUP2 PUSH20 0xFFFFFFFFFFFFFFFFFFFFFFFFFFFFFFFFFFFFFFFF AND SUB PUSH2 0x4A7 JUMPI PUSH1 0x0 PUSH1 0x40 MLOAD PUSH32 0x1E4FBDF700000000000000000000000000000000000000000000000000000000 DUP2 MSTORE PUSH1 0x4 ADD PUSH2 0x49E SWAP2 SWAP1 PUSH2 0x760 JUMP JUMPDEST PUSH1 0x40 MLOAD DUP1 SWAP2 SUB SWAP1 REVERT JUMPDEST PUSH2 0x4B0 DUP2 PUSH2 0x53A JUMP JUMPDEST POP JUMP JUMPDEST PUSH2 0x4BB PUSH2 0x5FE JUMP JUMPDEST PUSH20 0xFFFFFFFFFFFFFFFFFFFFFFFFFFFFFFFFFFFFFFFF AND PUSH2 0x4D9 PUSH2 0x228 JUMP JUMPDEST PUSH20 0xFFFFFFFFFFFFFFFFFFFFFFFFFFFFFFFFFFFFFFFF AND EQ PUSH2 0x538 JUMPI PUSH2 0x4FC PUSH2 0x5FE JUMP JUMPDEST PUSH1 0x40 MLOAD PUSH32 0x118CDAA700000000000000000000000000000000000000000000000000000000 DUP2 MSTORE PUSH1 0x4 ADD PUSH2 0x52F SWAP2 SWAP1 PUSH2 0x760 JUMP JUMPDEST PUSH1 0x40 MLOAD DUP1 SWAP2 SUB SWAP1 REVERT JUMPDEST JUMP JUMPDEST PUSH1 0x0 DUP1 PUSH1 0x0 SWAP1 SLOAD SWAP1 PUSH2 0x100 EXP SWAP1 DIV PUSH20 0xFFFFFFFFFFFFFFFFFFFFFFFFFFFFFFFFFFFFFFFF AND SWAP1 POP DUP2 PUSH1 0x0 DUP1 PUSH2 0x100 EXP DUP2 SLOAD DUP2 PUSH20 0xFFFFFFFFFFFFFFFFFFFFFFFFFFFFFFFFFFFFFFFF MUL NOT AND SWAP1 DUP4 PUSH20 0xFFFFFFFFFFFFFFFFFFFFFFFFFFFFFFFFFFFFFFFF AND MUL OR SWAP1 SSTORE POP DUP2 PUSH20 0xFFFFFFFFFFFFFFFFFFFFFFFFFFFFFFFFFFFFFFFF AND DUP2 PUSH20 0xFFFFFFFFFFFFFFFFFFFFFFFFFFFFFFFFFFFFFFFF AND PUSH32 0x8BE0079C531659141344CD1FD0A4F28419497F9722A3DAAFE3B4186F6B6457E0 PUSH1 0x40 MLOAD PUSH1 0x40 MLOAD DUP1 SWAP2 SUB SWAP1 LOG3 POP POP JUMP JUMPDEST PUSH1 0x0 CALLER SWAP1 POP SWAP1 JUMP JUMPDEST PUSH1 0x0 DUP1 REVERT JUMPDEST PUSH1 0x0 PUSH20 0xFFFFFFFFFFFFFFFFFFFFFFFFFFFFFFFFFFFFFFFF DUP3 AND SWAP1 POP SWAP2 SWAP1 POP JUMP JUMPDEST PUSH1 0x0 PUSH2 0x636 DUP3 PUSH2 0x60B JUMP JUMPDEST SWAP1 POP SWAP2 SWAP1 POP JUMP JUMPDEST PUSH2 0x646 DUP2 PUSH2 0x62B JUMP JUMPDEST DUP2 EQ PUSH2 0x651 JUMPI PUSH1 0x0 DUP1 REVERT JUMPDEST POP JUMP JUMPDEST PUSH1 0x0 DUP2 CALLDATALOAD SWAP1 POP PUSH2 0x663 DUP2 PUSH2 0x63D JUMP JUMPDEST SWAP3 SWAP2 POP POP JUMP JUMPDEST PUSH1 0x0 PUSH1 0x20 DUP3 DUP5 SUB SLT ISZERO PUSH2 0x67F JUMPI PUSH2 0x67E PUSH2 0x606 JUMP JUMPDEST JUMPDEST PUSH1 0x0 PUSH2 0x68D DUP5 DUP3 DUP6 ADD PUSH2 0x654 JUMP JUMPDEST SWAP2 POP POP SWAP3 SWAP2 POP POP JUMP JUMPDEST PUSH32 0x4E487B7100000000000000000000000000000000000000000000000000000000 PUSH1 0x0 MSTORE PUSH1 0x21 PUSH1 0x4 MSTORE PUSH1 0x24 PUSH1 0x0 REVERT JUMPDEST PUSH1 0x4 DUP2 LT PUSH2 0x6D6 JUMPI PUSH2 0x6D5 PUSH2 0x696 JUMP JUMPDEST JUMPDEST POP JUMP JUMPDEST PUSH1 0x0 DUP2 SWAP1 POP PUSH2 0x6E7 DUP3 PUSH2 0x6C5 JUMP JUMPDEST SWAP2 SWAP1 POP JUMP JUMPDEST PUSH1 0x0 PUSH2 0x6F7 DUP3 PUSH2 0x6D9 JUMP JUMPDEST SWAP1 POP SWAP2 SWAP1 POP JUMP JUMPDEST PUSH2 0x707 DUP2 PUSH2 0x6EC JUMP JUMPDEST DUP3 MSTORE POP POP JUMP JUMPDEST PUSH1 0x0 DUP2 ISZERO ISZERO SWAP1 POP SWAP2 SWAP1 POP JUMP JUMPDEST PUSH2 0x722 DUP2 PUSH2 0x70D JUMP JUMPDEST DUP3 MSTORE POP POP JUMP JUMPDEST PUSH1 0x0 PUSH1 0x40 DUP3 ADD SWAP1 POP PUSH2 0x73D PUSH1 0x0 DUP4 ADD DUP6 PUSH2 0x6FE JUMP JUMPDEST PUSH2 0x74A PUSH1 0x20 DUP4 ADD DUP5 PUSH2 0x719 JUMP JUMPDEST SWAP4 SWAP3 POP POP POP JUMP JUMPDEST PUSH2 0x75A DUP2 PUSH2 0x62B JUMP JUMPDEST DUP3 MSTORE POP POP JUMP JUMPDEST PUSH1 0x0 PUSH1 0x20 DUP3 ADD SWAP1 POP PUSH2 0x775 PUSH1 0x0 DUP4 ADD DUP5 PUSH2 0x751 JUMP JUMPDEST SWAP3 SWAP2 POP POP JUMP JUMPDEST PUSH1 0x4 DUP2 LT PUSH2 0x788 JUMPI PUSH1 0x0 DUP1 REVERT JUMPDEST POP JUMP JUMPDEST PUSH1 0x0 DUP2 CALLDATALOAD SWAP1 POP PUSH2 0x79A DUP2 PUSH2 0x77B JUMP JUMPDEST SWAP3 SWAP2 POP POP JUMP JUMPDEST PUSH1 0x0 DUP1 PUSH1 0x40 DUP4 DUP6 SUB SLT ISZERO PUSH2 0x7B7 JUMPI PUSH2 0x7B6 PUSH2 0x606 JUMP JUMPDEST JUMPDEST PUSH1 0x0 PUSH2 0x7C5 DUP6 DUP3 DUP7 ADD PUSH2 0x654 JUMP JUMPDEST SWAP3 POP POP PUSH1 0x20 PUSH2 0x7D6 DUP6 DUP3 DUP7 ADD PUSH2 0x78B JUMP JUMPDEST SWAP2 POP POP SWAP3 POP SWAP3 SWAP1 POP JUMP JUMPDEST PUSH1 0x0 PUSH1 0x40 DUP3 ADD SWAP1 POP PUSH2 0x7F5 PUSH1 0x0 DUP4 ADD DUP6 PUSH2 0x751 JUMP JUMPDEST PUSH2 0x802 PUSH1 0x20 DUP4 ADD DUP5 PUSH2 0x6FE JUMP JUMPDEST SWAP4 SWAP3 POP POP POP JUMP INVALID LOG2 PUSH5 0x6970667358 0x22 SLT KECCAK256 EQ DUP8 EXTCODESIZE 0xB6 PUSH17 0xF88A0286C0D3C8ED5DF697947A387F671 DUP14 CALL KECCAK256 PUSH2 0xF7CC DUP1 0xD1 ISZERO PUSH12 0x64736F6C6343000814003300 "},"methodIdentifiers":{"actors(address)":"eaa66a3c","disableActor(address)":"d5cbe157","getActor(address)":"4138d167","owner()":"8da5cb5b","registerActor(address,uint8)":"de7ac991","renounceOwnership()":"715018a6","transferOwnership(address)":"f2fde38b"}}}}}