{
  "_format": "hh-sol-artifact-1",
  "contractName": "SupplyChainTracking",
  "sourceName": "contracts/SupplyChainTracking.sol",
  "abi": [
    {
      "inputs": [],
      "stateMutability": "nonpayable",
      "type": "constructor"
    },
    {
      "inputs": [],
      "name": "OnlyAssetOwner",
      "type": "error"
    },
    {
      "inputs": [
        {
          "internalType": "address",
          "name": "owner",
          "type": "address"
        }
      ],
      "name": "OwnableInvalidOwner",
      "type": "error"
    },
    {
      "inputs": [
        {
          "internalType": "address",
          "name": "account",
          "type": "address"
        }
      ],
      "name": "OwnableUnauthorizedAccount",
      "type": "error"
    },
    {
      "anonymous": false,
      "inputs": [
        {
          "indexed": false,
          "internalType": "address",
          "name": "actor",
          "type": "address"
        }
      ],
      "name": "ActorDisabled",
      "type": "event"
    },
    {
      "anonymous": false,
      "inputs": [
        {
          "indexed": false,
          "internalType": "address",
          "name": "actor",
          "type": "address"
        },
        {
          "indexed": false,
          "internalType": "enum SupplyChainTracking.Role",
          "name": "role",
          "type": "uint8"
        }
      ],
      "name": "ActorRegistered",
      "type": "event"
    },
    {
      "anonymous": false,
      "inputs": [
        {
          "indexed": false,
          "internalType": "uint256",
          "name": "productId",
          "type": "uint256"
        }
      ],
      "name": "AssetRegistered",
      "type": "event"
    },
    {
      "anonymous": false,
      "inputs": [
        {
          "indexed": false,
          "internalType": "uint256",
          "name": "productId",
          "type": "uint256"
        },
        {
          "indexed": false,
          "internalType": "address",
          "name": "_from",
          "type": "address"
        },
        {
          "indexed": false,
          "internalType": "address",
          "name": "_to",
          "type": "address"
        }
      ],
      "name": "AssetTransfered",
      "type": "event"
    },
    {
      "anonymous": false,
      "inputs": [
        {
          "indexed": true,
          "internalType": "address",
          "name": "previousOwner",
          "type": "address"
        },
        {
          "indexed": true,
          "internalType": "address",
          "name": "newOwner",
          "type": "address"
        }
      ],
      "name": "OwnershipTransferred",
      "type": "event"
    },
    {
      "inputs": [
        {
          "internalType": "address",
          "name": "",
          "type": "address"
        }
      ],
      "name": "actors",
      "outputs": [
        {
          "internalType": "enum SupplyChainTracking.Role",
          "name": "role",
          "type": "uint8"
        },
        {
          "internalType": "bool",
          "name": "active",
          "type": "bool"
        }
      ],
      "stateMutability": "view",
      "type": "function"
    },
    {
      "inputs": [
        {
          "internalType": "uint256",
          "name": "",
          "type": "uint256"
        }
      ],
      "name": "assets",
      "outputs": [
        {
          "internalType": "uint256",
          "name": "productId",
          "type": "uint256"
        },
        {
          "internalType": "string",
          "name": "productType",
          "type": "string"
        },
        {
          "internalType": "uint256",
          "name": "productionDate",
          "type": "uint256"
        },
        {
          "internalType": "string",
          "name": "origin",
          "type": "string"
        },
        {
          "internalType": "address",
          "name": "currentHolder",
          "type": "address"
        }
      ],
      "stateMutability": "view",
      "type": "function"
    },
    {
      "inputs": [
        {
          "internalType": "address",
          "name": "_actor",
          "type": "address"
        }
      ],
      "name": "disableActor",
      "outputs": [],
      "stateMutability": "nonpayable",
      "type": "function"
    },
    {
      "inputs": [
        {
          "internalType": "address",
          "name": "_actor",
          "type": "address"
        }
      ],
      "name": "getActor",
      "outputs": [
        {
          "internalType": "enum SupplyChainTracking.Role",
          "name": "",
          "type": "uint8"
        },
        {
          "internalType": "bool",
          "name": "",
          "type": "bool"
        }
      ],
      "stateMutability": "view",
      "type": "function"
    },
    {
      "inputs": [
        {
          "internalType": "uint256",
          "name": "_assetId",
          "type": "uint256"
        }
      ],
      "name": "getAsset",
      "outputs": [
        {
          "internalType": "string",
          "name": "",
          "type": "string"
        },
        {
          "internalType": "uint256",
          "name": "",
          "type": "uint256"
        },
        {
          "internalType": "string",
          "name": "",
          "type": "string"
        },
        {
          "internalType": "address",
          "name": "",
          "type": "address"
        },
        {
          "internalType": "address[]",
          "name": "",
          "type": "address[]"
        }
      ],
      "stateMutability": "view",
      "type": "function"
    },
    {
      "inputs": [
        {
          "internalType": "uint256",
          "name": "_assetId",
          "type": "uint256"
        }
      ],
      "name": "getAssetCurrentHolder",
      "outputs": [
        {
          "internalType": "address",
          "name": "",
          "type": "address"
        }
      ],
      "stateMutability": "view",
      "type": "function"
    },
    {
      "inputs": [
        {
          "internalType": "uint256",
          "name": "_assetId",
          "type": "uint256"
        }
      ],
      "name": "getAssetHolderHistory",
      "outputs": [
        {
          "internalType": "address[]",
          "name": "",
          "type": "address[]"
        }
      ],
      "stateMutability": "view",
      "type": "function"
    },
    {
      "inputs": [],
      "name": "getTotalAssetNumber",
      "outputs": [
        {
          "internalType": "uint256",
          "name": "",
          "type": "uint256"
        }
      ],
      "stateMutability": "view",
      "type": "function"
    },
    {
      "inputs": [],
      "name": "owner",
      "outputs": [
        {
          "internalType": "address",
          "name": "",
          "type": "address"
        }
      ],
      "stateMutability": "view",
      "type": "function"
    },
    {
      "inputs": [
        {
          "internalType": "address",
          "name": "_actor",
          "type": "address"
        },
        {
          "internalType": "enum SupplyChainTracking.Role",
          "name": "_role",
          "type": "uint8"
        }
      ],
      "name": "registerActor",
      "outputs": [],
      "stateMutability": "nonpayable",
      "type": "function"
    },
    {
      "inputs": [
        {
          "internalType": "string",
          "name": "_productType",
          "type": "string"
        },
        {
          "internalType": "uint256",
          "name": "_productionDate",
          "type": "uint256"
        },
        {
          "internalType": "string",
          "name": "_origin",
          "type": "string"
        }
      ],
      "name": "registerAsset",
      "outputs": [],
      "stateMutability": "nonpayable",
      "type": "function"
    },
    {
      "inputs": [],
      "name": "renounceOwnership",
      "outputs": [],
      "stateMutability": "nonpayable",
      "type": "function"
    },
    {
      "inputs": [
        {
          "internalType": "uint256",
          "name": "_assetId",
          "type": "uint256"
        },
        {
          "internalType": "address",
          "name": "_newHolder",
          "type": "address"
        }
      ],
      "name": "transferAsset",
      "outputs": [],
      "stateMutability": "nonpayable",
      "type": "function"
    },
    {
      "inputs": [
        {
          "internalType": "address",
          "name": "newOwner",
          "type": "address"
        }
      ],
      "name": "transferOwnership",
      "outputs": [],
      "stateMutability": "nonpayable",
      "type": "function"
    }
  ],
  "bytecode": "0x60806040523480156200001157600080fd5b5033600073ffffffffffffffffffffffffffffffffffffffff168173ffffffffffffffffffffffffffffffffffffffff1603620000885760006040517f1e4fbdf70000000000000000000000000000000000000000000000000000000081526004016200007f9190620001b0565b60405180910390fd5b6200009981620000a760201b60201c565b5060018081905550620001cd565b60008060009054906101000a900473ffffffffffffffffffffffffffffffffffffffff169050816000806101000a81548173ffffffffffffffffffffffffffffffffffffffff021916908373ffffffffffffffffffffffffffffffffffffffff1602179055508173ffffffffffffffffffffffffffffffffffffffff168173ffffffffffffffffffffffffffffffffffffffff167f8be0079c531659141344cd1fd0a4f28419497f9722a3daafe3b4186f6b6457e060405160405180910390a35050565b600073ffffffffffffffffffffffffffffffffffffffff82169050919050565b600062000198826200016b565b9050919050565b620001aa816200018b565b82525050565b6000602082019050620001c760008301846200019f565b92915050565b6121a180620001dd6000396000f3fe608060405234801561001057600080fd5b50600436106100ea5760003560e01c8063d5cbe1571161008c578063eac8f5b811610066578063eac8f5b814610263578063f2fde38b14610297578063f742c5b0146102b3578063fa62ee8d146102cf576100ea565b8063d5cbe157146101fa578063de7ac99114610216578063eaa66a3c14610232576100ea565b80636446e628116100c85780636446e6281461016e578063715018a61461019e5780638da5cb5b146101a8578063cf35bdd0146101c6576100ea565b8063026e2d8c146100ef5780634138d1671461011f57806343247d0314610150575b600080fd5b610109600480360381019061010491906114cf565b6102eb565b604051610116919061153d565b60405180910390f35b61013960048036038101906101349190611584565b61037c565b604051610147929190611643565b60405180910390f35b610158610430565b604051610165919061167b565b60405180910390f35b610188600480360381019061018391906114cf565b610445565b6040516101959190611754565b60405180910390f35b6101a661053a565b005b6101b061054e565b6040516101bd919061153d565b60405180910390f35b6101e060048036038101906101db91906114cf565b610577565b6040516101f1959493929190611806565b60405180910390f35b610214600480360381019061020f9190611584565b6106dd565b005b610230600480360381019061022b919061188c565b61077a565b005b61024c60048036038101906102479190611584565b61087b565b60405161025a929190611643565b60405180910390f35b61027d600480360381019061027891906114cf565b6108b9565b60405161028e9594939291906118cc565b60405180910390f35b6102b160048036038101906102ac9190611584565b610b57565b005b6102cd60048036038101906102c89190611999565b610bdd565b005b6102e960048036038101906102e49190611a2e565b610edc565b005b6000600182101580156102ff575060015482105b61033e576040517f08c379a000000000000000000000000000000000000000000000000000000000815260040161033590611ae0565b60405180910390fd5b6003600083815260200190815260200160002060040160009054906101000a900473ffffffffffffffffffffffffffffffffffffffff169050919050565b60008061038761133c565b600260008473ffffffffffffffffffffffffffffffffffffffff1673ffffffffffffffffffffffffffffffffffffffff16815260200190815260200160002060000160009054906101000a900460ff16600260008573ffffffffffffffffffffffffffffffffffffffff1673ffffffffffffffffffffffffffffffffffffffff16815260200190815260200160002060000160019054906101000a900460ff1691509150915091565b6000600180546104409190611b2f565b905090565b606060018210158015610459575060015482105b610498576040517f08c379a000000000000000000000000000000000000000000000000000000000815260040161048f90611ae0565b60405180910390fd5b6003600083815260200190815260200160002060050180548060200260200160405190810160405280929190818152602001828054801561052e57602002820191906000526020600020905b8160009054906101000a900473ffffffffffffffffffffffffffffffffffffffff1673ffffffffffffffffffffffffffffffffffffffff16815260200190600101908083116104e4575b50505050509050919050565b61054261133c565b61054c60006113c3565b565b60008060009054906101000a900473ffffffffffffffffffffffffffffffffffffffff16905090565b60036020528060005260406000206000915090508060000154908060010180546105a090611b92565b80601f01602080910402602001604051908101604052809291908181526020018280546105cc90611b92565b80156106195780601f106105ee57610100808354040283529160200191610619565b820191906000526020600020905b8154815290600101906020018083116105fc57829003601f168201915b50505050509080600201549080600301805461063490611b92565b80601f016020809104026020016040519081016040528092919081815260200182805461066090611b92565b80156106ad5780601f10610682576101008083540402835291602001916106ad565b820191906000526020600020905b81548152906001019060200180831161069057829003601f168201915b5050505050908060040160009054906101000a900473ffffffffffffffffffffffffffffffffffffffff16905085565b6106e561133c565b6000600260008373ffffffffffffffffffffffffffffffffffffffff1673ffffffffffffffffffffffffffffffffffffffff16815260200190815260200160002060000160016101000a81548160ff0219169083151502179055507f6104c637b94c6924ba582f11d228cf3203eb42d40b94a3ab64e60006032a93d58160405161076f919061153d565b60405180910390a150565b61078261133c565b60405180604001604052808260038111156107a05761079f6115b1565b5b815260200160011515815250600260008473ffffffffffffffffffffffffffffffffffffffff1673ffffffffffffffffffffffffffffffffffffffff16815260200190815260200160002060008201518160000160006101000a81548160ff02191690836003811115610816576108156115b1565b5b021790555060208201518160000160016101000a81548160ff0219169083151502179055509050507f9d298435d839e75ea5c40e98fc6aa208cc7c2a9ba6ffb5d9703e179bcf1b248e828260405161086f929190611bc3565b60405180910390a15050565b60026020528060005260406000206000915090508060000160009054906101000a900460ff16908060000160019054906101000a900460ff16905082565b60606000606060006060600186101580156108d5575060015486105b610914576040517f08c379a000000000000000000000000000000000000000000000000000000000815260040161090b90611ae0565b60405180910390fd5b60036000878152602001908152602001600020600101600360008881526020019081526020016000206002015460036000898152602001908152602001600020600301600360008a815260200190815260200160002060040160009054906101000a900473ffffffffffffffffffffffffffffffffffffffff16600360008b81526020019081526020016000206005018480546109b090611b92565b80601f01602080910402602001604051908101604052809291908181526020018280546109dc90611b92565b8015610a295780601f106109fe57610100808354040283529160200191610a29565b820191906000526020600020905b815481529060010190602001808311610a0c57829003601f168201915b50505050509450828054610a3c90611b92565b80601f0160208091040260200160405190810160405280929190818152602001828054610a6890611b92565b8015610ab55780601f10610a8a57610100808354040283529160200191610ab5565b820191906000526020600020905b815481529060010190602001808311610a9857829003601f168201915b5050505050925080805480602002602001604051908101604052809291908181526020018280548015610b3d57602002820191906000526020600020905b8160009054906101000a900473ffffffffffffffffffffffffffffffffffffffff1673ffffffffffffffffffffffffffffffffffffffff1681526020019060010190808311610af3575b505050505090509450945094509450945091939590929450565b610b5f61133c565b600073ffffffffffffffffffffffffffffffffffffffff168173ffffffffffffffffffffffffffffffffffffffff1603610bd15760006040517f1e4fbdf7000000000000000000000000000000000000000000000000000000008152600401610bc8919061153d565b60405180910390fd5b610bda816113c3565b50565b600033905060011515600260008373ffffffffffffffffffffffffffffffffffffffff1673ffffffffffffffffffffffffffffffffffffffff16815260200190815260200160002060000160019054906101000a900460ff16151514610c78576040517f08c379a0000000000000000000000000000000000000000000000000000000008152600401610c6f90611c38565b60405180910390fd5b60006003811115610c8c57610c8b6115b1565b5b600260008373ffffffffffffffffffffffffffffffffffffffff1673ffffffffffffffffffffffffffffffffffffffff16815260200190815260200160002060000160009054906101000a900460ff166003811115610cee57610ced6115b1565b5b14610d2e576040517f08c379a0000000000000000000000000000000000000000000000000000000008152600401610d2590611ca4565b60405180910390fd5b600060015490508060036000838152602001908152602001600020600001819055508686600360008481526020019081526020016000206001019182610d75929190611eaa565b508460036000838152602001908152602001600020600201819055508383600360008481526020019081526020016000206003019182610db6929190611eaa565b50816003600083815260200190815260200160002060040160006101000a81548173ffffffffffffffffffffffffffffffffffffffff021916908373ffffffffffffffffffffffffffffffffffffffff16021790555060036000828152602001908152602001600020600501829080600181540180825580915050600190039060005260206000200160009091909190916101000a81548173ffffffffffffffffffffffffffffffffffffffff021916908373ffffffffffffffffffffffffffffffffffffffff1602179055506001806000828254610e959190611f7a565b925050819055507fcc7b4929606ce963ba54b6a998f106f7748e78c03dc7f08fd77aeb28230eb2d381604051610ecb919061167b565b60405180910390a150505050505050565b813373ffffffffffffffffffffffffffffffffffffffff166003600083815260200190815260200160002060040160009054906101000a900473ffffffffffffffffffffffffffffffffffffffff1673ffffffffffffffffffffffffffffffffffffffff1614610f78576040517f1d08eb6400000000000000000000000000000000000000000000000000000000815260040160405180910390fd5b600033905060018410158015610f8f575060015484105b610fce576040517f08c379a0000000000000000000000000000000000000000000000000000000008152600401610fc590611ae0565b60405180910390fd5b60011515600260008573ffffffffffffffffffffffffffffffffffffffff1673ffffffffffffffffffffffffffffffffffffffff16815260200190815260200160002060000160019054906101000a900460ff16151514611064576040517f08c379a000000000000000000000000000000000000000000000000000000000815260040161105b90611ffa565b60405180910390fd5b600380811115611077576110766115b1565b5b600260008373ffffffffffffffffffffffffffffffffffffffff1673ffffffffffffffffffffffffffffffffffffffff16815260200190815260200160002060000160009054906101000a900460ff1660038111156110d9576110d86115b1565b5b03611119576040517f08c379a000000000000000000000000000000000000000000000000000000000815260040161111090612066565b60405180910390fd5b6001600260008373ffffffffffffffffffffffffffffffffffffffff1673ffffffffffffffffffffffffffffffffffffffff16815260200190815260200160002060000160009054906101000a900460ff16600381111561117d5761117c6115b1565b5b6111879190612093565b60ff16600260008573ffffffffffffffffffffffffffffffffffffffff1673ffffffffffffffffffffffffffffffffffffffff16815260200190815260200160002060000160009054906101000a900460ff1660038111156111ec576111eb6115b1565b5b60ff161461122f576040517f08c379a000000000000000000000000000000000000000000000000000000000815260040161122690612114565b60405180910390fd5b826003600086815260200190815260200160002060040160006101000a81548173ffffffffffffffffffffffffffffffffffffffff021916908373ffffffffffffffffffffffffffffffffffffffff16021790555060036000858152602001908152602001600020600501839080600181540180825580915050600190039060005260206000200160009091909190916101000a81548173ffffffffffffffffffffffffffffffffffffffff021916908373ffffffffffffffffffffffffffffffffffffffff1602179055507ffb1218ff291ccbefa25b58131603cc93001ff09f257940a8896e43c4d36b446e84828560405161132e93929190612134565b60405180910390a150505050565b611344611487565b73ffffffffffffffffffffffffffffffffffffffff1661136261054e565b73ffffffffffffffffffffffffffffffffffffffff16146113c157611385611487565b6040517f118cdaa70000000000000000000000000000000000000000000000000000000081526004016113b8919061153d565b60405180910390fd5b565b60008060009054906101000a900473ffffffffffffffffffffffffffffffffffffffff169050816000806101000a81548173ffffffffffffffffffffffffffffffffffffffff021916908373ffffffffffffffffffffffffffffffffffffffff1602179055508173ffffffffffffffffffffffffffffffffffffffff168173ffffffffffffffffffffffffffffffffffffffff167f8be0079c531659141344cd1fd0a4f28419497f9722a3daafe3b4186f6b6457e060405160405180910390a35050565b600033905090565b600080fd5b600080fd5b6000819050919050565b6114ac81611499565b81146114b757600080fd5b50565b6000813590506114c9816114a3565b92915050565b6000602082840312156114e5576114e461148f565b5b60006114f3848285016114ba565b91505092915050565b600073ffffffffffffffffffffffffffffffffffffffff82169050919050565b6000611527826114fc565b9050919050565b6115378161151c565b82525050565b6000602082019050611552600083018461152e565b92915050565b6115618161151c565b811461156c57600080fd5b50565b60008135905061157e81611558565b92915050565b60006020828403121561159a5761159961148f565b5b60006115a88482850161156f565b91505092915050565b7f4e487b7100000000000000000000000000000000000000000000000000000000600052602160045260246000fd5b600481106115f1576115f06115b1565b5b50565b6000819050611602826115e0565b919050565b6000611612826115f4565b9050919050565b61162281611607565b82525050565b60008115159050919050565b61163d81611628565b82525050565b60006040820190506116586000830185611619565b6116656020830184611634565b9392505050565b61167581611499565b82525050565b6000602082019050611690600083018461166c565b92915050565b600081519050919050565b600082825260208201905092915050565b6000819050602082019050919050565b6116cb8161151c565b82525050565b60006116dd83836116c2565b60208301905092915050565b6000602082019050919050565b600061170182611696565b61170b81856116a1565b9350611716836116b2565b8060005b8381101561174757815161172e88826116d1565b9750611739836116e9565b92505060018101905061171a565b5085935050505092915050565b6000602082019050818103600083015261176e81846116f6565b905092915050565b600081519050919050565b600082825260208201905092915050565b60005b838110156117b0578082015181840152602081019050611795565b60008484015250505050565b6000601f19601f8301169050919050565b60006117d882611776565b6117e28185611781565b93506117f2818560208601611792565b6117fb816117bc565b840191505092915050565b600060a08201905061181b600083018861166c565b818103602083015261182d81876117cd565b905061183c604083018661166c565b818103606083015261184e81856117cd565b905061185d608083018461152e565b9695505050505050565b6004811061187457600080fd5b50565b60008135905061188681611867565b92915050565b600080604083850312156118a3576118a261148f565b5b60006118b18582860161156f565b92505060206118c285828601611877565b9150509250929050565b600060a08201905081810360008301526118e681886117cd565b90506118f5602083018761166c565b818103604083015261190781866117cd565b9050611916606083018561152e565b818103608083015261192881846116f6565b90509695505050505050565b600080fd5b600080fd5b600080fd5b60008083601f84011261195957611958611934565b5b8235905067ffffffffffffffff81111561197657611975611939565b5b6020830191508360018202830111156119925761199161193e565b5b9250929050565b6000806000806000606086880312156119b5576119b461148f565b5b600086013567ffffffffffffffff8111156119d3576119d2611494565b5b6119df88828901611943565b955095505060206119f2888289016114ba565b935050604086013567ffffffffffffffff811115611a1357611a12611494565b5b611a1f88828901611943565b92509250509295509295909350565b60008060408385031215611a4557611a4461148f565b5b6000611a53858286016114ba565b9250506020611a648582860161156f565b9150509250929050565b7f4173736574204944206d7573742062652077697468696e2076616c696420726160008201527f6e67650000000000000000000000000000000000000000000000000000000000602082015250565b6000611aca602383611781565b9150611ad582611a6e565b604082019050919050565b60006020820190508181036000830152611af981611abd565b9050919050565b7f4e487b7100000000000000000000000000000000000000000000000000000000600052601160045260246000fd5b6000611b3a82611499565b9150611b4583611499565b9250828203905081811115611b5d57611b5c611b00565b5b92915050565b7f4e487b7100000000000000000000000000000000000000000000000000000000600052602260045260246000fd5b60006002820490506001821680611baa57607f821691505b602082108103611bbd57611bbc611b63565b5b50919050565b6000604082019050611bd8600083018561152e565b611be56020830184611619565b9392505050565b7f4163746f72206e6f7420656e61626c6564000000000000000000000000000000600082015250565b6000611c22601183611781565b9150611c2d82611bec565b602082019050919050565b60006020820190508181036000830152611c5181611c15565b9050919050565b7f4163746f72277320726f6c65206d7573742062652050726f6475636572000000600082015250565b6000611c8e601d83611781565b9150611c9982611c58565b602082019050919050565b60006020820190508181036000830152611cbd81611c81565b9050919050565b600082905092915050565b7f4e487b7100000000000000000000000000000000000000000000000000000000600052604160045260246000fd5b60008190508160005260206000209050919050565b60006020601f8301049050919050565b600082821b905092915050565b600060088302611d607fffffffffffffffffffffffffffffffffffffffffffffffffffffffffffffffff82611d23565b611d6a8683611d23565b95508019841693508086168417925050509392505050565b6000819050919050565b6000611da7611da2611d9d84611499565b611d82565b611499565b9050919050565b6000819050919050565b611dc183611d8c565b611dd5611dcd82611dae565b848454611d30565b825550505050565b600090565b611dea611ddd565b611df5818484611db8565b505050565b5b81811015611e1957611e0e600082611de2565b600181019050611dfb565b5050565b601f821115611e5e57611e2f81611cfe565b611e3884611d13565b81016020851015611e47578190505b611e5b611e5385611d13565b830182611dfa565b50505b505050565b600082821c905092915050565b6000611e8160001984600802611e63565b1980831691505092915050565b6000611e9a8383611e70565b9150826002028217905092915050565b611eb48383611cc4565b67ffffffffffffffff811115611ecd57611ecc611ccf565b5b611ed78254611b92565b611ee2828285611e1d565b6000601f831160018114611f115760008415611eff578287013590505b611f098582611e8e565b865550611f71565b601f198416611f1f86611cfe565b60005b82811015611f4757848901358255600182019150602085019450602081019050611f22565b86831015611f645784890135611f60601f891682611e70565b8355505b6001600288020188555050505b50505050505050565b6000611f8582611499565b9150611f9083611499565b9250828201905080821115611fa857611fa7611b00565b5b92915050565b7f4e657874206f776e6572206973206e6f742076616c6964000000000000000000600082015250565b6000611fe4601783611781565b9150611fef82611fae565b602082019050919050565b6000602082019050818103600083015261201381611fd7565b9050919050565b7f436f6e73756d65722063616e206e6f74207472616e7366657220617373657400600082015250565b6000612050601f83611781565b915061205b8261201a565b602082019050919050565b6000602082019050818103600083015261207f81612043565b9050919050565b600060ff82169050919050565b600061209e82612086565b91506120a983612086565b9250828201905060ff8111156120c2576120c1611b00565b5b92915050565b7f57726f6e67206e657874206f776e657220726f6c650000000000000000000000600082015250565b60006120fe601583611781565b9150612109826120c8565b602082019050919050565b6000602082019050818103600083015261212d816120f1565b9050919050565b6000606082019050612149600083018661166c565b612156602083018561152e565b612163604083018461152e565b94935050505056fea26469706673582212207a9b0534996a738c7ebf5b5c0d8e3306e8c74b2b4f41a1a6848f7cce0c3daed364736f6c63430008140033",
  "linkReferences": {},
  "deployedLinkReferences": {}
}