{
  "_format": "hh-sol-artifact-1",
  "contractName": "SupplyChainTracking",
  "sourceName": "contracts/SupplyChainTracking.sol",
  "abi": [
    {
      "inputs": [],
      "stateMutability": "nonpayable",
      "type": "constructor"
    },
    {
      "inputs": [
        {
          "internalType": "address",
          "name": "owner",
          "type": "address"
        }
      ],
      "name": "OwnableInvalidOwner",
      "type": "error"
    },
    {
      "inputs": [
        {
          "internalType": "address",
          "name": "account",
          "type": "address"
        }
      ],
      "name": "OwnableUnauthorizedAccount",
      "type": "error"
    },
    {
      "anonymous": false,
      "inputs": [
        {
          "indexed": false,
          "internalType": "address",
          "name": "actor",
          "type": "address"
        }
      ],
      "name": "ActorDisabled",
      "type": "event"
    },
    {
      "anonymous": false,
      "inputs": [
        {
          "indexed": false,
          "internalType": "address",
          "name": "actor",
          "type": "address"
        },
        {
          "indexed": false,
          "internalType": "enum SupplyChainTracking.Role",
          "name": "role",
          "type": "uint8"
        }
      ],
      "name": "ActorRegistered",
      "type": "event"
    },
    {
      "anonymous": false,
      "inputs": [
        {
          "indexed": false,
          "internalType": "uint256",
          "name": "productId",
          "type": "uint256"
        }
      ],
      "name": "AssetRegistered",
      "type": "event"
    },
    {
      "anonymous": false,
      "inputs": [
        {
          "indexed": true,
          "internalType": "address",
          "name": "previousOwner",
          "type": "address"
        },
        {
          "indexed": true,
          "internalType": "address",
          "name": "newOwner",
          "type": "address"
        }
      ],
      "name": "OwnershipTransferred",
      "type": "event"
    },
    {
      "inputs": [
        {
          "internalType": "address",
          "name": "",
          "type": "address"
        }
      ],
      "name": "actors",
      "outputs": [
        {
          "internalType": "enum SupplyChainTracking.Role",
          "name": "role",
          "type": "uint8"
        },
        {
          "internalType": "bool",
          "name": "active",
          "type": "bool"
        }
      ],
      "stateMutability": "view",
      "type": "function"
    },
    {
      "inputs": [
        {
          "internalType": "uint256",
          "name": "",
          "type": "uint256"
        }
      ],
      "name": "assets",
      "outputs": [
        {
          "internalType": "uint256",
          "name": "productId",
          "type": "uint256"
        },
        {
          "internalType": "string",
          "name": "productType",
          "type": "string"
        },
        {
          "internalType": "uint256",
          "name": "productionDate",
          "type": "uint256"
        },
        {
          "internalType": "string",
          "name": "origin",
          "type": "string"
        },
        {
          "internalType": "address",
          "name": "currentHolder",
          "type": "address"
        }
      ],
      "stateMutability": "view",
      "type": "function"
    },
    {
      "inputs": [
        {
          "internalType": "address",
          "name": "_actor",
          "type": "address"
        }
      ],
      "name": "disableActor",
      "outputs": [],
      "stateMutability": "nonpayable",
      "type": "function"
    },
    {
      "inputs": [
        {
          "internalType": "address",
          "name": "_actor",
          "type": "address"
        }
      ],
      "name": "getActor",
      "outputs": [
        {
          "internalType": "enum SupplyChainTracking.Role",
          "name": "",
          "type": "uint8"
        },
        {
          "internalType": "bool",
          "name": "",
          "type": "bool"
        }
      ],
      "stateMutability": "view",
      "type": "function"
    },
    {
      "inputs": [
        {
          "internalType": "uint256",
          "name": "_assetId",
          "type": "uint256"
        }
      ],
      "name": "getAsset",
      "outputs": [
        {
          "internalType": "string",
          "name": "",
          "type": "string"
        },
        {
          "internalType": "uint256",
          "name": "",
          "type": "uint256"
        },
        {
          "internalType": "string",
          "name": "",
          "type": "string"
        },
        {
          "internalType": "address",
          "name": "",
          "type": "address"
        },
        {
          "internalType": "address[]",
          "name": "",
          "type": "address[]"
        }
      ],
      "stateMutability": "view",
      "type": "function"
    },
    {
      "inputs": [],
      "name": "getTotalAssetNumber",
      "outputs": [
        {
          "internalType": "uint256",
          "name": "",
          "type": "uint256"
        }
      ],
      "stateMutability": "view",
      "type": "function"
    },
    {
      "inputs": [],
      "name": "owner",
      "outputs": [
        {
          "internalType": "address",
          "name": "",
          "type": "address"
        }
      ],
      "stateMutability": "view",
      "type": "function"
    },
    {
      "inputs": [
        {
          "internalType": "address",
          "name": "_actor",
          "type": "address"
        },
        {
          "internalType": "enum SupplyChainTracking.Role",
          "name": "_role",
          "type": "uint8"
        }
      ],
      "name": "registerActor",
      "outputs": [],
      "stateMutability": "nonpayable",
      "type": "function"
    },
    {
      "inputs": [
        {
          "internalType": "string",
          "name": "_productType",
          "type": "string"
        },
        {
          "internalType": "uint256",
          "name": "_productionDate",
          "type": "uint256"
        },
        {
          "internalType": "string",
          "name": "_origin",
          "type": "string"
        }
      ],
      "name": "registerAsset",
      "outputs": [],
      "stateMutability": "nonpayable",
      "type": "function"
    },
    {
      "inputs": [],
      "name": "renounceOwnership",
      "outputs": [],
      "stateMutability": "nonpayable",
      "type": "function"
    },
    {
      "inputs": [
        {
          "internalType": "address",
          "name": "newOwner",
          "type": "address"
        }
      ],
      "name": "transferOwnership",
      "outputs": [],
      "stateMutability": "nonpayable",
      "type": "function"
    }
  ],
  "bytecode": "0x60806040523480156200001157600080fd5b5033600073ffffffffffffffffffffffffffffffffffffffff168173ffffffffffffffffffffffffffffffffffffffff1603620000885760006040517f1e4fbdf70000000000000000000000000000000000000000000000000000000081526004016200007f9190620001b0565b60405180910390fd5b6200009981620000a760201b60201c565b5060018081905550620001cd565b60008060009054906101000a900473ffffffffffffffffffffffffffffffffffffffff169050816000806101000a81548173ffffffffffffffffffffffffffffffffffffffff021916908373ffffffffffffffffffffffffffffffffffffffff1602179055508173ffffffffffffffffffffffffffffffffffffffff168173ffffffffffffffffffffffffffffffffffffffff167f8be0079c531659141344cd1fd0a4f28419497f9722a3daafe3b4186f6b6457e060405160405180910390a35050565b600073ffffffffffffffffffffffffffffffffffffffff82169050919050565b600062000198826200016b565b9050919050565b620001aa816200018b565b82525050565b6000602082019050620001c760008301846200019f565b92915050565b6118df80620001dd6000396000f3fe608060405234801561001057600080fd5b50600436106100a95760003560e01c8063d5cbe15711610071578063d5cbe15714610159578063de7ac99114610175578063eaa66a3c14610191578063eac8f5b8146101c2578063f2fde38b146101f6578063f742c5b014610212576100a9565b80634138d167146100ae57806343247d03146100df578063715018a6146100fd5780638da5cb5b14610107578063cf35bdd014610125575b600080fd5b6100c860048036038101906100c39190610e54565b61022e565b6040516100d6929190610f13565b60405180910390f35b6100e76102e2565b6040516100f49190610f55565b60405180910390f35b6101056102f7565b005b61010f61030b565b60405161011c9190610f7f565b60405180910390f35b61013f600480360381019061013a9190610fc6565b610334565b604051610150959493929190611083565b60405180910390f35b610173600480360381019061016e9190610e54565b61049a565b005b61018f600480360381019061018a9190611109565b610537565b005b6101ab60048036038101906101a69190610e54565b610638565b6040516101b9929190610f13565b60405180910390f35b6101dc60048036038101906101d79190610fc6565b610676565b6040516101ed959493929190611207565b60405180910390f35b610210600480360381019061020b9190610e54565b610914565b005b61022c600480360381019061022791906112d4565b61099a565b005b600080610239610c99565b600260008473ffffffffffffffffffffffffffffffffffffffff1673ffffffffffffffffffffffffffffffffffffffff16815260200190815260200160002060000160009054906101000a900460ff16600260008573ffffffffffffffffffffffffffffffffffffffff1673ffffffffffffffffffffffffffffffffffffffff16815260200190815260200160002060000160019054906101000a900460ff1691509150915091565b6000600180546102f29190611398565b905090565b6102ff610c99565b6103096000610d20565b565b60008060009054906101000a900473ffffffffffffffffffffffffffffffffffffffff16905090565b600360205280600052604060002060009150905080600001549080600101805461035d906113fb565b80601f0160208091040260200160405190810160405280929190818152602001828054610389906113fb565b80156103d65780601f106103ab576101008083540402835291602001916103d6565b820191906000526020600020905b8154815290600101906020018083116103b957829003601f168201915b5050505050908060020154908060030180546103f1906113fb565b80601f016020809104026020016040519081016040528092919081815260200182805461041d906113fb565b801561046a5780601f1061043f5761010080835404028352916020019161046a565b820191906000526020600020905b81548152906001019060200180831161044d57829003601f168201915b5050505050908060040160009054906101000a900473ffffffffffffffffffffffffffffffffffffffff16905085565b6104a2610c99565b6000600260008373ffffffffffffffffffffffffffffffffffffffff1673ffffffffffffffffffffffffffffffffffffffff16815260200190815260200160002060000160016101000a81548160ff0219169083151502179055507f6104c637b94c6924ba582f11d228cf3203eb42d40b94a3ab64e60006032a93d58160405161052c9190610f7f565b60405180910390a150565b61053f610c99565b604051806040016040528082600381111561055d5761055c610e81565b5b815260200160011515815250600260008473ffffffffffffffffffffffffffffffffffffffff1673ffffffffffffffffffffffffffffffffffffffff16815260200190815260200160002060008201518160000160006101000a81548160ff021916908360038111156105d3576105d2610e81565b5b021790555060208201518160000160016101000a81548160ff0219169083151502179055509050507f9d298435d839e75ea5c40e98fc6aa208cc7c2a9ba6ffb5d9703e179bcf1b248e828260405161062c92919061142c565b60405180910390a15050565b60026020528060005260406000206000915090508060000160009054906101000a900460ff16908060000160019054906101000a900460ff16905082565b6060600060606000606060018610158015610692575060015486105b6106d1576040517f08c379a00000000000000000000000000000000000000000000000000000000081526004016106c8906114c7565b60405180910390fd5b60036000878152602001908152602001600020600101600360008881526020019081526020016000206002015460036000898152602001908152602001600020600301600360008a815260200190815260200160002060040160009054906101000a900473ffffffffffffffffffffffffffffffffffffffff16600360008b815260200190815260200160002060050184805461076d906113fb565b80601f0160208091040260200160405190810160405280929190818152602001828054610799906113fb565b80156107e65780601f106107bb576101008083540402835291602001916107e6565b820191906000526020600020905b8154815290600101906020018083116107c957829003601f168201915b505050505094508280546107f9906113fb565b80601f0160208091040260200160405190810160405280929190818152602001828054610825906113fb565b80156108725780601f1061084757610100808354040283529160200191610872565b820191906000526020600020905b81548152906001019060200180831161085557829003601f168201915b50505050509250808054806020026020016040519081016040528092919081815260200182805480156108fa57602002820191906000526020600020905b8160009054906101000a900473ffffffffffffffffffffffffffffffffffffffff1673ffffffffffffffffffffffffffffffffffffffff16815260200190600101908083116108b0575b505050505090509450945094509450945091939590929450565b61091c610c99565b600073ffffffffffffffffffffffffffffffffffffffff168173ffffffffffffffffffffffffffffffffffffffff160361098e5760006040517f1e4fbdf70000000000000000000000000000000000000000000000000000000081526004016109859190610f7f565b60405180910390fd5b61099781610d20565b50565b600033905060011515600260008373ffffffffffffffffffffffffffffffffffffffff1673ffffffffffffffffffffffffffffffffffffffff16815260200190815260200160002060000160019054906101000a900460ff16151514610a35576040517f08c379a0000000000000000000000000000000000000000000000000000000008152600401610a2c90611533565b60405180910390fd5b60006003811115610a4957610a48610e81565b5b600260008373ffffffffffffffffffffffffffffffffffffffff1673ffffffffffffffffffffffffffffffffffffffff16815260200190815260200160002060000160009054906101000a900460ff166003811115610aab57610aaa610e81565b5b14610aeb576040517f08c379a0000000000000000000000000000000000000000000000000000000008152600401610ae29061159f565b60405180910390fd5b600060015490508060036000838152602001908152602001600020600001819055508686600360008481526020019081526020016000206001019182610b329291906117a5565b508460036000838152602001908152602001600020600201819055508383600360008481526020019081526020016000206003019182610b739291906117a5565b50816003600083815260200190815260200160002060040160006101000a81548173ffffffffffffffffffffffffffffffffffffffff021916908373ffffffffffffffffffffffffffffffffffffffff16021790555060036000828152602001908152602001600020600501829080600181540180825580915050600190039060005260206000200160009091909190916101000a81548173ffffffffffffffffffffffffffffffffffffffff021916908373ffffffffffffffffffffffffffffffffffffffff1602179055506001806000828254610c529190611875565b925050819055507fcc7b4929606ce963ba54b6a998f106f7748e78c03dc7f08fd77aeb28230eb2d381604051610c889190610f55565b60405180910390a150505050505050565b610ca1610de4565b73ffffffffffffffffffffffffffffffffffffffff16610cbf61030b565b73ffffffffffffffffffffffffffffffffffffffff1614610d1e57610ce2610de4565b6040517f118cdaa7000000000000000000000000000000000000000000000000000000008152600401610d159190610f7f565b60405180910390fd5b565b60008060009054906101000a900473ffffffffffffffffffffffffffffffffffffffff169050816000806101000a81548173ffffffffffffffffffffffffffffffffffffffff021916908373ffffffffffffffffffffffffffffffffffffffff1602179055508173ffffffffffffffffffffffffffffffffffffffff168173ffffffffffffffffffffffffffffffffffffffff167f8be0079c531659141344cd1fd0a4f28419497f9722a3daafe3b4186f6b6457e060405160405180910390a35050565b600033905090565b600080fd5b600080fd5b600073ffffffffffffffffffffffffffffffffffffffff82169050919050565b6000610e2182610df6565b9050919050565b610e3181610e16565b8114610e3c57600080fd5b50565b600081359050610e4e81610e28565b92915050565b600060208284031215610e6a57610e69610dec565b5b6000610e7884828501610e3f565b91505092915050565b7f4e487b7100000000000000000000000000000000000000000000000000000000600052602160045260246000fd5b60048110610ec157610ec0610e81565b5b50565b6000819050610ed282610eb0565b919050565b6000610ee282610ec4565b9050919050565b610ef281610ed7565b82525050565b60008115159050919050565b610f0d81610ef8565b82525050565b6000604082019050610f286000830185610ee9565b610f356020830184610f04565b9392505050565b6000819050919050565b610f4f81610f3c565b82525050565b6000602082019050610f6a6000830184610f46565b92915050565b610f7981610e16565b82525050565b6000602082019050610f946000830184610f70565b92915050565b610fa381610f3c565b8114610fae57600080fd5b50565b600081359050610fc081610f9a565b92915050565b600060208284031215610fdc57610fdb610dec565b5b6000610fea84828501610fb1565b91505092915050565b600081519050919050565b600082825260208201905092915050565b60005b8381101561102d578082015181840152602081019050611012565b60008484015250505050565b6000601f19601f8301169050919050565b600061105582610ff3565b61105f8185610ffe565b935061106f81856020860161100f565b61107881611039565b840191505092915050565b600060a0820190506110986000830188610f46565b81810360208301526110aa818761104a565b90506110b96040830186610f46565b81810360608301526110cb818561104a565b90506110da6080830184610f70565b9695505050505050565b600481106110f157600080fd5b50565b600081359050611103816110e4565b92915050565b600080604083850312156111205761111f610dec565b5b600061112e85828601610e3f565b925050602061113f858286016110f4565b9150509250929050565b600081519050919050565b600082825260208201905092915050565b6000819050602082019050919050565b61117e81610e16565b82525050565b60006111908383611175565b60208301905092915050565b6000602082019050919050565b60006111b482611149565b6111be8185611154565b93506111c983611165565b8060005b838110156111fa5781516111e18882611184565b97506111ec8361119c565b9250506001810190506111cd565b5085935050505092915050565b600060a0820190508181036000830152611221818861104a565b90506112306020830187610f46565b8181036040830152611242818661104a565b90506112516060830185610f70565b818103608083015261126381846111a9565b90509695505050505050565b600080fd5b600080fd5b600080fd5b60008083601f8401126112945761129361126f565b5b8235905067ffffffffffffffff8111156112b1576112b0611274565b5b6020830191508360018202830111156112cd576112cc611279565b5b9250929050565b6000806000806000606086880312156112f0576112ef610dec565b5b600086013567ffffffffffffffff81111561130e5761130d610df1565b5b61131a8882890161127e565b9550955050602061132d88828901610fb1565b935050604086013567ffffffffffffffff81111561134e5761134d610df1565b5b61135a8882890161127e565b92509250509295509295909350565b7f4e487b7100000000000000000000000000000000000000000000000000000000600052601160045260246000fd5b60006113a382610f3c565b91506113ae83610f3c565b92508282039050818111156113c6576113c5611369565b5b92915050565b7f4e487b7100000000000000000000000000000000000000000000000000000000600052602260045260246000fd5b6000600282049050600182168061141357607f821691505b602082108103611426576114256113cc565b5b50919050565b60006040820190506114416000830185610f70565b61144e6020830184610ee9565b9392505050565b7f4173736574204944206d7573742062652077697468696e2076616c696420726160008201527f6e67650000000000000000000000000000000000000000000000000000000000602082015250565b60006114b1602383610ffe565b91506114bc82611455565b604082019050919050565b600060208201905081810360008301526114e0816114a4565b9050919050565b7f4163746f72206e6f7420656e61626c6564000000000000000000000000000000600082015250565b600061151d601183610ffe565b9150611528826114e7565b602082019050919050565b6000602082019050818103600083015261154c81611510565b9050919050565b7f4163746f72277320726f6c65206d7573742062652050726f6475636572000000600082015250565b6000611589601d83610ffe565b915061159482611553565b602082019050919050565b600060208201905081810360008301526115b88161157c565b9050919050565b600082905092915050565b7f4e487b7100000000000000000000000000000000000000000000000000000000600052604160045260246000fd5b60008190508160005260206000209050919050565b60006020601f8301049050919050565b600082821b905092915050565b60006008830261165b7fffffffffffffffffffffffffffffffffffffffffffffffffffffffffffffffff8261161e565b611665868361161e565b95508019841693508086168417925050509392505050565b6000819050919050565b60006116a261169d61169884610f3c565b61167d565b610f3c565b9050919050565b6000819050919050565b6116bc83611687565b6116d06116c8826116a9565b84845461162b565b825550505050565b600090565b6116e56116d8565b6116f08184846116b3565b505050565b5b81811015611714576117096000826116dd565b6001810190506116f6565b5050565b601f8211156117595761172a816115f9565b6117338461160e565b81016020851015611742578190505b61175661174e8561160e565b8301826116f5565b50505b505050565b600082821c905092915050565b600061177c6000198460080261175e565b1980831691505092915050565b6000611795838361176b565b9150826002028217905092915050565b6117af83836115bf565b67ffffffffffffffff8111156117c8576117c76115ca565b5b6117d282546113fb565b6117dd828285611718565b6000601f83116001811461180c57600084156117fa578287013590505b6118048582611789565b86555061186c565b601f19841661181a866115f9565b60005b828110156118425784890135825560018201915060208501945060208101905061181d565b8683101561185f578489013561185b601f89168261176b565b8355505b6001600288020188555050505b50505050505050565b600061188082610f3c565b915061188b83610f3c565b92508282019050808211156118a3576118a2611369565b5b9291505056fea2646970667358221220f634454c95c1076d4a7b3ebacb9cc4b598e04ad7000ed510e963c0fc51d8767d64736f6c63430008140033",
  "linkReferences": {},
  "deployedLinkReferences": {}
}