{
  "_format": "hh-sol-artifact-1",
  "contractName": "SupplyChainTracking",
  "sourceName": "contracts/SupplyChainTracking.sol",
  "abi": [
    {
      "inputs": [],
      "stateMutability": "nonpayable",
      "type": "constructor"
    },
    {
      "inputs": [
        {
          "internalType": "address",
          "name": "owner",
          "type": "address"
        }
      ],
      "name": "OwnableInvalidOwner",
      "type": "error"
    },
    {
      "inputs": [
        {
          "internalType": "address",
          "name": "account",
          "type": "address"
        }
      ],
      "name": "OwnableUnauthorizedAccount",
      "type": "error"
    },
    {
      "anonymous": false,
      "inputs": [
        {
          "indexed": false,
          "internalType": "address",
          "name": "actor",
          "type": "address"
        }
      ],
      "name": "ActorDisabled",
      "type": "event"
    },
    {
      "anonymous": false,
      "inputs": [
        {
          "indexed": false,
          "internalType": "address",
          "name": "actor",
          "type": "address"
        },
        {
          "indexed": false,
          "internalType": "enum SupplyChainTracking.Role",
          "name": "role",
          "type": "uint8"
        }
      ],
      "name": "ActorRegistered",
      "type": "event"
    },
    {
      "anonymous": false,
      "inputs": [
        {
          "indexed": false,
          "internalType": "uint256",
          "name": "productId",
          "type": "uint256"
        }
      ],
      "name": "AssetRegistered",
      "type": "event"
    },
    {
      "anonymous": false,
      "inputs": [
        {
          "indexed": true,
          "internalType": "address",
          "name": "previousOwner",
          "type": "address"
        },
        {
          "indexed": true,
          "internalType": "address",
          "name": "newOwner",
          "type": "address"
        }
      ],
      "name": "OwnershipTransferred",
      "type": "event"
    },
    {
      "inputs": [
        {
          "internalType": "address",
          "name": "",
          "type": "address"
        }
      ],
      "name": "actors",
      "outputs": [
        {
          "internalType": "enum SupplyChainTracking.Role",
          "name": "role",
          "type": "uint8"
        },
        {
          "internalType": "bool",
          "name": "active",
          "type": "bool"
        }
      ],
      "stateMutability": "view",
      "type": "function"
    },
    {
      "inputs": [
        {
          "internalType": "uint256",
          "name": "",
          "type": "uint256"
        }
      ],
      "name": "assets",
      "outputs": [
        {
          "internalType": "uint256",
          "name": "productId",
          "type": "uint256"
        },
        {
          "internalType": "string",
          "name": "productType",
          "type": "string"
        },
        {
          "internalType": "uint256",
          "name": "productionDate",
          "type": "uint256"
        },
        {
          "internalType": "string",
          "name": "origin",
          "type": "string"
        },
        {
          "internalType": "address",
          "name": "currentHolder",
          "type": "address"
        }
      ],
      "stateMutability": "view",
      "type": "function"
    },
    {
      "inputs": [
        {
          "internalType": "address",
          "name": "_actor",
          "type": "address"
        }
      ],
      "name": "disableActor",
      "outputs": [],
      "stateMutability": "nonpayable",
      "type": "function"
    },
    {
      "inputs": [
        {
          "internalType": "address",
          "name": "_actor",
          "type": "address"
        }
      ],
      "name": "getActor",
      "outputs": [
        {
          "internalType": "enum SupplyChainTracking.Role",
          "name": "",
          "type": "uint8"
        },
        {
          "internalType": "bool",
          "name": "",
          "type": "bool"
        }
      ],
      "stateMutability": "view",
      "type": "function"
    },
    {
      "inputs": [
        {
          "internalType": "uint256",
          "name": "_assetId",
          "type": "uint256"
        }
      ],
      "name": "getAsset",
      "outputs": [
        {
          "internalType": "string",
          "name": "",
          "type": "string"
        },
        {
          "internalType": "uint256",
          "name": "",
          "type": "uint256"
        },
        {
          "internalType": "string",
          "name": "",
          "type": "string"
        },
        {
          "internalType": "address",
          "name": "",
          "type": "address"
        },
        {
          "internalType": "address[]",
          "name": "",
          "type": "address[]"
        }
      ],
      "stateMutability": "view",
      "type": "function"
    },
    {
      "inputs": [],
      "name": "owner",
      "outputs": [
        {
          "internalType": "address",
          "name": "",
          "type": "address"
        }
      ],
      "stateMutability": "view",
      "type": "function"
    },
    {
      "inputs": [
        {
          "internalType": "address",
          "name": "_actor",
          "type": "address"
        },
        {
          "internalType": "enum SupplyChainTracking.Role",
          "name": "_role",
          "type": "uint8"
        }
      ],
      "name": "registerActor",
      "outputs": [],
      "stateMutability": "nonpayable",
      "type": "function"
    },
    {
      "inputs": [
        {
          "internalType": "string",
          "name": "_productType",
          "type": "string"
        },
        {
          "internalType": "uint256",
          "name": "_productionDate",
          "type": "uint256"
        },
        {
          "internalType": "string",
          "name": "_origin",
          "type": "string"
        }
      ],
      "name": "registerAsset",
      "outputs": [],
      "stateMutability": "nonpayable",
      "type": "function"
    },
    {
      "inputs": [],
      "name": "renounceOwnership",
      "outputs": [],
      "stateMutability": "nonpayable",
      "type": "function"
    },
    {
      "inputs": [
        {
          "internalType": "address",
          "name": "newOwner",
          "type": "address"
        }
      ],
      "name": "transferOwnership",
      "outputs": [],
      "stateMutability": "nonpayable",
      "type": "function"
    }
  ],
  "bytecode": "0x60806040523480156200001157600080fd5b5033600073ffffffffffffffffffffffffffffffffffffffff168173ffffffffffffffffffffffffffffffffffffffff1603620000885760006040517f1e4fbdf70000000000000000000000000000000000000000000000000000000081526004016200007f9190620001b1565b60405180910390fd5b6200009981620000a860201b60201c565b506000600181905550620001ce565b60008060009054906101000a900473ffffffffffffffffffffffffffffffffffffffff169050816000806101000a81548173ffffffffffffffffffffffffffffffffffffffff021916908373ffffffffffffffffffffffffffffffffffffffff1602179055508173ffffffffffffffffffffffffffffffffffffffff168173ffffffffffffffffffffffffffffffffffffffff167f8be0079c531659141344cd1fd0a4f28419497f9722a3daafe3b4186f6b6457e060405160405180910390a35050565b600073ffffffffffffffffffffffffffffffffffffffff82169050919050565b600062000199826200016c565b9050919050565b620001ab816200018c565b82525050565b6000602082019050620001c86000830184620001a0565b92915050565b61191580620001de6000396000f3fe608060405234801561001057600080fd5b506004361061009e5760003560e01c8063de7ac99111610066578063de7ac9911461014c578063eaa66a3c14610168578063eac8f5b814610199578063f2fde38b146101cd578063f742c5b0146101e95761009e565b80634138d167146100a3578063715018a6146100d45780638da5cb5b146100de578063cf35bdd0146100fc578063d5cbe15714610130575b600080fd5b6100bd60048036038101906100b89190610f06565b610205565b6040516100cb929190610fc5565b60405180910390f35b6100dc6102b9565b005b6100e66102cd565b6040516100f39190610ffd565b60405180910390f35b6101166004803603810190610111919061104e565b6102f6565b60405161012795949392919061111a565b60405180910390f35b61014a60048036038101906101459190610f06565b61045c565b005b610166600480360381019061016191906111a0565b6104f9565b005b610182600480360381019061017d9190610f06565b6105fa565b604051610190929190610fc5565b60405180910390f35b6101b360048036038101906101ae919061104e565b610638565b6040516101c495949392919061129e565b60405180910390f35b6101e760048036038101906101e29190610f06565b610885565b005b61020360048036038101906101fe919061136b565b61090b565b005b600080610210610c62565b600260008473ffffffffffffffffffffffffffffffffffffffff1673ffffffffffffffffffffffffffffffffffffffff16815260200190815260200160002060000160009054906101000a900460ff16600260008573ffffffffffffffffffffffffffffffffffffffff1673ffffffffffffffffffffffffffffffffffffffff16815260200190815260200160002060000160019054906101000a900460ff1691509150915091565b6102c1610c62565b6102cb6000610ce9565b565b60008060009054906101000a900473ffffffffffffffffffffffffffffffffffffffff16905090565b600360205280600052604060002060009150905080600001549080600101805461031f9061142f565b80601f016020809104026020016040519081016040528092919081815260200182805461034b9061142f565b80156103985780601f1061036d57610100808354040283529160200191610398565b820191906000526020600020905b81548152906001019060200180831161037b57829003601f168201915b5050505050908060020154908060030180546103b39061142f565b80601f01602080910402602001604051908101604052809291908181526020018280546103df9061142f565b801561042c5780601f106104015761010080835404028352916020019161042c565b820191906000526020600020905b81548152906001019060200180831161040f57829003601f168201915b5050505050908060040160009054906101000a900473ffffffffffffffffffffffffffffffffffffffff16905085565b610464610c62565b6000600260008373ffffffffffffffffffffffffffffffffffffffff1673ffffffffffffffffffffffffffffffffffffffff16815260200190815260200160002060000160016101000a81548160ff0219169083151502179055507f6104c637b94c6924ba582f11d228cf3203eb42d40b94a3ab64e60006032a93d5816040516104ee9190610ffd565b60405180910390a150565b610501610c62565b604051806040016040528082600381111561051f5761051e610f33565b5b815260200160011515815250600260008473ffffffffffffffffffffffffffffffffffffffff1673ffffffffffffffffffffffffffffffffffffffff16815260200190815260200160002060008201518160000160006101000a81548160ff0219169083600381111561059557610594610f33565b5b021790555060208201518160000160016101000a81548160ff0219169083151502179055509050507f9d298435d839e75ea5c40e98fc6aa208cc7c2a9ba6ffb5d9703e179bcf1b248e82826040516105ee929190611460565b60405180910390a15050565b60026020528060005260406000206000915090508060000160009054906101000a900460ff16908060000160019054906101000a900460ff16905082565b6060600060606000606060036000878152602001908152602001600020600101600360008881526020019081526020016000206002015460036000898152602001908152602001600020600301600360008a815260200190815260200160002060040160009054906101000a900473ffffffffffffffffffffffffffffffffffffffff16600360008b81526020019081526020016000206005018480546106de9061142f565b80601f016020809104026020016040519081016040528092919081815260200182805461070a9061142f565b80156107575780601f1061072c57610100808354040283529160200191610757565b820191906000526020600020905b81548152906001019060200180831161073a57829003601f168201915b5050505050945082805461076a9061142f565b80601f01602080910402602001604051908101604052809291908181526020018280546107969061142f565b80156107e35780601f106107b8576101008083540402835291602001916107e3565b820191906000526020600020905b8154815290600101906020018083116107c657829003601f168201915b505050505092508080548060200260200160405190810160405280929190818152602001828054801561086b57602002820191906000526020600020905b8160009054906101000a900473ffffffffffffffffffffffffffffffffffffffff1673ffffffffffffffffffffffffffffffffffffffff1681526020019060010190808311610821575b505050505090509450945094509450945091939590929450565b61088d610c62565b600073ffffffffffffffffffffffffffffffffffffffff168173ffffffffffffffffffffffffffffffffffffffff16036108ff5760006040517f1e4fbdf70000000000000000000000000000000000000000000000000000000081526004016108f69190610ffd565b60405180910390fd5b61090881610ce9565b50565b6000339050610968600260008373ffffffffffffffffffffffffffffffffffffffff1673ffffffffffffffffffffffffffffffffffffffff16815260200190815260200160002060000160019054906101000a900460ff16610dad565b60011515600260008373ffffffffffffffffffffffffffffffffffffffff1673ffffffffffffffffffffffffffffffffffffffff16815260200190815260200160002060000160019054906101000a900460ff161515146109fe576040517f08c379a00000000000000000000000000000000000000000000000000000000081526004016109f5906114d5565b60405180910390fd5b60006003811115610a1257610a11610f33565b5b600260008373ffffffffffffffffffffffffffffffffffffffff1673ffffffffffffffffffffffffffffffffffffffff16815260200190815260200160002060000160009054906101000a900460ff166003811115610a7457610a73610f33565b5b14610ab4576040517f08c379a0000000000000000000000000000000000000000000000000000000008152600401610aab90611541565b60405180910390fd5b600060015490508060036000838152602001908152602001600020600001819055508686600360008481526020019081526020016000206001019182610afb929190611747565b508460036000838152602001908152602001600020600201819055508383600360008481526020019081526020016000206003019182610b3c929190611747565b50816003600083815260200190815260200160002060040160006101000a81548173ffffffffffffffffffffffffffffffffffffffff021916908373ffffffffffffffffffffffffffffffffffffffff16021790555060036000828152602001908152602001600020600501829080600181540180825580915050600190039060005260206000200160009091909190916101000a81548173ffffffffffffffffffffffffffffffffffffffff021916908373ffffffffffffffffffffffffffffffffffffffff1602179055506001806000828254610c1b9190611846565b925050819055507fcc7b4929606ce963ba54b6a998f106f7748e78c03dc7f08fd77aeb28230eb2d381604051610c51919061187a565b60405180910390a150505050505050565b610c6a610e46565b73ffffffffffffffffffffffffffffffffffffffff16610c886102cd565b73ffffffffffffffffffffffffffffffffffffffff1614610ce757610cab610e46565b6040517f118cdaa7000000000000000000000000000000000000000000000000000000008152600401610cde9190610ffd565b60405180910390fd5b565b60008060009054906101000a900473ffffffffffffffffffffffffffffffffffffffff169050816000806101000a81548173ffffffffffffffffffffffffffffffffffffffff021916908373ffffffffffffffffffffffffffffffffffffffff1602179055508173ffffffffffffffffffffffffffffffffffffffff168173ffffffffffffffffffffffffffffffffffffffff167f8be0079c531659141344cd1fd0a4f28419497f9722a3daafe3b4186f6b6457e060405160405180910390a35050565b610e4381604051602401610dc19190611895565b6040516020818303038152906040527f32458eed000000000000000000000000000000000000000000000000000000007bffffffffffffffffffffffffffffffffffffffffffffffffffffffff19166020820180517bffffffffffffffffffffffffffffffffffffffffffffffffffffffff8381831617835250505050610e4e565b50565b600033905090565b610e6581610e5d610e68610e89565b63ffffffff16565b50565b60006a636f6e736f6c652e6c6f679050600080835160208501845afa505050565b610e94819050919050565b610e9c6118b0565b565b600080fd5b600080fd5b600073ffffffffffffffffffffffffffffffffffffffff82169050919050565b6000610ed382610ea8565b9050919050565b610ee381610ec8565b8114610eee57600080fd5b50565b600081359050610f0081610eda565b92915050565b600060208284031215610f1c57610f1b610e9e565b5b6000610f2a84828501610ef1565b91505092915050565b7f4e487b7100000000000000000000000000000000000000000000000000000000600052602160045260246000fd5b60048110610f7357610f72610f33565b5b50565b6000819050610f8482610f62565b919050565b6000610f9482610f76565b9050919050565b610fa481610f89565b82525050565b60008115159050919050565b610fbf81610faa565b82525050565b6000604082019050610fda6000830185610f9b565b610fe76020830184610fb6565b9392505050565b610ff781610ec8565b82525050565b60006020820190506110126000830184610fee565b92915050565b6000819050919050565b61102b81611018565b811461103657600080fd5b50565b60008135905061104881611022565b92915050565b60006020828403121561106457611063610e9e565b5b600061107284828501611039565b91505092915050565b61108481611018565b82525050565b600081519050919050565b600082825260208201905092915050565b60005b838110156110c45780820151818401526020810190506110a9565b60008484015250505050565b6000601f19601f8301169050919050565b60006110ec8261108a565b6110f68185611095565b93506111068185602086016110a6565b61110f816110d0565b840191505092915050565b600060a08201905061112f600083018861107b565b818103602083015261114181876110e1565b9050611150604083018661107b565b818103606083015261116281856110e1565b90506111716080830184610fee565b9695505050505050565b6004811061118857600080fd5b50565b60008135905061119a8161117b565b92915050565b600080604083850312156111b7576111b6610e9e565b5b60006111c585828601610ef1565b92505060206111d68582860161118b565b9150509250929050565b600081519050919050565b600082825260208201905092915050565b6000819050602082019050919050565b61121581610ec8565b82525050565b6000611227838361120c565b60208301905092915050565b6000602082019050919050565b600061124b826111e0565b61125581856111eb565b9350611260836111fc565b8060005b83811015611291578151611278888261121b565b975061128383611233565b925050600181019050611264565b5085935050505092915050565b600060a08201905081810360008301526112b881886110e1565b90506112c7602083018761107b565b81810360408301526112d981866110e1565b90506112e86060830185610fee565b81810360808301526112fa8184611240565b90509695505050505050565b600080fd5b600080fd5b600080fd5b60008083601f84011261132b5761132a611306565b5b8235905067ffffffffffffffff8111156113485761134761130b565b5b60208301915083600182028301111561136457611363611310565b5b9250929050565b60008060008060006060868803121561138757611386610e9e565b5b600086013567ffffffffffffffff8111156113a5576113a4610ea3565b5b6113b188828901611315565b955095505060206113c488828901611039565b935050604086013567ffffffffffffffff8111156113e5576113e4610ea3565b5b6113f188828901611315565b92509250509295509295909350565b7f4e487b7100000000000000000000000000000000000000000000000000000000600052602260045260246000fd5b6000600282049050600182168061144757607f821691505b60208210810361145a57611459611400565b5b50919050565b60006040820190506114756000830185610fee565b6114826020830184610f9b565b9392505050565b7f4163746f72206e6f7420656e61626c6564000000000000000000000000000000600082015250565b60006114bf601183611095565b91506114ca82611489565b602082019050919050565b600060208201905081810360008301526114ee816114b2565b9050919050565b7f4163746f72277320726f6c65206d7573742062652050726f6475636572000000600082015250565b600061152b601d83611095565b9150611536826114f5565b602082019050919050565b6000602082019050818103600083015261155a8161151e565b9050919050565b600082905092915050565b7f4e487b7100000000000000000000000000000000000000000000000000000000600052604160045260246000fd5b60008190508160005260206000209050919050565b60006020601f8301049050919050565b600082821b905092915050565b6000600883026115fd7fffffffffffffffffffffffffffffffffffffffffffffffffffffffffffffffff826115c0565b61160786836115c0565b95508019841693508086168417925050509392505050565b6000819050919050565b600061164461163f61163a84611018565b61161f565b611018565b9050919050565b6000819050919050565b61165e83611629565b61167261166a8261164b565b8484546115cd565b825550505050565b600090565b61168761167a565b611692818484611655565b505050565b5b818110156116b6576116ab60008261167f565b600181019050611698565b5050565b601f8211156116fb576116cc8161159b565b6116d5846115b0565b810160208510156116e4578190505b6116f86116f0856115b0565b830182611697565b50505b505050565b600082821c905092915050565b600061171e60001984600802611700565b1980831691505092915050565b6000611737838361170d565b9150826002028217905092915050565b6117518383611561565b67ffffffffffffffff81111561176a5761176961156c565b5b611774825461142f565b61177f8282856116ba565b6000601f8311600181146117ae576000841561179c578287013590505b6117a6858261172b565b86555061180e565b601f1984166117bc8661159b565b60005b828110156117e4578489013582556001820191506020850194506020810190506117bf565b8683101561180157848901356117fd601f89168261170d565b8355505b6001600288020188555050505b50505050505050565b7f4e487b7100000000000000000000000000000000000000000000000000000000600052601160045260246000fd5b600061185182611018565b915061185c83611018565b925082820190508082111561187457611873611817565b5b92915050565b600060208201905061188f600083018461107b565b92915050565b60006020820190506118aa6000830184610fb6565b92915050565b7f4e487b7100000000000000000000000000000000000000000000000000000000600052605160045260246000fdfea264697066735822122080f38d3369f3d40b7b9a719e3cce8d330cff6950cbfd3b40ea1b5c51e4e8b93b64736f6c63430008140033",
  "linkReferences": {},
  "deployedLinkReferences": {}
}