{
  "_format": "hh-sol-artifact-1",
  "contractName": "SupplyChainTracking",
  "sourceName": "contracts/SupplyChainTracking.sol",
  "abi": [
    {
      "inputs": [],
      "stateMutability": "nonpayable",
      "type": "constructor"
    },
    {
      "inputs": [],
      "name": "OnlyAssetOwner",
      "type": "error"
    },
    {
      "inputs": [
        {
          "internalType": "address",
          "name": "owner",
          "type": "address"
        }
      ],
      "name": "OwnableInvalidOwner",
      "type": "error"
    },
    {
      "inputs": [
        {
          "internalType": "address",
          "name": "account",
          "type": "address"
        }
      ],
      "name": "OwnableUnauthorizedAccount",
      "type": "error"
    },
    {
      "anonymous": false,
      "inputs": [
        {
          "indexed": false,
          "internalType": "address",
          "name": "actor",
          "type": "address"
        }
      ],
      "name": "ActorDisabled",
      "type": "event"
    },
    {
      "anonymous": false,
      "inputs": [
        {
          "indexed": false,
          "internalType": "address",
          "name": "actor",
          "type": "address"
        },
        {
          "indexed": false,
          "internalType": "enum SupplyChainTracking.Role",
          "name": "role",
          "type": "uint8"
        }
      ],
      "name": "ActorRegistered",
      "type": "event"
    },
    {
      "anonymous": false,
      "inputs": [
        {
          "indexed": false,
          "internalType": "uint256",
          "name": "productId",
          "type": "uint256"
        }
      ],
      "name": "AssetRegistered",
      "type": "event"
    },
    {
      "anonymous": false,
      "inputs": [
        {
          "indexed": false,
          "internalType": "uint256",
          "name": "productId",
          "type": "uint256"
        },
        {
          "indexed": false,
          "internalType": "address",
          "name": "_from",
          "type": "address"
        },
        {
          "indexed": false,
          "internalType": "address",
          "name": "_to",
          "type": "address"
        }
      ],
      "name": "AssetTransfered",
      "type": "event"
    },
    {
      "anonymous": false,
      "inputs": [
        {
          "indexed": true,
          "internalType": "address",
          "name": "previousOwner",
          "type": "address"
        },
        {
          "indexed": true,
          "internalType": "address",
          "name": "newOwner",
          "type": "address"
        }
      ],
      "name": "OwnershipTransferred",
      "type": "event"
    },
    {
      "inputs": [
        {
          "internalType": "address",
          "name": "",
          "type": "address"
        }
      ],
      "name": "actors",
      "outputs": [
        {
          "internalType": "enum SupplyChainTracking.Role",
          "name": "role",
          "type": "uint8"
        },
        {
          "internalType": "bool",
          "name": "active",
          "type": "bool"
        }
      ],
      "stateMutability": "view",
      "type": "function"
    },
    {
      "inputs": [
        {
          "internalType": "uint256",
          "name": "",
          "type": "uint256"
        }
      ],
      "name": "assets",
      "outputs": [
        {
          "internalType": "uint256",
          "name": "productId",
          "type": "uint256"
        },
        {
          "internalType": "string",
          "name": "productType",
          "type": "string"
        },
        {
          "internalType": "uint256",
          "name": "productionDate",
          "type": "uint256"
        },
        {
          "internalType": "string",
          "name": "origin",
          "type": "string"
        },
        {
          "internalType": "address",
          "name": "currentHolder",
          "type": "address"
        }
      ],
      "stateMutability": "view",
      "type": "function"
    },
    {
      "inputs": [
        {
          "internalType": "address",
          "name": "_actor",
          "type": "address"
        }
      ],
      "name": "disableActor",
      "outputs": [],
      "stateMutability": "nonpayable",
      "type": "function"
    },
    {
      "inputs": [
        {
          "internalType": "address",
          "name": "_actor",
          "type": "address"
        }
      ],
      "name": "getActor",
      "outputs": [
        {
          "internalType": "enum SupplyChainTracking.Role",
          "name": "",
          "type": "uint8"
        },
        {
          "internalType": "bool",
          "name": "",
          "type": "bool"
        }
      ],
      "stateMutability": "view",
      "type": "function"
    },
    {
      "inputs": [
        {
          "internalType": "uint256",
          "name": "_assetId",
          "type": "uint256"
        }
      ],
      "name": "getAsset",
      "outputs": [
        {
          "internalType": "string",
          "name": "",
          "type": "string"
        },
        {
          "internalType": "uint256",
          "name": "",
          "type": "uint256"
        },
        {
          "internalType": "string",
          "name": "",
          "type": "string"
        },
        {
          "internalType": "address",
          "name": "",
          "type": "address"
        },
        {
          "internalType": "address[]",
          "name": "",
          "type": "address[]"
        }
      ],
      "stateMutability": "view",
      "type": "function"
    },
    {
      "inputs": [],
      "name": "getTotalAssetNumber",
      "outputs": [
        {
          "internalType": "uint256",
          "name": "",
          "type": "uint256"
        }
      ],
      "stateMutability": "view",
      "type": "function"
    },
    {
      "inputs": [],
      "name": "owner",
      "outputs": [
        {
          "internalType": "address",
          "name": "",
          "type": "address"
        }
      ],
      "stateMutability": "view",
      "type": "function"
    },
    {
      "inputs": [
        {
          "internalType": "address",
          "name": "_actor",
          "type": "address"
        },
        {
          "internalType": "enum SupplyChainTracking.Role",
          "name": "_role",
          "type": "uint8"
        }
      ],
      "name": "registerActor",
      "outputs": [],
      "stateMutability": "nonpayable",
      "type": "function"
    },
    {
      "inputs": [
        {
          "internalType": "string",
          "name": "_productType",
          "type": "string"
        },
        {
          "internalType": "uint256",
          "name": "_productionDate",
          "type": "uint256"
        },
        {
          "internalType": "string",
          "name": "_origin",
          "type": "string"
        }
      ],
      "name": "registerAsset",
      "outputs": [],
      "stateMutability": "nonpayable",
      "type": "function"
    },
    {
      "inputs": [],
      "name": "renounceOwnership",
      "outputs": [],
      "stateMutability": "nonpayable",
      "type": "function"
    },
    {
      "inputs": [
        {
          "internalType": "uint256",
          "name": "_assetId",
          "type": "uint256"
        },
        {
          "internalType": "address",
          "name": "_newHolder",
          "type": "address"
        }
      ],
      "name": "transferAsset",
      "outputs": [],
      "stateMutability": "nonpayable",
      "type": "function"
    },
    {
      "inputs": [
        {
          "internalType": "address",
          "name": "newOwner",
          "type": "address"
        }
      ],
      "name": "transferOwnership",
      "outputs": [],
      "stateMutability": "nonpayable",
      "type": "function"
    }
  ],
  "bytecode": "0x60806040523480156200001157600080fd5b5033600073ffffffffffffffffffffffffffffffffffffffff168173ffffffffffffffffffffffffffffffffffffffff1603620000885760006040517f1e4fbdf70000000000000000000000000000000000000000000000000000000081526004016200007f9190620001b0565b60405180910390fd5b6200009981620000a760201b60201c565b5060018081905550620001cd565b60008060009054906101000a900473ffffffffffffffffffffffffffffffffffffffff169050816000806101000a81548173ffffffffffffffffffffffffffffffffffffffff021916908373ffffffffffffffffffffffffffffffffffffffff1602179055508173ffffffffffffffffffffffffffffffffffffffff168173ffffffffffffffffffffffffffffffffffffffff167f8be0079c531659141344cd1fd0a4f28419497f9722a3daafe3b4186f6b6457e060405160405180910390a35050565b600073ffffffffffffffffffffffffffffffffffffffff82169050919050565b600062000198826200016b565b9050919050565b620001aa816200018b565b82525050565b6000602082019050620001c760008301846200019f565b92915050565b611f6380620001dd6000396000f3fe608060405234801561001057600080fd5b50600436106100b45760003560e01c8063de7ac99111610071578063de7ac99114610180578063eaa66a3c1461019c578063eac8f5b8146101cd578063f2fde38b14610201578063f742c5b01461021d578063fa62ee8d14610239576100b4565b80634138d167146100b957806343247d03146100ea578063715018a6146101085780638da5cb5b14610112578063cf35bdd014610130578063d5cbe15714610164575b600080fd5b6100d360048036038101906100ce91906112db565b610255565b6040516100e192919061139a565b60405180910390f35b6100f2610309565b6040516100ff91906113dc565b60405180910390f35b61011061031e565b005b61011a610332565b6040516101279190611406565b60405180910390f35b61014a6004803603810190610145919061144d565b61035b565b60405161015b95949392919061150a565b60405180910390f35b61017e600480360381019061017991906112db565b6104c1565b005b61019a60048036038101906101959190611590565b61055e565b005b6101b660048036038101906101b191906112db565b61065f565b6040516101c492919061139a565b60405180910390f35b6101e760048036038101906101e2919061144d565b61069d565b6040516101f895949392919061168e565b60405180910390f35b61021b600480360381019061021691906112db565b61093b565b005b6102376004803603810190610232919061175b565b6109c1565b005b610253600480360381019061024e91906117f0565b610cc0565b005b600080610260611120565b600260008473ffffffffffffffffffffffffffffffffffffffff1673ffffffffffffffffffffffffffffffffffffffff16815260200190815260200160002060000160009054906101000a900460ff16600260008573ffffffffffffffffffffffffffffffffffffffff1673ffffffffffffffffffffffffffffffffffffffff16815260200190815260200160002060000160019054906101000a900460ff1691509150915091565b600060018054610319919061185f565b905090565b610326611120565b61033060006111a7565b565b60008060009054906101000a900473ffffffffffffffffffffffffffffffffffffffff16905090565b6003602052806000526040600020600091509050806000015490806001018054610384906118c2565b80601f01602080910402602001604051908101604052809291908181526020018280546103b0906118c2565b80156103fd5780601f106103d2576101008083540402835291602001916103fd565b820191906000526020600020905b8154815290600101906020018083116103e057829003601f168201915b505050505090806002015490806003018054610418906118c2565b80601f0160208091040260200160405190810160405280929190818152602001828054610444906118c2565b80156104915780601f1061046657610100808354040283529160200191610491565b820191906000526020600020905b81548152906001019060200180831161047457829003601f168201915b5050505050908060040160009054906101000a900473ffffffffffffffffffffffffffffffffffffffff16905085565b6104c9611120565b6000600260008373ffffffffffffffffffffffffffffffffffffffff1673ffffffffffffffffffffffffffffffffffffffff16815260200190815260200160002060000160016101000a81548160ff0219169083151502179055507f6104c637b94c6924ba582f11d228cf3203eb42d40b94a3ab64e60006032a93d5816040516105539190611406565b60405180910390a150565b610566611120565b604051806040016040528082600381111561058457610583611308565b5b815260200160011515815250600260008473ffffffffffffffffffffffffffffffffffffffff1673ffffffffffffffffffffffffffffffffffffffff16815260200190815260200160002060008201518160000160006101000a81548160ff021916908360038111156105fa576105f9611308565b5b021790555060208201518160000160016101000a81548160ff0219169083151502179055509050507f9d298435d839e75ea5c40e98fc6aa208cc7c2a9ba6ffb5d9703e179bcf1b248e82826040516106539291906118f3565b60405180910390a15050565b60026020528060005260406000206000915090508060000160009054906101000a900460ff16908060000160019054906101000a900460ff16905082565b60606000606060006060600186101580156106b9575060015486105b6106f8576040517f08c379a00000000000000000000000000000000000000000000000000000000081526004016106ef9061198e565b60405180910390fd5b60036000878152602001908152602001600020600101600360008881526020019081526020016000206002015460036000898152602001908152602001600020600301600360008a815260200190815260200160002060040160009054906101000a900473ffffffffffffffffffffffffffffffffffffffff16600360008b8152602001908152602001600020600501848054610794906118c2565b80601f01602080910402602001604051908101604052809291908181526020018280546107c0906118c2565b801561080d5780601f106107e25761010080835404028352916020019161080d565b820191906000526020600020905b8154815290600101906020018083116107f057829003601f168201915b50505050509450828054610820906118c2565b80601f016020809104026020016040519081016040528092919081815260200182805461084c906118c2565b80156108995780601f1061086e57610100808354040283529160200191610899565b820191906000526020600020905b81548152906001019060200180831161087c57829003601f168201915b505050505092508080548060200260200160405190810160405280929190818152602001828054801561092157602002820191906000526020600020905b8160009054906101000a900473ffffffffffffffffffffffffffffffffffffffff1673ffffffffffffffffffffffffffffffffffffffff16815260200190600101908083116108d7575b505050505090509450945094509450945091939590929450565b610943611120565b600073ffffffffffffffffffffffffffffffffffffffff168173ffffffffffffffffffffffffffffffffffffffff16036109b55760006040517f1e4fbdf70000000000000000000000000000000000000000000000000000000081526004016109ac9190611406565b60405180910390fd5b6109be816111a7565b50565b600033905060011515600260008373ffffffffffffffffffffffffffffffffffffffff1673ffffffffffffffffffffffffffffffffffffffff16815260200190815260200160002060000160019054906101000a900460ff16151514610a5c576040517f08c379a0000000000000000000000000000000000000000000000000000000008152600401610a53906119fa565b60405180910390fd5b60006003811115610a7057610a6f611308565b5b600260008373ffffffffffffffffffffffffffffffffffffffff1673ffffffffffffffffffffffffffffffffffffffff16815260200190815260200160002060000160009054906101000a900460ff166003811115610ad257610ad1611308565b5b14610b12576040517f08c379a0000000000000000000000000000000000000000000000000000000008152600401610b0990611a66565b60405180910390fd5b600060015490508060036000838152602001908152602001600020600001819055508686600360008481526020019081526020016000206001019182610b59929190611c6c565b508460036000838152602001908152602001600020600201819055508383600360008481526020019081526020016000206003019182610b9a929190611c6c565b50816003600083815260200190815260200160002060040160006101000a81548173ffffffffffffffffffffffffffffffffffffffff021916908373ffffffffffffffffffffffffffffffffffffffff16021790555060036000828152602001908152602001600020600501829080600181540180825580915050600190039060005260206000200160009091909190916101000a81548173ffffffffffffffffffffffffffffffffffffffff021916908373ffffffffffffffffffffffffffffffffffffffff1602179055506001806000828254610c799190611d3c565b925050819055507fcc7b4929606ce963ba54b6a998f106f7748e78c03dc7f08fd77aeb28230eb2d381604051610caf91906113dc565b60405180910390a150505050505050565b813373ffffffffffffffffffffffffffffffffffffffff166003600083815260200190815260200160002060040160009054906101000a900473ffffffffffffffffffffffffffffffffffffffff1673ffffffffffffffffffffffffffffffffffffffff1614610d5c576040517f1d08eb6400000000000000000000000000000000000000000000000000000000815260040160405180910390fd5b600033905060018410158015610d73575060015484105b610db2576040517f08c379a0000000000000000000000000000000000000000000000000000000008152600401610da99061198e565b60405180910390fd5b60011515600260008573ffffffffffffffffffffffffffffffffffffffff1673ffffffffffffffffffffffffffffffffffffffff16815260200190815260200160002060000160019054906101000a900460ff16151514610e48576040517f08c379a0000000000000000000000000000000000000000000000000000000008152600401610e3f90611dbc565b60405180910390fd5b600380811115610e5b57610e5a611308565b5b600260008373ffffffffffffffffffffffffffffffffffffffff1673ffffffffffffffffffffffffffffffffffffffff16815260200190815260200160002060000160009054906101000a900460ff166003811115610ebd57610ebc611308565b5b03610efd576040517f08c379a0000000000000000000000000000000000000000000000000000000008152600401610ef490611e28565b60405180910390fd5b6001600260008373ffffffffffffffffffffffffffffffffffffffff1673ffffffffffffffffffffffffffffffffffffffff16815260200190815260200160002060000160009054906101000a900460ff166003811115610f6157610f60611308565b5b610f6b9190611e55565b60ff16600260008573ffffffffffffffffffffffffffffffffffffffff1673ffffffffffffffffffffffffffffffffffffffff16815260200190815260200160002060000160009054906101000a900460ff166003811115610fd057610fcf611308565b5b60ff1614611013576040517f08c379a000000000000000000000000000000000000000000000000000000000815260040161100a90611ed6565b60405180910390fd5b826003600086815260200190815260200160002060040160006101000a81548173ffffffffffffffffffffffffffffffffffffffff021916908373ffffffffffffffffffffffffffffffffffffffff16021790555060036000858152602001908152602001600020600501839080600181540180825580915050600190039060005260206000200160009091909190916101000a81548173ffffffffffffffffffffffffffffffffffffffff021916908373ffffffffffffffffffffffffffffffffffffffff1602179055507ffb1218ff291ccbefa25b58131603cc93001ff09f257940a8896e43c4d36b446e84828560405161111293929190611ef6565b60405180910390a150505050565b61112861126b565b73ffffffffffffffffffffffffffffffffffffffff16611146610332565b73ffffffffffffffffffffffffffffffffffffffff16146111a55761116961126b565b6040517f118cdaa700000000000000000000000000000000000000000000000000000000815260040161119c9190611406565b60405180910390fd5b565b60008060009054906101000a900473ffffffffffffffffffffffffffffffffffffffff169050816000806101000a81548173ffffffffffffffffffffffffffffffffffffffff021916908373ffffffffffffffffffffffffffffffffffffffff1602179055508173ffffffffffffffffffffffffffffffffffffffff168173ffffffffffffffffffffffffffffffffffffffff167f8be0079c531659141344cd1fd0a4f28419497f9722a3daafe3b4186f6b6457e060405160405180910390a35050565b600033905090565b600080fd5b600080fd5b600073ffffffffffffffffffffffffffffffffffffffff82169050919050565b60006112a88261127d565b9050919050565b6112b88161129d565b81146112c357600080fd5b50565b6000813590506112d5816112af565b92915050565b6000602082840312156112f1576112f0611273565b5b60006112ff848285016112c6565b91505092915050565b7f4e487b7100000000000000000000000000000000000000000000000000000000600052602160045260246000fd5b6004811061134857611347611308565b5b50565b600081905061135982611337565b919050565b60006113698261134b565b9050919050565b6113798161135e565b82525050565b60008115159050919050565b6113948161137f565b82525050565b60006040820190506113af6000830185611370565b6113bc602083018461138b565b9392505050565b6000819050919050565b6113d6816113c3565b82525050565b60006020820190506113f160008301846113cd565b92915050565b6114008161129d565b82525050565b600060208201905061141b60008301846113f7565b92915050565b61142a816113c3565b811461143557600080fd5b50565b60008135905061144781611421565b92915050565b60006020828403121561146357611462611273565b5b600061147184828501611438565b91505092915050565b600081519050919050565b600082825260208201905092915050565b60005b838110156114b4578082015181840152602081019050611499565b60008484015250505050565b6000601f19601f8301169050919050565b60006114dc8261147a565b6114e68185611485565b93506114f6818560208601611496565b6114ff816114c0565b840191505092915050565b600060a08201905061151f60008301886113cd565b818103602083015261153181876114d1565b905061154060408301866113cd565b818103606083015261155281856114d1565b905061156160808301846113f7565b9695505050505050565b6004811061157857600080fd5b50565b60008135905061158a8161156b565b92915050565b600080604083850312156115a7576115a6611273565b5b60006115b5858286016112c6565b92505060206115c68582860161157b565b9150509250929050565b600081519050919050565b600082825260208201905092915050565b6000819050602082019050919050565b6116058161129d565b82525050565b600061161783836115fc565b60208301905092915050565b6000602082019050919050565b600061163b826115d0565b61164581856115db565b9350611650836115ec565b8060005b83811015611681578151611668888261160b565b975061167383611623565b925050600181019050611654565b5085935050505092915050565b600060a08201905081810360008301526116a881886114d1565b90506116b760208301876113cd565b81810360408301526116c981866114d1565b90506116d860608301856113f7565b81810360808301526116ea8184611630565b90509695505050505050565b600080fd5b600080fd5b600080fd5b60008083601f84011261171b5761171a6116f6565b5b8235905067ffffffffffffffff811115611738576117376116fb565b5b60208301915083600182028301111561175457611753611700565b5b9250929050565b60008060008060006060868803121561177757611776611273565b5b600086013567ffffffffffffffff81111561179557611794611278565b5b6117a188828901611705565b955095505060206117b488828901611438565b935050604086013567ffffffffffffffff8111156117d5576117d4611278565b5b6117e188828901611705565b92509250509295509295909350565b6000806040838503121561180757611806611273565b5b600061181585828601611438565b9250506020611826858286016112c6565b9150509250929050565b7f4e487b7100000000000000000000000000000000000000000000000000000000600052601160045260246000fd5b600061186a826113c3565b9150611875836113c3565b925082820390508181111561188d5761188c611830565b5b92915050565b7f4e487b7100000000000000000000000000000000000000000000000000000000600052602260045260246000fd5b600060028204905060018216806118da57607f821691505b6020821081036118ed576118ec611893565b5b50919050565b600060408201905061190860008301856113f7565b6119156020830184611370565b9392505050565b7f4173736574204944206d7573742062652077697468696e2076616c696420726160008201527f6e67650000000000000000000000000000000000000000000000000000000000602082015250565b6000611978602383611485565b91506119838261191c565b604082019050919050565b600060208201905081810360008301526119a78161196b565b9050919050565b7f4163746f72206e6f7420656e61626c6564000000000000000000000000000000600082015250565b60006119e4601183611485565b91506119ef826119ae565b602082019050919050565b60006020820190508181036000830152611a13816119d7565b9050919050565b7f4163746f72277320726f6c65206d7573742062652050726f6475636572000000600082015250565b6000611a50601d83611485565b9150611a5b82611a1a565b602082019050919050565b60006020820190508181036000830152611a7f81611a43565b9050919050565b600082905092915050565b7f4e487b7100000000000000000000000000000000000000000000000000000000600052604160045260246000fd5b60008190508160005260206000209050919050565b60006020601f8301049050919050565b600082821b905092915050565b600060088302611b227fffffffffffffffffffffffffffffffffffffffffffffffffffffffffffffffff82611ae5565b611b2c8683611ae5565b95508019841693508086168417925050509392505050565b6000819050919050565b6000611b69611b64611b5f846113c3565b611b44565b6113c3565b9050919050565b6000819050919050565b611b8383611b4e565b611b97611b8f82611b70565b848454611af2565b825550505050565b600090565b611bac611b9f565b611bb7818484611b7a565b505050565b5b81811015611bdb57611bd0600082611ba4565b600181019050611bbd565b5050565b601f821115611c2057611bf181611ac0565b611bfa84611ad5565b81016020851015611c09578190505b611c1d611c1585611ad5565b830182611bbc565b50505b505050565b600082821c905092915050565b6000611c4360001984600802611c25565b1980831691505092915050565b6000611c5c8383611c32565b9150826002028217905092915050565b611c768383611a86565b67ffffffffffffffff811115611c8f57611c8e611a91565b5b611c9982546118c2565b611ca4828285611bdf565b6000601f831160018114611cd35760008415611cc1578287013590505b611ccb8582611c50565b865550611d33565b601f198416611ce186611ac0565b60005b82811015611d0957848901358255600182019150602085019450602081019050611ce4565b86831015611d265784890135611d22601f891682611c32565b8355505b6001600288020188555050505b50505050505050565b6000611d47826113c3565b9150611d52836113c3565b9250828201905080821115611d6a57611d69611830565b5b92915050565b7f4e657874206f776e6572206973206e6f742076616c6964000000000000000000600082015250565b6000611da6601783611485565b9150611db182611d70565b602082019050919050565b60006020820190508181036000830152611dd581611d99565b9050919050565b7f436f6e73756d65722063616e206e6f74207472616e7366657220617373657400600082015250565b6000611e12601f83611485565b9150611e1d82611ddc565b602082019050919050565b60006020820190508181036000830152611e4181611e05565b9050919050565b600060ff82169050919050565b6000611e6082611e48565b9150611e6b83611e48565b9250828201905060ff811115611e8457611e83611830565b5b92915050565b7f57726f6e67206e657874206f776e657220726f6c650000000000000000000000600082015250565b6000611ec0601583611485565b9150611ecb82611e8a565b602082019050919050565b60006020820190508181036000830152611eef81611eb3565b9050919050565b6000606082019050611f0b60008301866113cd565b611f1860208301856113f7565b611f2560408301846113f7565b94935050505056fea264697066735822122000bc2445cfb7cac02e2ead90cae198af9aede13cb102dabb353b1414a7d9ddb764736f6c63430008140033",
  "linkReferences": {},
  "deployedLinkReferences": {}
}