{
  "_format": "hh-sol-artifact-1",
  "contractName": "SupplyChainTracking",
  "sourceName": "contracts/SupplyChainTracking.sol",
  "abi": [
    {
      "inputs": [],
      "stateMutability": "nonpayable",
      "type": "constructor"
    },
    {
      "inputs": [
        {
          "internalType": "address",
          "name": "owner",
          "type": "address"
        }
      ],
      "name": "OwnableInvalidOwner",
      "type": "error"
    },
    {
      "inputs": [
        {
          "internalType": "address",
          "name": "account",
          "type": "address"
        }
      ],
      "name": "OwnableUnauthorizedAccount",
      "type": "error"
    },
    {
      "anonymous": false,
      "inputs": [
        {
          "indexed": false,
          "internalType": "address",
          "name": "actor",
          "type": "address"
        }
      ],
      "name": "ActorDisabled",
      "type": "event"
    },
    {
      "anonymous": false,
      "inputs": [
        {
          "indexed": false,
          "internalType": "address",
          "name": "actor",
          "type": "address"
        },
        {
          "indexed": false,
          "internalType": "enum SupplyChainTracking.Role",
          "name": "role",
          "type": "uint8"
        }
      ],
      "name": "ActorRegistered",
      "type": "event"
    },
    {
      "anonymous": false,
      "inputs": [
        {
          "indexed": true,
          "internalType": "address",
          "name": "previousOwner",
          "type": "address"
        },
        {
          "indexed": true,
          "internalType": "address",
          "name": "newOwner",
          "type": "address"
        }
      ],
      "name": "OwnershipTransferred",
      "type": "event"
    },
    {
      "inputs": [
        {
          "internalType": "address",
          "name": "_actor",
          "type": "address"
        }
      ],
      "name": "disableActor",
      "outputs": [],
      "stateMutability": "nonpayable",
      "type": "function"
    },
    {
      "inputs": [],
      "name": "owner",
      "outputs": [
        {
          "internalType": "address",
          "name": "",
          "type": "address"
        }
      ],
      "stateMutability": "view",
      "type": "function"
    },
    {
      "inputs": [
        {
          "internalType": "address",
          "name": "_actor",
          "type": "address"
        },
        {
          "internalType": "enum SupplyChainTracking.Role",
          "name": "_role",
          "type": "uint8"
        }
      ],
      "name": "registerActor",
      "outputs": [],
      "stateMutability": "nonpayable",
      "type": "function"
    },
    {
      "inputs": [],
      "name": "renounceOwnership",
      "outputs": [],
      "stateMutability": "nonpayable",
      "type": "function"
    },
    {
      "inputs": [
        {
          "internalType": "address",
          "name": "newOwner",
          "type": "address"
        }
      ],
      "name": "transferOwnership",
      "outputs": [],
      "stateMutability": "nonpayable",
      "type": "function"
    }
  ],
  "bytecode": "0x608060405234801561001057600080fd5b5033600073ffffffffffffffffffffffffffffffffffffffff168173ffffffffffffffffffffffffffffffffffffffff16036100845760006040517f1e4fbdf700000000000000000000000000000000000000000000000000000000815260040161007b919061019e565b60405180910390fd5b6100938161009960201b60201c565b506101b9565b60008060009054906101000a900473ffffffffffffffffffffffffffffffffffffffff169050816000806101000a81548173ffffffffffffffffffffffffffffffffffffffff021916908373ffffffffffffffffffffffffffffffffffffffff1602179055508173ffffffffffffffffffffffffffffffffffffffff168173ffffffffffffffffffffffffffffffffffffffff167f8be0079c531659141344cd1fd0a4f28419497f9722a3daafe3b4186f6b6457e060405160405180910390a35050565b600073ffffffffffffffffffffffffffffffffffffffff82169050919050565b60006101888261015d565b9050919050565b6101988161017d565b82525050565b60006020820190506101b3600083018461018f565b92915050565b610681806101c86000396000f3fe608060405234801561001057600080fd5b50600436106100575760003560e01c8063715018a61461005c5780638da5cb5b14610066578063d5cbe15714610084578063de7ac991146100a0578063f2fde38b146100bc575b600080fd5b6100646100d8565b005b61006e6100ec565b60405161007b91906104cd565b60405180910390f35b61009e60048036038101906100999190610519565b610115565b005b6100ba60048036038101906100b5919061056b565b6101b2565b005b6100d660048036038101906100d19190610519565b6102b3565b005b6100e0610339565b6100ea60006103c0565b565b60008060009054906101000a900473ffffffffffffffffffffffffffffffffffffffff16905090565b61011d610339565b6000600160008373ffffffffffffffffffffffffffffffffffffffff1673ffffffffffffffffffffffffffffffffffffffff16815260200190815260200160002060000160016101000a81548160ff0219169083151502179055507f6104c637b94c6924ba582f11d228cf3203eb42d40b94a3ab64e60006032a93d5816040516101a791906104cd565b60405180910390a150565b6101ba610339565b60405180604001604052808260038111156101d8576101d76105ab565b5b815260200160011515815250600160008473ffffffffffffffffffffffffffffffffffffffff1673ffffffffffffffffffffffffffffffffffffffff16815260200190815260200160002060008201518160000160006101000a81548160ff0219169083600381111561024e5761024d6105ab565b5b021790555060208201518160000160016101000a81548160ff0219169083151502179055509050507f9d298435d839e75ea5c40e98fc6aa208cc7c2a9ba6ffb5d9703e179bcf1b248e82826040516102a7929190610622565b60405180910390a15050565b6102bb610339565b600073ffffffffffffffffffffffffffffffffffffffff168173ffffffffffffffffffffffffffffffffffffffff160361032d5760006040517f1e4fbdf700000000000000000000000000000000000000000000000000000000815260040161032491906104cd565b60405180910390fd5b610336816103c0565b50565b610341610484565b73ffffffffffffffffffffffffffffffffffffffff1661035f6100ec565b73ffffffffffffffffffffffffffffffffffffffff16146103be57610382610484565b6040517f118cdaa70000000000000000000000000000000000000000000000000000000081526004016103b591906104cd565b60405180910390fd5b565b60008060009054906101000a900473ffffffffffffffffffffffffffffffffffffffff169050816000806101000a81548173ffffffffffffffffffffffffffffffffffffffff021916908373ffffffffffffffffffffffffffffffffffffffff1602179055508173ffffffffffffffffffffffffffffffffffffffff168173ffffffffffffffffffffffffffffffffffffffff167f8be0079c531659141344cd1fd0a4f28419497f9722a3daafe3b4186f6b6457e060405160405180910390a35050565b600033905090565b600073ffffffffffffffffffffffffffffffffffffffff82169050919050565b60006104b78261048c565b9050919050565b6104c7816104ac565b82525050565b60006020820190506104e260008301846104be565b92915050565b600080fd5b6104f6816104ac565b811461050157600080fd5b50565b600081359050610513816104ed565b92915050565b60006020828403121561052f5761052e6104e8565b5b600061053d84828501610504565b91505092915050565b6004811061055357600080fd5b50565b60008135905061056581610546565b92915050565b60008060408385031215610582576105816104e8565b5b600061059085828601610504565b92505060206105a185828601610556565b9150509250929050565b7f4e487b7100000000000000000000000000000000000000000000000000000000600052602160045260246000fd5b600481106105eb576105ea6105ab565b5b50565b60008190506105fc826105da565b919050565b600061060c826105ee565b9050919050565b61061c81610601565b82525050565b600060408201905061063760008301856104be565b6106446020830184610613565b939250505056fea2646970667358221220cfb9106ffeeafd8c2c1928934930920d792675f10a205ca46a0dd1f424186d2a64736f6c63430008140033",
  "linkReferences": {},
  "deployedLinkReferences": {}
}