{
  "_format": "hh-sol-artifact-1",
  "contractName": "SupplyChainTracking",
  "sourceName": "contracts/SupplyChainTracking.sol",
  "abi": [
    {
      "inputs": [],
      "stateMutability": "nonpayable",
      "type": "constructor"
    },
    {
      "inputs": [
        {
          "internalType": "address",
          "name": "owner",
          "type": "address"
        }
      ],
      "name": "OwnableInvalidOwner",
      "type": "error"
    },
    {
      "inputs": [
        {
          "internalType": "address",
          "name": "account",
          "type": "address"
        }
      ],
      "name": "OwnableUnauthorizedAccount",
      "type": "error"
    },
    {
      "anonymous": false,
      "inputs": [
        {
          "indexed": false,
          "internalType": "address",
          "name": "actor",
          "type": "address"
        }
      ],
      "name": "ActorDisabled",
      "type": "event"
    },
    {
      "anonymous": false,
      "inputs": [
        {
          "indexed": false,
          "internalType": "address",
          "name": "actor",
          "type": "address"
        },
        {
          "indexed": false,
          "internalType": "enum SupplyChainTracking.Role",
          "name": "role",
          "type": "uint8"
        }
      ],
      "name": "ActorRegistered",
      "type": "event"
    },
    {
      "anonymous": false,
      "inputs": [
        {
          "indexed": true,
          "internalType": "address",
          "name": "previousOwner",
          "type": "address"
        },
        {
          "indexed": true,
          "internalType": "address",
          "name": "newOwner",
          "type": "address"
        }
      ],
      "name": "OwnershipTransferred",
      "type": "event"
    },
    {
      "inputs": [
        {
          "internalType": "address",
          "name": "",
          "type": "address"
        }
      ],
      "name": "actors",
      "outputs": [
        {
          "internalType": "enum SupplyChainTracking.Role",
          "name": "role",
          "type": "uint8"
        },
        {
          "internalType": "bool",
          "name": "active",
          "type": "bool"
        }
      ],
      "stateMutability": "view",
      "type": "function"
    },
    {
      "inputs": [
        {
          "internalType": "address",
          "name": "_actor",
          "type": "address"
        }
      ],
      "name": "disableActor",
      "outputs": [],
      "stateMutability": "nonpayable",
      "type": "function"
    },
    {
      "inputs": [
        {
          "internalType": "address",
          "name": "_actor",
          "type": "address"
        }
      ],
      "name": "getActor",
      "outputs": [
        {
          "internalType": "enum SupplyChainTracking.Role",
          "name": "",
          "type": "uint8"
        },
        {
          "internalType": "bool",
          "name": "",
          "type": "bool"
        }
      ],
      "stateMutability": "view",
      "type": "function"
    },
    {
      "inputs": [],
      "name": "owner",
      "outputs": [
        {
          "internalType": "address",
          "name": "",
          "type": "address"
        }
      ],
      "stateMutability": "view",
      "type": "function"
    },
    {
      "inputs": [
        {
          "internalType": "address",
          "name": "_actor",
          "type": "address"
        },
        {
          "internalType": "enum SupplyChainTracking.Role",
          "name": "_role",
          "type": "uint8"
        }
      ],
      "name": "registerActor",
      "outputs": [],
      "stateMutability": "nonpayable",
      "type": "function"
    },
    {
      "inputs": [],
      "name": "renounceOwnership",
      "outputs": [],
      "stateMutability": "nonpayable",
      "type": "function"
    },
    {
      "inputs": [
        {
          "internalType": "address",
          "name": "newOwner",
          "type": "address"
        }
      ],
      "name": "transferOwnership",
      "outputs": [],
      "stateMutability": "nonpayable",
      "type": "function"
    }
  ],
  "bytecode": "0x608060405234801561001057600080fd5b5033600073ffffffffffffffffffffffffffffffffffffffff168173ffffffffffffffffffffffffffffffffffffffff16036100845760006040517f1e4fbdf700000000000000000000000000000000000000000000000000000000815260040161007b919061019e565b60405180910390fd5b6100938161009960201b60201c565b506101b9565b60008060009054906101000a900473ffffffffffffffffffffffffffffffffffffffff169050816000806101000a81548173ffffffffffffffffffffffffffffffffffffffff021916908373ffffffffffffffffffffffffffffffffffffffff1602179055508173ffffffffffffffffffffffffffffffffffffffff168173ffffffffffffffffffffffffffffffffffffffff167f8be0079c531659141344cd1fd0a4f28419497f9722a3daafe3b4186f6b6457e060405160405180910390a35050565b600073ffffffffffffffffffffffffffffffffffffffff82169050919050565b60006101888261015d565b9050919050565b6101988161017d565b82525050565b60006020820190506101b3600083018461018f565b92915050565b61083f806101c86000396000f3fe608060405234801561001057600080fd5b506004361061007d5760003560e01c8063d5cbe1571161005b578063d5cbe157146100db578063de7ac991146100f7578063eaa66a3c14610113578063f2fde38b146101445761007d565b80634138d16714610082578063715018a6146100b35780638da5cb5b146100bd575b600080fd5b61009c60048036038101906100979190610669565b610160565b6040516100aa929190610728565b60405180910390f35b6100bb610214565b005b6100c5610228565b6040516100d29190610760565b60405180910390f35b6100f560048036038101906100f09190610669565b610251565b005b610111600480360381019061010c91906107a0565b6102ee565b005b61012d60048036038101906101289190610669565b6103ef565b60405161013b929190610728565b60405180910390f35b61015e60048036038101906101599190610669565b61042d565b005b60008061016b6104b3565b600260008473ffffffffffffffffffffffffffffffffffffffff1673ffffffffffffffffffffffffffffffffffffffff16815260200190815260200160002060000160009054906101000a900460ff16600260008573ffffffffffffffffffffffffffffffffffffffff1673ffffffffffffffffffffffffffffffffffffffff16815260200190815260200160002060000160019054906101000a900460ff1691509150915091565b61021c6104b3565b610226600061053a565b565b60008060009054906101000a900473ffffffffffffffffffffffffffffffffffffffff16905090565b6102596104b3565b6000600260008373ffffffffffffffffffffffffffffffffffffffff1673ffffffffffffffffffffffffffffffffffffffff16815260200190815260200160002060000160016101000a81548160ff0219169083151502179055507f6104c637b94c6924ba582f11d228cf3203eb42d40b94a3ab64e60006032a93d5816040516102e39190610760565b60405180910390a150565b6102f66104b3565b604051806040016040528082600381111561031457610313610696565b5b815260200160011515815250600260008473ffffffffffffffffffffffffffffffffffffffff1673ffffffffffffffffffffffffffffffffffffffff16815260200190815260200160002060008201518160000160006101000a81548160ff0219169083600381111561038a57610389610696565b5b021790555060208201518160000160016101000a81548160ff0219169083151502179055509050507f9d298435d839e75ea5c40e98fc6aa208cc7c2a9ba6ffb5d9703e179bcf1b248e82826040516103e39291906107e0565b60405180910390a15050565b60026020528060005260406000206000915090508060000160009054906101000a900460ff16908060000160019054906101000a900460ff16905082565b6104356104b3565b600073ffffffffffffffffffffffffffffffffffffffff168173ffffffffffffffffffffffffffffffffffffffff16036104a75760006040517f1e4fbdf700000000000000000000000000000000000000000000000000000000815260040161049e9190610760565b60405180910390fd5b6104b08161053a565b50565b6104bb6105fe565b73ffffffffffffffffffffffffffffffffffffffff166104d9610228565b73ffffffffffffffffffffffffffffffffffffffff1614610538576104fc6105fe565b6040517f118cdaa700000000000000000000000000000000000000000000000000000000815260040161052f9190610760565b60405180910390fd5b565b60008060009054906101000a900473ffffffffffffffffffffffffffffffffffffffff169050816000806101000a81548173ffffffffffffffffffffffffffffffffffffffff021916908373ffffffffffffffffffffffffffffffffffffffff1602179055508173ffffffffffffffffffffffffffffffffffffffff168173ffffffffffffffffffffffffffffffffffffffff167f8be0079c531659141344cd1fd0a4f28419497f9722a3daafe3b4186f6b6457e060405160405180910390a35050565b600033905090565b600080fd5b600073ffffffffffffffffffffffffffffffffffffffff82169050919050565b60006106368261060b565b9050919050565b6106468161062b565b811461065157600080fd5b50565b6000813590506106638161063d565b92915050565b60006020828403121561067f5761067e610606565b5b600061068d84828501610654565b91505092915050565b7f4e487b7100000000000000000000000000000000000000000000000000000000600052602160045260246000fd5b600481106106d6576106d5610696565b5b50565b60008190506106e7826106c5565b919050565b60006106f7826106d9565b9050919050565b610707816106ec565b82525050565b60008115159050919050565b6107228161070d565b82525050565b600060408201905061073d60008301856106fe565b61074a6020830184610719565b9392505050565b61075a8161062b565b82525050565b60006020820190506107756000830184610751565b92915050565b6004811061078857600080fd5b50565b60008135905061079a8161077b565b92915050565b600080604083850312156107b7576107b6610606565b5b60006107c585828601610654565b92505060206107d68582860161078b565b9150509250929050565b60006040820190506107f56000830185610751565b61080260208301846106fe565b939250505056fea264697066735822122014873bb6700f88a0286c0d3c8ed5df697947a387f6718df12061f7cc80d1156b64736f6c63430008140033",
  "linkReferences": {},
  "deployedLinkReferences": {}
}