{
  "_format": "hh-sol-artifact-1",
  "contractName": "SupplyChainTracking",
  "sourceName": "contracts/SupplyChainTracking.sol",
  "abi": [
    {
      "inputs": [],
      "stateMutability": "nonpayable",
      "type": "constructor"
    },
    {
      "inputs": [
        {
          "internalType": "address",
          "name": "owner",
          "type": "address"
        }
      ],
      "name": "OwnableInvalidOwner",
      "type": "error"
    },
    {
      "inputs": [
        {
          "internalType": "address",
          "name": "account",
          "type": "address"
        }
      ],
      "name": "OwnableUnauthorizedAccount",
      "type": "error"
    },
    {
      "anonymous": false,
      "inputs": [
        {
          "indexed": false,
          "internalType": "address",
          "name": "actor",
          "type": "address"
        }
      ],
      "name": "ActorDisabled",
      "type": "event"
    },
    {
      "anonymous": false,
      "inputs": [
        {
          "indexed": false,
          "internalType": "address",
          "name": "actor",
          "type": "address"
        },
        {
          "indexed": false,
          "internalType": "enum SupplyChainTracking.Role",
          "name": "role",
          "type": "uint8"
        }
      ],
      "name": "ActorRegistered",
      "type": "event"
    },
    {
      "anonymous": false,
      "inputs": [
        {
          "indexed": false,
          "internalType": "uint256",
          "name": "productId",
          "type": "uint256"
        }
      ],
      "name": "AssetRegistered",
      "type": "event"
    },
    {
      "anonymous": false,
      "inputs": [
        {
          "indexed": true,
          "internalType": "address",
          "name": "previousOwner",
          "type": "address"
        },
        {
          "indexed": true,
          "internalType": "address",
          "name": "newOwner",
          "type": "address"
        }
      ],
      "name": "OwnershipTransferred",
      "type": "event"
    },
    {
      "inputs": [
        {
          "internalType": "address",
          "name": "",
          "type": "address"
        }
      ],
      "name": "actors",
      "outputs": [
        {
          "internalType": "enum SupplyChainTracking.Role",
          "name": "role",
          "type": "uint8"
        },
        {
          "internalType": "bool",
          "name": "active",
          "type": "bool"
        }
      ],
      "stateMutability": "view",
      "type": "function"
    },
    {
      "inputs": [
        {
          "internalType": "uint256",
          "name": "",
          "type": "uint256"
        }
      ],
      "name": "assets",
      "outputs": [
        {
          "internalType": "uint256",
          "name": "productId",
          "type": "uint256"
        },
        {
          "internalType": "string",
          "name": "productType",
          "type": "string"
        },
        {
          "internalType": "uint256",
          "name": "productionDate",
          "type": "uint256"
        },
        {
          "internalType": "string",
          "name": "origin",
          "type": "string"
        },
        {
          "internalType": "address",
          "name": "currentHolder",
          "type": "address"
        }
      ],
      "stateMutability": "view",
      "type": "function"
    },
    {
      "inputs": [
        {
          "internalType": "address",
          "name": "_actor",
          "type": "address"
        }
      ],
      "name": "disableActor",
      "outputs": [],
      "stateMutability": "nonpayable",
      "type": "function"
    },
    {
      "inputs": [
        {
          "internalType": "address",
          "name": "_actor",
          "type": "address"
        }
      ],
      "name": "getActor",
      "outputs": [
        {
          "internalType": "enum SupplyChainTracking.Role",
          "name": "",
          "type": "uint8"
        },
        {
          "internalType": "bool",
          "name": "",
          "type": "bool"
        }
      ],
      "stateMutability": "view",
      "type": "function"
    },
    {
      "inputs": [],
      "name": "owner",
      "outputs": [
        {
          "internalType": "address",
          "name": "",
          "type": "address"
        }
      ],
      "stateMutability": "view",
      "type": "function"
    },
    {
      "inputs": [
        {
          "internalType": "address",
          "name": "_actor",
          "type": "address"
        },
        {
          "internalType": "enum SupplyChainTracking.Role",
          "name": "_role",
          "type": "uint8"
        }
      ],
      "name": "registerActor",
      "outputs": [],
      "stateMutability": "nonpayable",
      "type": "function"
    },
    {
      "inputs": [
        {
          "internalType": "string",
          "name": "_productType",
          "type": "string"
        },
        {
          "internalType": "uint256",
          "name": "_productionDate",
          "type": "uint256"
        },
        {
          "internalType": "string",
          "name": "_origin",
          "type": "string"
        }
      ],
      "name": "registerAsset",
      "outputs": [],
      "stateMutability": "nonpayable",
      "type": "function"
    },
    {
      "inputs": [],
      "name": "renounceOwnership",
      "outputs": [],
      "stateMutability": "nonpayable",
      "type": "function"
    },
    {
      "inputs": [
        {
          "internalType": "address",
          "name": "newOwner",
          "type": "address"
        }
      ],
      "name": "transferOwnership",
      "outputs": [],
      "stateMutability": "nonpayable",
      "type": "function"
    }
  ],
  "bytecode": "0x60806040523480156200001157600080fd5b5033600073ffffffffffffffffffffffffffffffffffffffff168173ffffffffffffffffffffffffffffffffffffffff1603620000885760006040517f1e4fbdf70000000000000000000000000000000000000000000000000000000081526004016200007f9190620001b1565b60405180910390fd5b6200009981620000a860201b60201c565b506000600181905550620001ce565b60008060009054906101000a900473ffffffffffffffffffffffffffffffffffffffff169050816000806101000a81548173ffffffffffffffffffffffffffffffffffffffff021916908373ffffffffffffffffffffffffffffffffffffffff1602179055508173ffffffffffffffffffffffffffffffffffffffff168173ffffffffffffffffffffffffffffffffffffffff167f8be0079c531659141344cd1fd0a4f28419497f9722a3daafe3b4186f6b6457e060405160405180910390a35050565b600073ffffffffffffffffffffffffffffffffffffffff82169050919050565b600062000199826200016c565b9050919050565b620001ab816200018c565b82525050565b6000602082019050620001c86000830184620001a0565b92915050565b61156380620001de6000396000f3fe608060405234801561001057600080fd5b50600436106100935760003560e01c8063d5cbe15711610066578063d5cbe15714610125578063de7ac99114610141578063eaa66a3c1461015d578063f2fde38b1461018e578063f742c5b0146101aa57610093565b80634138d16714610098578063715018a6146100c95780638da5cb5b146100d3578063cf35bdd0146100f1575b600080fd5b6100b260048036038101906100ad9190610c7a565b6101c6565b6040516100c0929190610d39565b60405180910390f35b6100d161027a565b005b6100db61028e565b6040516100e89190610d71565b60405180910390f35b61010b60048036038101906101069190610dc2565b6102b7565b60405161011c959493929190610e8e565b60405180910390f35b61013f600480360381019061013a9190610c7a565b61041d565b005b61015b60048036038101906101569190610f14565b6104ba565b005b61017760048036038101906101729190610c7a565b6105bb565b604051610185929190610d39565b60405180910390f35b6101a860048036038101906101a39190610c7a565b6105f9565b005b6101c460048036038101906101bf9190610fb9565b61067f565b005b6000806101d16109d6565b600260008473ffffffffffffffffffffffffffffffffffffffff1673ffffffffffffffffffffffffffffffffffffffff16815260200190815260200160002060000160009054906101000a900460ff16600260008573ffffffffffffffffffffffffffffffffffffffff1673ffffffffffffffffffffffffffffffffffffffff16815260200190815260200160002060000160019054906101000a900460ff1691509150915091565b6102826109d6565b61028c6000610a5d565b565b60008060009054906101000a900473ffffffffffffffffffffffffffffffffffffffff16905090565b60036020528060005260406000206000915090508060000154908060010180546102e09061107d565b80601f016020809104026020016040519081016040528092919081815260200182805461030c9061107d565b80156103595780601f1061032e57610100808354040283529160200191610359565b820191906000526020600020905b81548152906001019060200180831161033c57829003601f168201915b5050505050908060020154908060030180546103749061107d565b80601f01602080910402602001604051908101604052809291908181526020018280546103a09061107d565b80156103ed5780601f106103c2576101008083540402835291602001916103ed565b820191906000526020600020905b8154815290600101906020018083116103d057829003601f168201915b5050505050908060040160009054906101000a900473ffffffffffffffffffffffffffffffffffffffff16905085565b6104256109d6565b6000600260008373ffffffffffffffffffffffffffffffffffffffff1673ffffffffffffffffffffffffffffffffffffffff16815260200190815260200160002060000160016101000a81548160ff0219169083151502179055507f6104c637b94c6924ba582f11d228cf3203eb42d40b94a3ab64e60006032a93d5816040516104af9190610d71565b60405180910390a150565b6104c26109d6565b60405180604001604052808260038111156104e0576104df610ca7565b5b815260200160011515815250600260008473ffffffffffffffffffffffffffffffffffffffff1673ffffffffffffffffffffffffffffffffffffffff16815260200190815260200160002060008201518160000160006101000a81548160ff0219169083600381111561055657610555610ca7565b5b021790555060208201518160000160016101000a81548160ff0219169083151502179055509050507f9d298435d839e75ea5c40e98fc6aa208cc7c2a9ba6ffb5d9703e179bcf1b248e82826040516105af9291906110ae565b60405180910390a15050565b60026020528060005260406000206000915090508060000160009054906101000a900460ff16908060000160019054906101000a900460ff16905082565b6106016109d6565b600073ffffffffffffffffffffffffffffffffffffffff168173ffffffffffffffffffffffffffffffffffffffff16036106735760006040517f1e4fbdf700000000000000000000000000000000000000000000000000000000815260040161066a9190610d71565b60405180910390fd5b61067c81610a5d565b50565b60003390506106dc600260008373ffffffffffffffffffffffffffffffffffffffff1673ffffffffffffffffffffffffffffffffffffffff16815260200190815260200160002060000160019054906101000a900460ff16610b21565b60011515600260008373ffffffffffffffffffffffffffffffffffffffff1673ffffffffffffffffffffffffffffffffffffffff16815260200190815260200160002060000160019054906101000a900460ff16151514610772576040517f08c379a000000000000000000000000000000000000000000000000000000000815260040161076990611123565b60405180910390fd5b6000600381111561078657610785610ca7565b5b600260008373ffffffffffffffffffffffffffffffffffffffff1673ffffffffffffffffffffffffffffffffffffffff16815260200190815260200160002060000160009054906101000a900460ff1660038111156107e8576107e7610ca7565b5b14610828576040517f08c379a000000000000000000000000000000000000000000000000000000000815260040161081f9061118f565b60405180910390fd5b60006001549050806003600083815260200190815260200160002060000181905550868660036000848152602001908152602001600020600101918261086f929190611395565b5084600360008381526020019081526020016000206002018190555083836003600084815260200190815260200160002060030191826108b0929190611395565b50816003600083815260200190815260200160002060040160006101000a81548173ffffffffffffffffffffffffffffffffffffffff021916908373ffffffffffffffffffffffffffffffffffffffff16021790555060036000828152602001908152602001600020600501829080600181540180825580915050600190039060005260206000200160009091909190916101000a81548173ffffffffffffffffffffffffffffffffffffffff021916908373ffffffffffffffffffffffffffffffffffffffff160217905550600180600082825461098f9190611494565b925050819055507fcc7b4929606ce963ba54b6a998f106f7748e78c03dc7f08fd77aeb28230eb2d3816040516109c591906114c8565b60405180910390a150505050505050565b6109de610bba565b73ffffffffffffffffffffffffffffffffffffffff166109fc61028e565b73ffffffffffffffffffffffffffffffffffffffff1614610a5b57610a1f610bba565b6040517f118cdaa7000000000000000000000000000000000000000000000000000000008152600401610a529190610d71565b60405180910390fd5b565b60008060009054906101000a900473ffffffffffffffffffffffffffffffffffffffff169050816000806101000a81548173ffffffffffffffffffffffffffffffffffffffff021916908373ffffffffffffffffffffffffffffffffffffffff1602179055508173ffffffffffffffffffffffffffffffffffffffff168173ffffffffffffffffffffffffffffffffffffffff167f8be0079c531659141344cd1fd0a4f28419497f9722a3daafe3b4186f6b6457e060405160405180910390a35050565b610bb781604051602401610b3591906114e3565b6040516020818303038152906040527f32458eed000000000000000000000000000000000000000000000000000000007bffffffffffffffffffffffffffffffffffffffffffffffffffffffff19166020820180517bffffffffffffffffffffffffffffffffffffffffffffffffffffffff8381831617835250505050610bc2565b50565b600033905090565b610bd981610bd1610bdc610bfd565b63ffffffff16565b50565b60006a636f6e736f6c652e6c6f679050600080835160208501845afa505050565b610c08819050919050565b610c106114fe565b565b600080fd5b600080fd5b600073ffffffffffffffffffffffffffffffffffffffff82169050919050565b6000610c4782610c1c565b9050919050565b610c5781610c3c565b8114610c6257600080fd5b50565b600081359050610c7481610c4e565b92915050565b600060208284031215610c9057610c8f610c12565b5b6000610c9e84828501610c65565b91505092915050565b7f4e487b7100000000000000000000000000000000000000000000000000000000600052602160045260246000fd5b60048110610ce757610ce6610ca7565b5b50565b6000819050610cf882610cd6565b919050565b6000610d0882610cea565b9050919050565b610d1881610cfd565b82525050565b60008115159050919050565b610d3381610d1e565b82525050565b6000604082019050610d4e6000830185610d0f565b610d5b6020830184610d2a565b9392505050565b610d6b81610c3c565b82525050565b6000602082019050610d866000830184610d62565b92915050565b6000819050919050565b610d9f81610d8c565b8114610daa57600080fd5b50565b600081359050610dbc81610d96565b92915050565b600060208284031215610dd857610dd7610c12565b5b6000610de684828501610dad565b91505092915050565b610df881610d8c565b82525050565b600081519050919050565b600082825260208201905092915050565b60005b83811015610e38578082015181840152602081019050610e1d565b60008484015250505050565b6000601f19601f8301169050919050565b6000610e6082610dfe565b610e6a8185610e09565b9350610e7a818560208601610e1a565b610e8381610e44565b840191505092915050565b600060a082019050610ea36000830188610def565b8181036020830152610eb58187610e55565b9050610ec46040830186610def565b8181036060830152610ed68185610e55565b9050610ee56080830184610d62565b9695505050505050565b60048110610efc57600080fd5b50565b600081359050610f0e81610eef565b92915050565b60008060408385031215610f2b57610f2a610c12565b5b6000610f3985828601610c65565b9250506020610f4a85828601610eff565b9150509250929050565b600080fd5b600080fd5b600080fd5b60008083601f840112610f7957610f78610f54565b5b8235905067ffffffffffffffff811115610f9657610f95610f59565b5b602083019150836001820283011115610fb257610fb1610f5e565b5b9250929050565b600080600080600060608688031215610fd557610fd4610c12565b5b600086013567ffffffffffffffff811115610ff357610ff2610c17565b5b610fff88828901610f63565b9550955050602061101288828901610dad565b935050604086013567ffffffffffffffff81111561103357611032610c17565b5b61103f88828901610f63565b92509250509295509295909350565b7f4e487b7100000000000000000000000000000000000000000000000000000000600052602260045260246000fd5b6000600282049050600182168061109557607f821691505b6020821081036110a8576110a761104e565b5b50919050565b60006040820190506110c36000830185610d62565b6110d06020830184610d0f565b9392505050565b7f4163746f72206e6f7420656e61626c6564000000000000000000000000000000600082015250565b600061110d601183610e09565b9150611118826110d7565b602082019050919050565b6000602082019050818103600083015261113c81611100565b9050919050565b7f4163746f72277320726f6c65206d7573742062652050726f6475636572000000600082015250565b6000611179601d83610e09565b915061118482611143565b602082019050919050565b600060208201905081810360008301526111a88161116c565b9050919050565b600082905092915050565b7f4e487b7100000000000000000000000000000000000000000000000000000000600052604160045260246000fd5b60008190508160005260206000209050919050565b60006020601f8301049050919050565b600082821b905092915050565b60006008830261124b7fffffffffffffffffffffffffffffffffffffffffffffffffffffffffffffffff8261120e565b611255868361120e565b95508019841693508086168417925050509392505050565b6000819050919050565b600061129261128d61128884610d8c565b61126d565b610d8c565b9050919050565b6000819050919050565b6112ac83611277565b6112c06112b882611299565b84845461121b565b825550505050565b600090565b6112d56112c8565b6112e08184846112a3565b505050565b5b81811015611304576112f96000826112cd565b6001810190506112e6565b5050565b601f8211156113495761131a816111e9565b611323846111fe565b81016020851015611332578190505b61134661133e856111fe565b8301826112e5565b50505b505050565b600082821c905092915050565b600061136c6000198460080261134e565b1980831691505092915050565b6000611385838361135b565b9150826002028217905092915050565b61139f83836111af565b67ffffffffffffffff8111156113b8576113b76111ba565b5b6113c2825461107d565b6113cd828285611308565b6000601f8311600181146113fc57600084156113ea578287013590505b6113f48582611379565b86555061145c565b601f19841661140a866111e9565b60005b828110156114325784890135825560018201915060208501945060208101905061140d565b8683101561144f578489013561144b601f89168261135b565b8355505b6001600288020188555050505b50505050505050565b7f4e487b7100000000000000000000000000000000000000000000000000000000600052601160045260246000fd5b600061149f82610d8c565b91506114aa83610d8c565b92508282019050808211156114c2576114c1611465565b5b92915050565b60006020820190506114dd6000830184610def565b92915050565b60006020820190506114f86000830184610d2a565b92915050565b7f4e487b7100000000000000000000000000000000000000000000000000000000600052605160045260246000fdfea264697066735822122040673c4cb9e77ee6aed6d7ff8da6905e73e3132087a0dcdc1424b7e4b165618064736f6c63430008140033",
  "linkReferences": {},
  "deployedLinkReferences": {}
}