{
  "_format": "hh-sol-artifact-1",
  "contractName": "SupplyChainTracking",
  "sourceName": "contracts/SupplyChainTracking.sol",
  "abi": [
    {
      "inputs": [],
      "stateMutability": "nonpayable",
      "type": "constructor"
    },
    {
      "inputs": [
        {
          "internalType": "address",
          "name": "owner",
          "type": "address"
        }
      ],
      "name": "OwnableInvalidOwner",
      "type": "error"
    },
    {
      "inputs": [
        {
          "internalType": "address",
          "name": "account",
          "type": "address"
        }
      ],
      "name": "OwnableUnauthorizedAccount",
      "type": "error"
    },
    {
      "anonymous": false,
      "inputs": [
        {
          "indexed": false,
          "internalType": "address",
          "name": "actor",
          "type": "address"
        }
      ],
      "name": "ActorDisabled",
      "type": "event"
    },
    {
      "anonymous": false,
      "inputs": [
        {
          "indexed": false,
          "internalType": "address",
          "name": "actor",
          "type": "address"
        },
        {
          "indexed": false,
          "internalType": "enum SupplyChainTracking.Role",
          "name": "role",
          "type": "uint8"
        }
      ],
      "name": "ActorRegistered",
      "type": "event"
    },
    {
      "anonymous": false,
      "inputs": [
        {
          "indexed": false,
          "internalType": "uint256",
          "name": "productId",
          "type": "uint256"
        }
      ],
      "name": "AssetRegistered",
      "type": "event"
    },
    {
      "anonymous": false,
      "inputs": [
        {
          "indexed": true,
          "internalType": "address",
          "name": "previousOwner",
          "type": "address"
        },
        {
          "indexed": true,
          "internalType": "address",
          "name": "newOwner",
          "type": "address"
        }
      ],
      "name": "OwnershipTransferred",
      "type": "event"
    },
    {
      "inputs": [
        {
          "internalType": "address",
          "name": "",
          "type": "address"
        }
      ],
      "name": "actors",
      "outputs": [
        {
          "internalType": "enum SupplyChainTracking.Role",
          "name": "role",
          "type": "uint8"
        },
        {
          "internalType": "bool",
          "name": "active",
          "type": "bool"
        }
      ],
      "stateMutability": "view",
      "type": "function"
    },
    {
      "inputs": [
        {
          "internalType": "uint256",
          "name": "",
          "type": "uint256"
        }
      ],
      "name": "assets",
      "outputs": [
        {
          "internalType": "uint256",
          "name": "productId",
          "type": "uint256"
        },
        {
          "internalType": "string",
          "name": "productType",
          "type": "string"
        },
        {
          "internalType": "uint256",
          "name": "productionDate",
          "type": "uint256"
        },
        {
          "internalType": "string",
          "name": "origin",
          "type": "string"
        },
        {
          "internalType": "address",
          "name": "currentHolder",
          "type": "address"
        }
      ],
      "stateMutability": "view",
      "type": "function"
    },
    {
      "inputs": [
        {
          "internalType": "address",
          "name": "_actor",
          "type": "address"
        }
      ],
      "name": "disableActor",
      "outputs": [],
      "stateMutability": "nonpayable",
      "type": "function"
    },
    {
      "inputs": [
        {
          "internalType": "address",
          "name": "_actor",
          "type": "address"
        }
      ],
      "name": "getActor",
      "outputs": [
        {
          "internalType": "enum SupplyChainTracking.Role",
          "name": "",
          "type": "uint8"
        },
        {
          "internalType": "bool",
          "name": "",
          "type": "bool"
        }
      ],
      "stateMutability": "view",
      "type": "function"
    },
    {
      "inputs": [
        {
          "internalType": "uint256",
          "name": "_assetId",
          "type": "uint256"
        }
      ],
      "name": "getAsset",
      "outputs": [
        {
          "internalType": "string",
          "name": "",
          "type": "string"
        },
        {
          "internalType": "uint256",
          "name": "",
          "type": "uint256"
        },
        {
          "internalType": "string",
          "name": "",
          "type": "string"
        },
        {
          "internalType": "address",
          "name": "",
          "type": "address"
        },
        {
          "internalType": "address[]",
          "name": "",
          "type": "address[]"
        }
      ],
      "stateMutability": "view",
      "type": "function"
    },
    {
      "inputs": [],
      "name": "owner",
      "outputs": [
        {
          "internalType": "address",
          "name": "",
          "type": "address"
        }
      ],
      "stateMutability": "view",
      "type": "function"
    },
    {
      "inputs": [
        {
          "internalType": "address",
          "name": "_actor",
          "type": "address"
        },
        {
          "internalType": "enum SupplyChainTracking.Role",
          "name": "_role",
          "type": "uint8"
        }
      ],
      "name": "registerActor",
      "outputs": [],
      "stateMutability": "nonpayable",
      "type": "function"
    },
    {
      "inputs": [
        {
          "internalType": "string",
          "name": "_productType",
          "type": "string"
        },
        {
          "internalType": "uint256",
          "name": "_productionDate",
          "type": "uint256"
        },
        {
          "internalType": "string",
          "name": "_origin",
          "type": "string"
        }
      ],
      "name": "registerAsset",
      "outputs": [],
      "stateMutability": "nonpayable",
      "type": "function"
    },
    {
      "inputs": [],
      "name": "renounceOwnership",
      "outputs": [],
      "stateMutability": "nonpayable",
      "type": "function"
    },
    {
      "inputs": [
        {
          "internalType": "address",
          "name": "newOwner",
          "type": "address"
        }
      ],
      "name": "transferOwnership",
      "outputs": [],
      "stateMutability": "nonpayable",
      "type": "function"
    }
  ],
  "bytecode": "0x60806040523480156200001157600080fd5b5033600073ffffffffffffffffffffffffffffffffffffffff168173ffffffffffffffffffffffffffffffffffffffff1603620000885760006040517f1e4fbdf70000000000000000000000000000000000000000000000000000000081526004016200007f9190620001b0565b60405180910390fd5b6200009981620000a760201b60201c565b5060018081905550620001cd565b60008060009054906101000a900473ffffffffffffffffffffffffffffffffffffffff169050816000806101000a81548173ffffffffffffffffffffffffffffffffffffffff021916908373ffffffffffffffffffffffffffffffffffffffff1602179055508173ffffffffffffffffffffffffffffffffffffffff168173ffffffffffffffffffffffffffffffffffffffff167f8be0079c531659141344cd1fd0a4f28419497f9722a3daafe3b4186f6b6457e060405160405180910390a35050565b600073ffffffffffffffffffffffffffffffffffffffff82169050919050565b600062000198826200016b565b9050919050565b620001aa816200018b565b82525050565b6000602082019050620001c760008301846200019f565b92915050565b61186d80620001dd6000396000f3fe608060405234801561001057600080fd5b506004361061009e5760003560e01c8063de7ac99111610066578063de7ac9911461014c578063eaa66a3c14610168578063eac8f5b814610199578063f2fde38b146101cd578063f742c5b0146101e95761009e565b80634138d167146100a3578063715018a6146100d45780638da5cb5b146100de578063cf35bdd0146100fc578063d5cbe15714610130575b600080fd5b6100bd60048036038101906100b89190610e16565b610205565b6040516100cb929190610ed5565b60405180910390f35b6100dc6102b9565b005b6100e66102cd565b6040516100f39190610f0d565b60405180910390f35b61011660048036038101906101119190610f5e565b6102f6565b60405161012795949392919061102a565b60405180910390f35b61014a60048036038101906101459190610e16565b61045c565b005b610166600480360381019061016191906110b0565b6104f9565b005b610182600480360381019061017d9190610e16565b6105fa565b604051610190929190610ed5565b60405180910390f35b6101b360048036038101906101ae9190610f5e565b610638565b6040516101c49594939291906111ae565b60405180910390f35b6101e760048036038101906101e29190610e16565b6108d6565b005b61020360048036038101906101fe919061127b565b61095c565b005b600080610210610c5b565b600260008473ffffffffffffffffffffffffffffffffffffffff1673ffffffffffffffffffffffffffffffffffffffff16815260200190815260200160002060000160009054906101000a900460ff16600260008573ffffffffffffffffffffffffffffffffffffffff1673ffffffffffffffffffffffffffffffffffffffff16815260200190815260200160002060000160019054906101000a900460ff1691509150915091565b6102c1610c5b565b6102cb6000610ce2565b565b60008060009054906101000a900473ffffffffffffffffffffffffffffffffffffffff16905090565b600360205280600052604060002060009150905080600001549080600101805461031f9061133f565b80601f016020809104026020016040519081016040528092919081815260200182805461034b9061133f565b80156103985780601f1061036d57610100808354040283529160200191610398565b820191906000526020600020905b81548152906001019060200180831161037b57829003601f168201915b5050505050908060020154908060030180546103b39061133f565b80601f01602080910402602001604051908101604052809291908181526020018280546103df9061133f565b801561042c5780601f106104015761010080835404028352916020019161042c565b820191906000526020600020905b81548152906001019060200180831161040f57829003601f168201915b5050505050908060040160009054906101000a900473ffffffffffffffffffffffffffffffffffffffff16905085565b610464610c5b565b6000600260008373ffffffffffffffffffffffffffffffffffffffff1673ffffffffffffffffffffffffffffffffffffffff16815260200190815260200160002060000160016101000a81548160ff0219169083151502179055507f6104c637b94c6924ba582f11d228cf3203eb42d40b94a3ab64e60006032a93d5816040516104ee9190610f0d565b60405180910390a150565b610501610c5b565b604051806040016040528082600381111561051f5761051e610e43565b5b815260200160011515815250600260008473ffffffffffffffffffffffffffffffffffffffff1673ffffffffffffffffffffffffffffffffffffffff16815260200190815260200160002060008201518160000160006101000a81548160ff0219169083600381111561059557610594610e43565b5b021790555060208201518160000160016101000a81548160ff0219169083151502179055509050507f9d298435d839e75ea5c40e98fc6aa208cc7c2a9ba6ffb5d9703e179bcf1b248e82826040516105ee929190611370565b60405180910390a15050565b60026020528060005260406000206000915090508060000160009054906101000a900460ff16908060000160019054906101000a900460ff16905082565b6060600060606000606060018610158015610654575060015486105b610693576040517f08c379a000000000000000000000000000000000000000000000000000000000815260040161068a9061140b565b60405180910390fd5b60036000878152602001908152602001600020600101600360008881526020019081526020016000206002015460036000898152602001908152602001600020600301600360008a815260200190815260200160002060040160009054906101000a900473ffffffffffffffffffffffffffffffffffffffff16600360008b815260200190815260200160002060050184805461072f9061133f565b80601f016020809104026020016040519081016040528092919081815260200182805461075b9061133f565b80156107a85780601f1061077d576101008083540402835291602001916107a8565b820191906000526020600020905b81548152906001019060200180831161078b57829003601f168201915b505050505094508280546107bb9061133f565b80601f01602080910402602001604051908101604052809291908181526020018280546107e79061133f565b80156108345780601f1061080957610100808354040283529160200191610834565b820191906000526020600020905b81548152906001019060200180831161081757829003601f168201915b50505050509250808054806020026020016040519081016040528092919081815260200182805480156108bc57602002820191906000526020600020905b8160009054906101000a900473ffffffffffffffffffffffffffffffffffffffff1673ffffffffffffffffffffffffffffffffffffffff1681526020019060010190808311610872575b505050505090509450945094509450945091939590929450565b6108de610c5b565b600073ffffffffffffffffffffffffffffffffffffffff168173ffffffffffffffffffffffffffffffffffffffff16036109505760006040517f1e4fbdf70000000000000000000000000000000000000000000000000000000081526004016109479190610f0d565b60405180910390fd5b61095981610ce2565b50565b600033905060011515600260008373ffffffffffffffffffffffffffffffffffffffff1673ffffffffffffffffffffffffffffffffffffffff16815260200190815260200160002060000160019054906101000a900460ff161515146109f7576040517f08c379a00000000000000000000000000000000000000000000000000000000081526004016109ee90611477565b60405180910390fd5b60006003811115610a0b57610a0a610e43565b5b600260008373ffffffffffffffffffffffffffffffffffffffff1673ffffffffffffffffffffffffffffffffffffffff16815260200190815260200160002060000160009054906101000a900460ff166003811115610a6d57610a6c610e43565b5b14610aad576040517f08c379a0000000000000000000000000000000000000000000000000000000008152600401610aa4906114e3565b60405180910390fd5b600060015490508060036000838152602001908152602001600020600001819055508686600360008481526020019081526020016000206001019182610af49291906116e9565b508460036000838152602001908152602001600020600201819055508383600360008481526020019081526020016000206003019182610b359291906116e9565b50816003600083815260200190815260200160002060040160006101000a81548173ffffffffffffffffffffffffffffffffffffffff021916908373ffffffffffffffffffffffffffffffffffffffff16021790555060036000828152602001908152602001600020600501829080600181540180825580915050600190039060005260206000200160009091909190916101000a81548173ffffffffffffffffffffffffffffffffffffffff021916908373ffffffffffffffffffffffffffffffffffffffff1602179055506001806000828254610c1491906117e8565b925050819055507fcc7b4929606ce963ba54b6a998f106f7748e78c03dc7f08fd77aeb28230eb2d381604051610c4a919061181c565b60405180910390a150505050505050565b610c63610da6565b73ffffffffffffffffffffffffffffffffffffffff16610c816102cd565b73ffffffffffffffffffffffffffffffffffffffff1614610ce057610ca4610da6565b6040517f118cdaa7000000000000000000000000000000000000000000000000000000008152600401610cd79190610f0d565b60405180910390fd5b565b60008060009054906101000a900473ffffffffffffffffffffffffffffffffffffffff169050816000806101000a81548173ffffffffffffffffffffffffffffffffffffffff021916908373ffffffffffffffffffffffffffffffffffffffff1602179055508173ffffffffffffffffffffffffffffffffffffffff168173ffffffffffffffffffffffffffffffffffffffff167f8be0079c531659141344cd1fd0a4f28419497f9722a3daafe3b4186f6b6457e060405160405180910390a35050565b600033905090565b600080fd5b600080fd5b600073ffffffffffffffffffffffffffffffffffffffff82169050919050565b6000610de382610db8565b9050919050565b610df381610dd8565b8114610dfe57600080fd5b50565b600081359050610e1081610dea565b92915050565b600060208284031215610e2c57610e2b610dae565b5b6000610e3a84828501610e01565b91505092915050565b7f4e487b7100000000000000000000000000000000000000000000000000000000600052602160045260246000fd5b60048110610e8357610e82610e43565b5b50565b6000819050610e9482610e72565b919050565b6000610ea482610e86565b9050919050565b610eb481610e99565b82525050565b60008115159050919050565b610ecf81610eba565b82525050565b6000604082019050610eea6000830185610eab565b610ef76020830184610ec6565b9392505050565b610f0781610dd8565b82525050565b6000602082019050610f226000830184610efe565b92915050565b6000819050919050565b610f3b81610f28565b8114610f4657600080fd5b50565b600081359050610f5881610f32565b92915050565b600060208284031215610f7457610f73610dae565b5b6000610f8284828501610f49565b91505092915050565b610f9481610f28565b82525050565b600081519050919050565b600082825260208201905092915050565b60005b83811015610fd4578082015181840152602081019050610fb9565b60008484015250505050565b6000601f19601f8301169050919050565b6000610ffc82610f9a565b6110068185610fa5565b9350611016818560208601610fb6565b61101f81610fe0565b840191505092915050565b600060a08201905061103f6000830188610f8b565b81810360208301526110518187610ff1565b90506110606040830186610f8b565b81810360608301526110728185610ff1565b90506110816080830184610efe565b9695505050505050565b6004811061109857600080fd5b50565b6000813590506110aa8161108b565b92915050565b600080604083850312156110c7576110c6610dae565b5b60006110d585828601610e01565b92505060206110e68582860161109b565b9150509250929050565b600081519050919050565b600082825260208201905092915050565b6000819050602082019050919050565b61112581610dd8565b82525050565b6000611137838361111c565b60208301905092915050565b6000602082019050919050565b600061115b826110f0565b61116581856110fb565b93506111708361110c565b8060005b838110156111a1578151611188888261112b565b975061119383611143565b925050600181019050611174565b5085935050505092915050565b600060a08201905081810360008301526111c88188610ff1565b90506111d76020830187610f8b565b81810360408301526111e98186610ff1565b90506111f86060830185610efe565b818103608083015261120a8184611150565b90509695505050505050565b600080fd5b600080fd5b600080fd5b60008083601f84011261123b5761123a611216565b5b8235905067ffffffffffffffff8111156112585761125761121b565b5b60208301915083600182028301111561127457611273611220565b5b9250929050565b60008060008060006060868803121561129757611296610dae565b5b600086013567ffffffffffffffff8111156112b5576112b4610db3565b5b6112c188828901611225565b955095505060206112d488828901610f49565b935050604086013567ffffffffffffffff8111156112f5576112f4610db3565b5b61130188828901611225565b92509250509295509295909350565b7f4e487b7100000000000000000000000000000000000000000000000000000000600052602260045260246000fd5b6000600282049050600182168061135757607f821691505b60208210810361136a57611369611310565b5b50919050565b60006040820190506113856000830185610efe565b6113926020830184610eab565b9392505050565b7f4173736574204944206d7573742062652077697468696e2076616c696420726160008201527f6e67650000000000000000000000000000000000000000000000000000000000602082015250565b60006113f5602383610fa5565b915061140082611399565b604082019050919050565b60006020820190508181036000830152611424816113e8565b9050919050565b7f4163746f72206e6f7420656e61626c6564000000000000000000000000000000600082015250565b6000611461601183610fa5565b915061146c8261142b565b602082019050919050565b6000602082019050818103600083015261149081611454565b9050919050565b7f4163746f72277320726f6c65206d7573742062652050726f6475636572000000600082015250565b60006114cd601d83610fa5565b91506114d882611497565b602082019050919050565b600060208201905081810360008301526114fc816114c0565b9050919050565b600082905092915050565b7f4e487b7100000000000000000000000000000000000000000000000000000000600052604160045260246000fd5b60008190508160005260206000209050919050565b60006020601f8301049050919050565b600082821b905092915050565b60006008830261159f7fffffffffffffffffffffffffffffffffffffffffffffffffffffffffffffffff82611562565b6115a98683611562565b95508019841693508086168417925050509392505050565b6000819050919050565b60006115e66115e16115dc84610f28565b6115c1565b610f28565b9050919050565b6000819050919050565b611600836115cb565b61161461160c826115ed565b84845461156f565b825550505050565b600090565b61162961161c565b6116348184846115f7565b505050565b5b818110156116585761164d600082611621565b60018101905061163a565b5050565b601f82111561169d5761166e8161153d565b61167784611552565b81016020851015611686578190505b61169a61169285611552565b830182611639565b50505b505050565b600082821c905092915050565b60006116c0600019846008026116a2565b1980831691505092915050565b60006116d983836116af565b9150826002028217905092915050565b6116f38383611503565b67ffffffffffffffff81111561170c5761170b61150e565b5b611716825461133f565b61172182828561165c565b6000601f831160018114611750576000841561173e578287013590505b61174885826116cd565b8655506117b0565b601f19841661175e8661153d565b60005b8281101561178657848901358255600182019150602085019450602081019050611761565b868310156117a3578489013561179f601f8916826116af565b8355505b6001600288020188555050505b50505050505050565b7f4e487b7100000000000000000000000000000000000000000000000000000000600052601160045260246000fd5b60006117f382610f28565b91506117fe83610f28565b9250828201905080821115611816576118156117b9565b5b92915050565b60006020820190506118316000830184610f8b565b9291505056fea2646970667358221220ce75f9fa49d4baa4af67c1caff363eb66bdc9001a4176e86e76d716be6ed55e264736f6c63430008140033",
  "linkReferences": {},
  "deployedLinkReferences": {}
}